:020000040000fa
:080000000002040000000000f2
:020000040000fa
:10000800d2020000da020000fe020000e202000054
:10001800ea020000f202000002030000fa020000f7
:10002800fa020000fa020000fa020000fa020000d8
:10003800fa020000fa020000fa020000fa020000c8
:10004800fa020000fa020000fa020000fa020000b8
:10005800fa020000fa020000fa020000fa020000a8
:020000040000fa
:100400000f0021000eff22000e01880000000000f6
:10041000000020000000e000020032000001200087
:10042000200288000c000700403a20000100200054
:100430000f000700000020000000e0000200320072
:1004400000000200000000004a030200000000005b
:100450000040da000000fe00200020000000e00064
:100460000200320010002000900188000000060009
:10047000a1028800800078000000eb001a0037001d
:10048000e280400054a0b4009101ba00e280400034
:1004900054a0b4009102ba00e280400054a0b4001d
:1004a0000002eb00472bde00f507b200a601880032
:1004b000602ce10008003a000049eb000201e8006e
:1004c000020039003420ec0002f0a0008301e900b2
:1004d000f9ff3e00040037006128e100010032000e
:1004e0000082eb00040007001101ba000200e000e6
:1004f000e3ff3a000000060004d0a300e20f490029
:100500001c003900810278003549ba000201e80078
:10051000020039003420ec0002f0a0008301e90061
:100520000f0032002549ba000201e800020039003c
:100530003420ec0002f0a0008301e9000800320042
:100540000400e0000600320015c9ba000201e8000c
:10055000020039003420ec0002f0a0008301e90021
:100560008180e80054a0b4000300e000e2ff3a00fc
:10057000000006009102ba00055978008301e900e5
:10058000f7ff3200c82ade00055978008301e90030
:10059000f3ff32000400e000f1ff320011d9ba008d
:1005a000eeff3700801f78000000fa00c028a90085
:1005b000ffff3700801f78000000fa00c068a90024
:1005c000ffff3700801f78000000fa00c048a90034
:1005d000ffff3700801f78000000fa00c088a900e4
:1005e000ffff3700801f78000000fa00c0a8a900b4
:1005f000ffff37000000fa00ffff37000000fa009d
:0c060000ffff37000000fa00ffff37008a
:020000040000fa
:10060c000000fa0040a7a9004307a8004327a9004f
:10061c004347a90042e7a90042c7a9000000000017
:10062c00153a800004002700848262000400210037
:10063c00848f5200faff3a000080fa000000060096
:10064c000000fa0045e7a9004587a90045a7a900c5
:10065c0045c7a9004567a9004507a9004527a9007a
:10066c004547a90044c7a90044e7a9004407a900cd
:10067c004427a9004447a9004467a9004487a9005e
:10068c000080fa00000006000000fa00dcff070002
:10069c001100070020000700122ea800030007001d
:1006ac00122ea90001000700fbff37000200fa0020
:1006bc000002eb00040f7800010037001e0fe80069
:1006cc00f4e124009e027800848f5200fbff34007a
:1006dc000080fa00000006000000fa000002eb00a7
:1006ec00147088000002eb00047088000002eb001c
:1006fc00747088000002eb00947088000002eb001c
:10070c0084708800130ea8000002eb00f4708800bf
:10071c000080fa00000006000000fa0014028000bd
:10072c000450a0000460a0000470a0001402880013
:0c073c00c3e8a9000080fa0000000600dd
:020000040000fa
:0407480000000000ad
:020000040000fa
:020000040001f9
:045fe000cfff0000ef
:020000040000fa
:020000040001f9
:045fe400ffff0000bb
:020000040000fa
:020000040001f9
:045fe8007fff000037
:020000040000fa
:020000040001f9
:045fec007bff000037
:020000040000fa
:020000040001f9
:045ff000f9ff0000b5
:020000040000fa
:020000040001f9
:045ff400ffff0000ab
:00000001FF
