:020000040000fa
:080000000002040000000000f2
:020000040000fa
:10000800d2020000d8020000f4020000de02000064
:10001800e4020000ea020000f8020000f00200001a
:10002800f0020000f0020000f0020000f002000000
:10003800f0020000f0020000f0020000f0020000f0
:10004800f0020000f00200006a1200002212000014
:1000580062120000f0020000f0020000f00200004e
:10006800f0020000f0020000f0020000f0020000c0
:1000780072120000f0020000f0020000f00200001e
:10008800f0020000f0020000f0020000f0020000a0
:10009800f0020000f0020000f0020000f002000090
:1000a800f0020000f0020000f0020000f002000080
:1000b800f0020000f0020000f0020000f002000070
:1000c800f0020000f0020000f0020000f002000060
:1000d800f0020000f0020000f0020000f002000050
:1000e800f0020000f0020000f0020000f002000040
:1000f800f0020000f0020000f0020000f002000030
:10010800f0020000f0020000f0020000f00200001f
:10011800f0020000f0020000f0020000f00200000f
:10012800f0020000f0020000f0020000f0020000ff
:10013800f0020000f0020000f0020000f0020000ef
:10014800f0020000f0020000f0020000f0020000df
:10015800f0020000f0020000f0020000f0020000cf
:10016800f0020000f0020000f0020000f0020000bf
:10017800f0020000f0020000f0020000f0020000af
:10018800f0020000f0020000f0020000f00200009f
:10019800f0020000f0020000f0020000f00200008f
:1001a800f0020000f0020000f0020000f00200007f
:1001b800f0020000f0020000f0020000f00200006f
:1001c800f0020000f0020000f0020000f00200005f
:1001d800f0020000f0020000f0020000f00200004f
:1001e800f0020000f0020000f0020000f00200003f
:1001f800f0020000f0020000f0020000f00200002f
:10020800f0020000f0020000f0020000f00200001e
:10021800f0020000f0020000f0020000f00200000e
:10022800f0020000f0020000f0020000f0020000fe
:10023800f0020000f0020000f0020000f0020000ee
:10024800f0020000f0020000f0020000f0020000de
:10025800f0020000f0020000f0020000f0020000ce
:10026800f0020000f0020000f0020000f0020000be
:0c027800f0020000f0020000f0020000a4
:020000040000fa
:10040000ef1121000eff21000e0188000000000006
:10041000000020000000e000020032000001200087
:10042000200288000c000700004721000100200086
:100430000f000700000020000000e0000200320072
:10044000000002000000000058150200000000003b
:100450000040da000000fe00c00720000000e000bd
:1004600002003200002020009001880000000600f9
:10047000a1028800800078000000eb001a0037001d
:10048000e280400054a0b4009101ba00e280400034
:1004900054a0b4009102ba00e280400054a0b4001d
:1004a0000002eb00472bde00f507b200a601880032
:1004b000602ce10008003a000049eb000201e8006e
:1004c000020039003420ec0002f0a0008301e900b2
:1004d000f9ff3e00040037006128e100010032000e
:1004e0000082eb00040007001101ba000200e000e6
:1004f000e3ff3a000000060004d0a300e20f490029
:100500001c003900810278003549ba000201e80078
:10051000020039003420ec0002f0a0008301e90061
:100520000f0032002549ba000201e800020039003c
:100530003420ec0002f0a0008301e9000800320042
:100540000400e0000600320015c9ba000201e8000c
:10055000020039003420ec0002f0a0008301e90021
:100560008180e80054a0b4000300e000e2ff3a00fc
:10057000000006009102ba00055978008301e900e5
:10058000f7ff3200c82ade00055978008301e90030
:10059000f3ff32000400e000f1ff320011d9ba008d
:1005a000eeff37000000fa00c028a900ffff370067
:1005b0000000fa00c068a900ffff37000000fa0041
:1005c000c048a900ffff37000000fa00c088a9005a
:1005d000ffff37000000fa00c0a8a900ffff3700a6
:1005e0000000fa00ffff37000000fa00ffff3700ad
:1005f0000000fa00ffff37000a00fa00e20f500087
:1006000022003e00e4888000e10f52000600320024
:1006100087232000462320002423200005232000d8
:10062000e08f530004003a00872220004622200079
:100630002422200005222000000028001500600070
:1006400003003a00800b780007002800958a7300a9
:10065000054020009482620001003a0014a0a0002e
:100660008202780006003700940378000710b20079
:10067000fdff3200b103fb00070b78008502e900a3
:10068000e08f5200f8ff3a000800370034002000e5
:100690001007980032079800040f7800210798008f
:1006a0000e007800190407003e0190000200780057
:1006b0000080fa0000000600c00f21000000fa00d0
:1006c00068015700ceb89700020007000080fa00ca
:1006d000000006003a00fa00889fbe00011798004b
:1006e0008a9fbe00421798008c9fbe00800678004b
:1006f0000000eb0060179800730337008e10900025
:1007000054c2b3008100e80001179800844f5000e4
:1007100006003a00010278000006eb0001c3b300b6
:1007200000c2b300b7c2b300100037003d02900012
:100730000404b200040032001d027800004a780070
:10074000840ee800050037000000fb008d007800f3
:1007500068030700e10f40005b0332006e11900058
:100760000201e800621798005703370084027800fe
:10077000d3c2b30034437800834f530009003200e2
:1007800005003c00804f530008003200874f5300a3
:100790000c003a0007003700814f530009003a006f
:1007a000060037000c30a000f0ff37000c00a0005e
:1007b000eeff37000c10a000ecff37000c20a0006b
:1007c000eaff370062026600010032000c00a1005f
:1007d00068026600010032000c20a1000602fb0046
:1007e0000403b100e90f52000c003e00050378003d
:1007f0000002eb00b602fb00ea22b9000503b100db
:100800009603fb00048242000703b10086027800d1
:10081000e98f5300f7ff3600080037000002eb00b5
:10082000a7c2b300874f530004003a004e13900054
:100830008502e80046027800461798008003eb0026
:10084000e6c2b30057179800954f13000c003a000a
:100850000ce0a00064435300d54f130003003200a6
:100860000503780007007800090037004e14900057
:100870008502e800c80478004817980059179800c6
:100880000503780009003700ea00b9000080430042
:1008900086027800b603fb000703b100e98f53001e
:1008a000f9ff360050179800f5ff3700b642780080
:1008b000cbc6b300061798008bcf5200250032003c
:1008c0000f003c0036c6b30086cf5200a4003200b1
:1008d00004003c00e0cf5200000332006b435300a1
:1008e0000f00370046c6b30086cf52001700320013
:1008f0006543430086cf5200b7003a00130037002b
:1009000036c7b30086cf52001f00320007003c00fc
:100910006443530086cf5200140032000643e800bf
:1009200086cf5200ac003a001300370056c7b30020
:1009300086cf5200ad0032006343430086cf5200a1
:10094000a5003a00054f78000d003700054f7800ec
:10095000a8003700f0036600050120000100320006
:10096000050028000c867200d0ff3700054f780084
:100970000c60a0009f003700054f78000c50a000cd
:100980000c70a0009b0037004e109000054f7800bf
:10099000c00278004017980075179800e08f520049
:1009a00002003a00820e2100721798007e13900018
:1009b0008002eb00010037008502e8008503430058
:1009c0008041eb0097cf1100fbff3a00051f980014
:1009d000de129000e08f5200050032000e1b9000e6
:1009e000868f52000200310085037800071f9800af
:1009f0008e1a90000004eb00850f520001003600b3
:100a0000050452006806660009c2b30011003200f6
:100a10002d0037003d0290000404b20004003200b3
:100a20001d027800094a7800840ee80005003700ae
:100a30008d00780000022000ae020700e10f4000a8
:100a4000030032006e1590000a05e8006a1798004e
:100a50000804e900e00f5400eeff3a000084eb00c8
:100a600019003700bd0290000504b20009003200f1
:100a7000880278009d03780035437800864b780023
:100a800005047800870ee800e04f53000a003a00a2
:100a900013003700880278008d0078003500fb00d5
:100aa000441f980005047800920207004e1a900037
:100ab000e10f40000a0032006e1090000000e800d4
:100ac00060179800060037000c02780008067800ce
:100ad0007e1490008e1c90001e1d9000ae1d900094
:100ae000890278008504e900e08f5200ddff3a00ba
:100af00078179800091f98001a1f98002b1f98005c
:100b00000c04780004067800e00f56006e023200f4
:100b100009c2b3006e1690000e0037003d0290002f
:100b20000404b200040032001d027800094a780073
:100b3000840ee800050037008d00780000022000d8
:100b40006c020700e10f4000010032000c06e800d3
:100b50000804e900e00f5400f0ff3a0059023700a2
:100b6000ce10900070036600410478004117980091
:100b7000cfc4de00090578008a0578000800be00b1
:100b80000a01be004800de00c80add0000807200d5
:100b9000004f7800e00f530009003200e04f500092
:100ba00007003200e14f400005003200260020001f
:100bb0001047980028479800061f98000300370048
:100bc00017002000071f9800184798000e04e8003f
:100bd000781798007eff37001a002000054f780034
:100be0007e1798000a1f980079ff3700054f78009c
:100bf0000c0cb3008c027800050cb2003b003a00ec
:100c0000e00f560005003d00ce1290004501be00e9
:100c10004500be00451798000f003700f00266003f
:100c2000120032004e1490004803be0046079800a0
:100c3000570798004817980098029000cfaade0046
:100c400065079800750798004e009000de00900040
:100c50006e019000fe01900070179800011f98002f
:100c6000121f9800231f98000b003700ce10900031
:100c7000c102780005047800cfc4de0009057800c1
:100c80008a0578004117980078179800091f980086
:100c90001a1f98002b1f98007e1090008e1890004d
:100ca0001e199000ae199000e00f5000e08f580020
:100cb000e00f5900e08f590032003d006000b8009d
:100cc0006011b8007e1490008e1c90001e1d9000d4
:100cd000ae1d90003c00b300080450008984580009
:100ce0000a0559008b85590022003700e00f560095
:100cf00005003d00ce1290004501be004500be003b
:100d0000451798000f003700f0026600120032000d
:100d10004e1490008004eb004803be000005eb0079
:100d2000460f9800570f9800690f98007a0f9800a7
:100d30004e089000de0890006e099000fe099000b9
:100d40004817980070179800011f9800121f98000c
:100d5000231f98000b003700ce109000c1027800ce
:100d60004117980005047800090020000a002000bf
:100d70000b00200078179800091f98001a1f980090
:100d80002b1f9800de149000e08f54000d003a00f5
:100d90001a0020007e1090008e1890001e199000fe
:100da000ae1990005a179800e00f5000e08f5800dd
:100db000e00f5900e08f5900020032008000eb0084
:100dc000511798000c01780005042000020cb200b5
:100dd00032179800850f51003400320003003c00a8
:100de000e00f5100080032004800370005082000dd
:100df000be119000858f510014003200050c2000b8
:100e0000858f510041003a00e602210015c0b30071
:100e10003600be003601be007e1490008e1c90008d
:100e20001e1d9000ae1d90000040e10001c8e100d1
:100e300002d0e10003d8e100330039008542e80028
:100e4000f4cf5200f2ff3a002f00370015c0b30074
:100e500000012000010020006011b8007e14900005
:100e60008e1c90001e1d9000ae1d90000040e10001
:100e700001c8e10002d0e10003d8e10022003900fe
:100e8000490020000000d0008180d2000281d20001
:100e90008381d2008904e900faff3a008542e80024
:100ea000f0cf5200edff3a001700370015c0b30035
:100eb00080002000010020006011b8007e14900026
:100ec0008e1c90001e1d9000ae1d90000040e100a1
:100ed00001c8e10002d0e10003d8e1000a003900b6
:100ee000390020000000d0008180d2000281d200b1
:100ef0008381d2008904e900faff3a008542e800c4
:100f0000f5cf5200edff3a00054f78009e02fb003e
:100f10005e1590008a8f520002003d000a4f780053
:100f200004003700de159000858f550001003d005c
:100f300055179800e00f520003003200e3026600ec
:100f4000010032000402e900050024008502660069
:100f5000060032005e109000800f52000200340044
:100f600000025200010037000002eb008000eb009d
:100f70009e02fb0021179800850f520002003400ea
:100f80008502520025179800640266004500320071
:100f9000e202660061026600e08f52001700320034
:100fa000bd0290000504b200080032009d027800e6
:100fb000b6c2b300e00f52000100320006c3e800e1
:100fc000864a7800850ee80008003700b00220004d
:100fd000e00f5200010032000080e8008d00780030
:100fe00044010700e10f4000160032006e1190002e
:100ff0000201e8006217980012003700e00f52006b
:10100000100032003d0290000404b20005003200de
:101010001d02780005c2b300054a7800840ee8007e
:10102000050037008d007800000220003101070024
:10103000e10f400003003200ee1190008301e80050
:10104000631798002e129000e00f52005b003200f0
:1010500008c3b300840478003d0290000404b20089
:10106000040032001d027800084a7800840ee8006f
:10107000050037008d007800000320001d010700e7
:10108000e10f400003003200ee1290008502e800fc
:10109000651798008904e900efff3a0029179800c6
:1010a000460037002e139000e00f53001600320068
:1010b0006802660014003a0008c2b3008604780093
:1010c0003d0290000404b200040032001d027800ca
:1010d000084a7800840ee800050037008d0078008b
:1010e0000002200003010700e10f4000030032006e
:1010f000ee1390008703e800671798008904e90061
:10110000efff3a0029179800e202660061026600cc
:10111000e08f520017003200bd0290000504b200bb
:10112000080032009d027800b6c2b300e00f520002
:101130000100320006c3e800864a7800850ee80008
:1011400008003700b0022000e00f5200010032001a
:101150000080e8008d007800e6000700e10f400005
:10116000160032006e1490000804e800681798001a
:1011700012003700e00f5200100032003d029000d4
:101180000404b200050032001d02780005c2b3005d
:10119000054a7800840ee800050037008d007800cd
:1011a00000022000d3000700e10f400003003200de
:1011b000ee1490008904e800691798005e1590000d
:1011c000640221008a02e900f0056600c32add00fe
:1011d0000c007800048242000002b200141798004c
:1011e0003b079800200798009c003700de10900015
:1011f0003e1190008100e90003042000511798007f
:10120000830f51006f00320003003c00e00f5100db
:10121000080032007c00370004082000be12900055
:10122000848f520051003200040c2000848f520041
:1012300075003a00e00f56001b003d001e139000a1
:101240007e1090008e1890001e199000ae1990002c
:101250003604be002605be000802be000a03be001a
:10126000e30107000802be000a03be00004f780039
:101270000000fb00cf80de000101780082017800d1
:101280004c0207007e1490008e1c90001e1d9000e2
:10129000ae1d90000004540081845c0002055d00d6
:1012a00083855d0020003700be049000e08f54006d
:1012b000220032001e1090007e1290008e1a9000c4
:1012c0003004be002005be00441f98000400be008c
:1012d0000801be00351f9800100107000801be007c
:1012e000004f78000000fb00cf80de001b010700ec
:1012f0004e1a9000be1a90000001520081815a00df
:101300000002eb00020f9800130f9800340f9800b2
:101310008001eb00230f98000e0c90009e0c9000b3
:101320002e0d9000be0d900078179800091f9800b0
:101330001a1f98002b1f9800090037009e14900078
:101340007e15900019027800110009000485d8006c
:10135000a4002000110009000480d800014f78008b
:101360000bc3b3001ecf450027003700740d2100ca
:101370002e009000e00f500001003200640c2100ac
:10138000de109000c20add007e1090008e189000e2
:101390001e199000ae1990008502e9000500330087
:1013a0008301d1000281d3008180d3000080d3006b
:1013b000f9ff3700ef02600005024200144f780089
:1013c000110037005e1190007e1490008e1c90007a
:1013d0001e1d9000ae1d9000e312b90001c3b300c2
:1013e000040078000000e900050033008b05d100ff
:1013f0000a85d3008984d3000884d300f9ff37001d
:1014000067426400014f42003d0290000404b200b4
:10141000070032009d0278001e427800844a78005e
:10142000850ee800e04f520006003a000800370041
:101430001e00fb008d0078002e000700e10f400029
:10144000030032006e1190000201e800621798005c
:101450009e119000e8815100131798005e129000d1
:10146000e00f520061ff3a00680666001600320085
:10147000ae129000e08f5200130034006e16900000
:1014800008c2b300850478003d0290000404b20055
:10149000040032001d027800084a7800840ee8003b
:1014a000050037008d0078000002200011000700c1
:1014b000e10f4000010032000c06e8008904e90059
:1014c000f1ff3a006c1798000e1390001640780058
:1014d000004f7800e04f500088fc3a004f06be00f5
:1014e0006e1090004f05be004f04be000080fa0051
:1014f000000006000000fa00889fbe00010478008a
:101500008084eb0038029000e20262003b0032006f
:1015100004037800980290000620b20002003a000e
:10152000e08f520035003a000490a000800478005b
:1015300034049800f90fb200e08f520002003a0024
:10154000a8029000050c7800ea8f540005003a00cc
:101550000408b20003003a0088007800d0002000a0
:10156000e4ff070018029000d8029000850f520097
:101570000b0032000402e80015c0b3001404980008
:1015800018027800094a7800040ce8006411210070
:10159000054a7800ea8f540018003a000500370029
:1015a000094078008800780018000700800478005f
:1015b00012003700380290000410b2000f00320011
:1015c00018019000a8009000480090000afc070055
:1015d00018029000840f500004003200380290007e
:1015e0000403b300340498008084eb000002eb0095
:1015f0001404980028029000040c78000900780078
:101600004f04be000080fa00000006000200fa004d
:10161000889fbe0001047800004f780038029000d7
:10162000840278000504b200020032000000fb00d2
:1016300033003700e202620005003a000403b30001
:1016400015049800340498000080eb002c0037004b
:10165000d8049000e08f540006003a0012002000e9
:101660008e00780048009000e3fb07001904980002
:1016700022003700a8029000e08f520008003a00d4
:10168000a51121000430a00025049800050c780065
:101690003404980025002000550498001504980093
:1016a00018019000a800900048009000d2fb0700ad
:1016b000280290008082eb00150498001e4a7800f2
:1016c000040ce800a4c0b3009e4f12000b003a00c7
:1016d000380290000410b200080032001801900097
:1016e000a800900048009000c3fb07000002eb0038
:1016f0001404980028029000040c78001e00fb00df
:101700004f04be000080fa00000006000000fa004e
:1017100000c0da000080fa00000006006022b80075
:10172000060220000000d0008180d2000482d20096
:101730008582d2000000a0000202520083825a007b
:10174000030031000202420083824a000000a1002f
:101750000603e900f3ff3a0000000600020ab900a0
:10176000001bb9000200b800810042008100430064
:10177000000006000000fa00889fbe008a9fbe009d
:101780003004be002005be000404440085844c00e3
:1017900006054d0087854d000898be000a90be00e2
:1017a0000440e10005c8e10006d0e10007d8e100ef
:1017b00002003100680040001008e8004f05be003c
:1017c0004f04be000080fa00000006001000fa007e
:1017d000889fbe008a9fbe000605be000404be00ae
:1017e0003002be002003be00049fbe000697be006c
:1017f000110020000802520089825a000a035b008f
:101800008b835b0044079800550798006607980093
:10181000770798000498be000698be003e02be00fe
:101820002e03be000820e10009a8e1000ab0e10093
:101830000bb8e100010039008000eb004f05be004d
:10184000108810004f04be000080fa00000006005f
:101850001400fa00889fbe005b0007008a9fbe004c
:101860008c9fbe000006eb004c0798003c079800d8
:101870002c0798001c0798000c0f78000605be0086
:101880000404be000d0420004e039000be02900030
:10189000860343002e029000e00f530003003d003a
:1018a0002a000700b3ff07000200370027000700e7
:1018b000c6ff0700ce029000150f9800e08f52007f
:1018c0000900350045000700140020000500200035
:1018d0006033b80000007200818072000201730062
:1018e00083817300380007000c06e8008d0f560056
:1018f000e5ff3a001e0a9000e00f520004003d0090
:101900000802be000a03be000e00780099ff07001f
:101910004eba9700e00f520006003a003e04be00a7
:101920002e05be0058079800690798007a079800ae
:101930000b0f98004f06be00280007004f05be00a1
:101940004f04be000080fa00000006004f2bde00ae
:101950002200070086837300858242004f23de0049
:1019600047079800868272000402420035079800fb
:101970009e0290004f2bde0085824200060272001c
:10198000240798001e0278004f23de000402420064
:1019900086827200150798004f18de00000f720053
:1019a0000e0007000802be000a03be00000040004f
:1019b000818048000201490083814900020007003c
:1019c0000e0078000000060050079800610798009c
:1019d00072079800030f9800000006005e00900058
:1019e000ee0090007e0190008e099000000006003d
:1019f0000000fa00881f780018002000881f780077
:101a000093ff07008f87e9004f0478000080fa00f9
:101a1000000006000000fa00801feb008cff0700aa
:101a20008f87e9000080fa00000006000000fa003d
:101a3000889fbe008a9fbe00e00f5000e08f5800d4
:101a4000e00f5900e08f59000c003d006044b800e1
:101a50006055b8000000540081805c0002015d0008
:101a600083815d00180020001600070008003d007b
:101a7000190007000004eb00050037000004eb002c
:101a80001000070002003d001300070018002000ae
:101a9000d7ff0700e00f5400060032006022b800b4
:101aa0006033b8000000520081805a0002015b00e0
:101ab00083815b004f05be004f04be000080fa002a
:101ac00000000600e00f5200e08f5a00e00f5b00bc
:101ad000e08f5b00000006006044b8006055b8006d
:101ae0000402540085825c0006035d0087835d006c
:101af000000006000000fa00889fbe008a9fbe001a
:101b00008c1f7800e00f5000e08f5800e00f590064
:101b1000e08f59000d003d006044b8006055b800ea
:101b20001c0020000000540081805c0002015d0068
:101b300083815d000820e10009a8e1000ab0e1000e
:101b40000bb8e1000d003d00080037000006eb0077
:101b5000e00f5200e08f5a00e00f5b00e08f5b0067
:101b600006003d006044b8006055b800040254000f
:101b700085825c0006035d0087835d00a5ff07008a
:101b8000e00f5600060032006022b8006033b80053
:101b90000000520081805a0002015b0083815b00db
:101ba0004f0678004f05be004f04be000080fa00cb
:101bb000000006000000fa00889fbe008a9fbe0059
:101bc0008c1f78000006eb00e00f5000e08f5800fb
:101bd000e00f5900e08f590007003d006044b80055
:101be0006055b8001c0020000000540081805c009b
:101bf00002015d0083815d00e00f5200e08f5a001a
:101c0000e00f5b00e08f5b0007003d006044b80020
:101c10006055b8000c00a2000402540085825c00ec
:101c200006035d0087835d000d000700e00f56008e
:101c3000060032006022b8006033b8000000520095
:101c400081805a0002015b0083815b004f067800af
:101c50004f05be004f04be000080fa0000000600e1
:101c6000889fbe008a9fbe008c9fbe000404b800ff
:101c70000506b8008904460060854e000606b800d7
:101c80000a054600e0854e000706b8008b054600b1
:101c9000040eb800890446000a854e00e0854d0018
:101ca000050eb8000a0546008b854e00060eb800ea
:101cb0008b0546000416b8000a0546008b854e00c9
:101cc0000516b8008b054600041eb8008b054600bb
:101cd0000800be000a01be004f06be004f05be0050
:081ce0004f04be0000000600e5
:020000040000fa
:101ce800434f00004e460000494700003a200000dc
:101cf80025780000200a0000004500004e5f000023
:101d0800414100003a20000025780000200a000028
:101d180000520000465f0000534500005455000083
:101d2800503a000020250000782000000a0000003a
:101d3800524600005f430000483a0000202500009a
:101d4800782000000a0000005345000054550000a8
:101d5800505f000052450000545200003a20000035
:101d680025780000200a00000046000049460000cf
:101d78004f5f0000535400004154000055530000c9
:101d88003a20000025780000200a000000530000d7
:101d98005441000054550000533a0000202500002b
:101da800782000000a2000002a2d00002d2d0000b8
:101db8002d2d00002d2d0000504500004e4e000036
:101dc800592d00002d2d00002d2d00002d2d000077
:081dd8002a2000000a000000af
:020000040000fa
:101de0000000fa0053020700118ea900116ea9002d
:101df000114ea800158ea900156ea8000080fa00eb
:101e0000000006000800fa0060479800c1c4b30053
:101e10000040eb00a500070031c0b30050c0b30084
:101e2000a200070061c0b30060c0b3009f000700bc
:101e3000c1c4b3000040eb009c00070011c0b30018
:101e400010c0b30099000700a1c2b30040c0b300a6
:101e50009600070001c7b30070c0b30093000700ed
:101e60006e4290000482fb00cfa2de0056002000ec
:101e700007002000860f5200878f5a0061003e0045
:101e80000406010005003700130037002100370069
:101e90002f0037003d0037004b00370074ceb300f1
:101ea000444798004e429000344798003e429000cc
:101eb000244798002e429000144798001e4290003c
:101ec000044f78000e007800140107000e0078001f
:101ed0000a0107004b00370024ccb30044479800a8
:101ee0004e429000344798003e42900024479800ac
:101ef0002e429000144798001e429000044f780034
:101f00000e007800050107000e007800fb000700b6
:101f10003c00370024ccb300444798004e42900068
:101f2000344798003e429000244798002e4290008b
:101f30001447980034ccb300044f78000e007800aa
:101f4000f60007000e007800ec0007002d003700b7
:101f500024ccb300444798004e4290003447980088
:101f60003e429000244798002e429000144798006b
:101f700044ccb300044f78000e007800e70007005f
:101f80000e007800dd0007001e00370024ccb300ef
:101f9000444798004e429000344798003e429000db
:101fa000244798002e4290001447980054ccb30068
:101fb000044f78000e007800d80007000e0078006b
:101fc000ce0007000f00370024ccb3004447980030
:101fd0004e429000344798003e42900024479800bb
:101fe0002e4290001447980064ccb300044f780050
:101ff0000e007800c90007000e007800bf0007003f
:10200000000000000042eb000443780005002100be
:10201000864a7800e1c4b3000040eb0023000700cb
:102020000080fa00000006000000fa00d1c2b300f0
:102030000040eb001d000700158ea900156ea800da
:1020400031c0b30050c0b3001800070061c0b30036
:1020500060c0b3001500070001c2b30010c1b30097
:102060001200070011c0b30010c0b3000f0007003a
:10207000c1c2b3000040eb000c000700a1c2b300d6
:1020800040c0b3000900070001c7b30070c0b3002f
:102090000600070020ceb300c201070010ceb30037
:1020a000c00107000080fa00000006000200fa00ec
:1020b000004f780011479800156ea9001e42780065
:1020c000ff42620004c2b30004c272000440780000
:1020d000b40107001e409000b2010700156ea80071
:1020e0000080fa00000006000400fa002047980073
:1020f000156ea9002e4290007f42620004407800d5
:10210000a801070000c0eb00a6010700004278000c
:10211000044f7800156ea8001e4278000440780035
:102120000080fa00000006000600fa00004f780068
:102130001107980042479800156ea9001e427800ca
:10214000ff42620004c2b30004c27200044078007f
:1021500094010700ce4090001e009000af010700e0
:10216000156ea8000080fa00000006000200fa00c8
:10217000004f7800000000000400210014427800a5
:10218000e04f5200fcff3a00158ea90014c0b300c6
:102190000443780005002100864a7800e1c4b300ba
:1021a0000040eb00c1ff0700156ea90010ceb30080
:1021b0007c010700156ea800156ea90000cab300c7
:1021c000780107001e40780076010700156ea80010
:1021d000158ea800c02b200001002000cb020700b4
:1021e000158ea9000080fa00000006000400fa0025
:1021f000000f780021479800158ea90014c0b30085
:102200000443780005002100864a7800e1c4b30049
:102210000040eb00a5ff0700156ea90010ceb3002b
:1022200060010700156ea800156ea90000cab30072
:102230005c010700ae4090001e00780077010700a7
:10224000156ea800158ea800c02b200001002000ec
:10225000ae020700158ea9000080fa0000000600fb
:102260000200fa00158ea900156ea90010c6b30071
:102270004c01070000427800044f780000c0eb00da
:10228000480107000042780014479800156ea80026
:1022900001c4b30070c0b30084ff0700158ea8000e
:1022a0001e429000044078000080fa000000060002
:1022b0000400fa0010079800156ea90010c6b300bc
:1022c0003801070000427800044f780002c2b300d2
:1022d0009e0090001e00900063010700156ea8008c
:1022e00001c4b30070c0b30070ff07001e42780045
:1022f000044078000080fa00000006000200fa00a6
:10230000000f780052c0b3009e007800a0c0b30058
:1023100085ff07000080fa00000006000200fa00b6
:10232000000f780052c0b3009e00780000c1b300d7
:102330007dff07000080fa00000006000000fa00a0
:102340000002eb00044688000002eb0024468800ef
:102350000002eb0034468800c1e8a9002442800056
:1023600004c0a00004d0a00004e0a1002442880022
:10237000344280000400a1000410a0000420a10049
:10238000344288000002eb00044088000188a90064
:102390000168a9002188a8002168a8000148a900b7
:1023a000244280000480a1000490a10004a0a000a9
:1023b000244288002148a90005358000f40f280038
:1023c0008482620004a022000502720004358800a5
:1023d000c228a8000288a900544280000400a0007e
:1023e0000410a1000420a100544288002288a80003
:1023f0000080fa00000006000000fa0014028000cd
:102400000450a0000460a0000470a0001402880022
:10241000c3e8a9000080fa00000006000000fa00ee
:10242000140280000450a1000460a1000470a10007
:10243000140288004460a900c3e8a8000080fa00e4
:1024400000000600849fbe00861f78000000fa008e
:102450000168a90034118000044278000443780028
:1024600025022100864a7800250221009542780045
:1024700014c3b30084cf520001003a00122ea8000a
:10248000250221009542780004c3b30084cf520096
:1024900001003a00122ea900141180002242a90066
:1024a0001411800062026200e00f5200010032004d
:1024b0002222a9000080fa004f0378004f02be00dc
:1024c000004006000000fa000188a9000080fa0020
:1024d000004006000000fa000148a9000080fa0050
:1024e000004006003600f800809fbe00829fbe00bc
:1024f000849fbe00869fbe000000fa00156ea900f2
:1025000000c0eb00a70007000042780005c8b30038
:10251000054272000443780035022100864a7800a3
:10252000156ea80034022100144278008482fb005a
:102530000402200004826200e00f52000700320013
:1025400001c2b30070c0b300d8fe07000042eb0028
:102550000443780005002100864a780034022100f7
:10256000144278000482fb0070026200e00f520007
:102570001500320001c1b30070c0b300cbfe0700ec
:102580000042eb000443780005002100864a7800f1
:10259000247080006102620004f0a7000402ea00d7
:1025a0000402e9004f22de00044278000482fb00ae
:1025b0006102620026708000e5ff2f008502630043
:1025c0000502720024708800340221001442780051
:1025d0000482fb006102620004427800e04f520076
:1025e00004003200156ea90010ceb3006d00070084
:1025f000156ea8000288a9000080fa004f03be00f3
:102600004f02be004f01be004f00be003600f90071
:10261000004006000000fa000002eb000470880091
:102620000002eb00747088000002eb001470880058
:102630000002eb00847088000002eb00f470880058
:102640000002eb00947088000080fa000000060091
:102650000000fa0010aea80010cea90012cea8000b
:102660002536800004f82f00848262005402200086
:1026700005027200243688002534800004fc2f00f7
:10268000048262000400a0002434880021e2a90032
:1026900021a2a9002182a900041180000480a100c8
:1026a0000490a1000411880020c2a90020a2a90062
:1026b0002082a8002062a900041180000410a1005b
:1026c0000420a100041188002002a90023a2a9006f
:1026d00022e2a90023c2a8002342a900141180000d
:1026e0000460a1000470a1001411880022a2a900b6
:1026f000741c2000441188000080fa0000000600cd
:102700000200fa00004f78009e4278000582fb002c
:102710002411880000000000151180000410200022
:1027200004826200e00f5200fbff32000080fa00da
:10273000000006000000fa0010eea900110ea9002a
:10274000112ea8000002eb004412880041e2a9000b
:1027500041a2a9004382a9004362a9004342a90003
:102760004322a8004302a80042e2a90042c2a900f5
:1027700042a2a800141280000420a0000430a1008e
:102780000440a00014128800141280000400a1006c
:102790000410a1001412880041e2a8000080fa0091
:1027a000000006000200fa00004f78009e42780008
:1027b0000582fb0044128800000000000412800023
:1027c00061026200e00f5200fcff32004412800000
:1027d00004427800044078000080fa0000000600ff
:1027e0000200fa00000f78004342a8001e027800a1
:1027f00044128800000000000412800061026200a0
:10280000e00f5200fcff32004412800004427800c6
:10281000044078000080fa00000006000400fa007e
:10282000000f780021479800080037001e0278004a
:102830001442780004407800daff07002e4290002e
:102840000442e900244798001e0fe8002e42900041
:10285000e04f5200f5ff3a0014c0b3000440780086
:102860000080fa00000006000600fa00000f780061
:102870001107980042479800140037001e027800a4
:10288000144278000482fb0044128800000000001b
:102890000412800061026200e00f5200fcff32006f
:1028a00044128000844278001e029000054a78009d
:1028b0004e4290000442e900444798001e0fe80091
:1028c0001e0290000402e800140798004e42900097
:1028d000e04f5200e9ff3a000080fa0000000600d5
:020000040000fa
:1028e0002210000002000000800000002410000000
:1028f0000200000080000000001000002200000024
:1029000080000000f01000002400000082000000a1
:10291000181100000018110009000000000200005a
:102920001a110000001a11000e0201000000000040
:10293000000000000000000006020200000000008d
:10294000141100000200000082000000f0100000de
:1029500016110000020000008000000018110000a5
:1029600002000000800000001a11000002000000b8
:1029700080000000c61000002a0000008200000055
:1029800030313200333435003637380039414200b7
:1029900043444500460030003132330034353600c0
:1029a00037383900616263006465660000286e0094
:1029b000756c6c002900000026100000a0000000cb
:1029c00082000000010000000000000000000a007a
:1029d0000000000000000000006400000000000093
:1029e00000000000e80300000000000000001000ec
:1029f000270000000000000000a086000100000089
:102a00000000000040420f000000000000008000b5
:102a100096980000000000000000e100f5050000ad
:102a20000000000000ca9a003b0000000000000007
:102a3000e40b5400020000000000e8007648170094
:102a4000000000000010a500d4e800000000000015
:102a5000a0724e0018090000000040007a10f30038
:102a60005a0000000080c600a47e8d000300000014
:102a700000c16f00f2862300000000008a5d78002c
:102a80004563010000006400a7b3b600e00d00003c
:102a900000e889000423c7008a0000001c11000020
:102aa00002000000820000000100000000000000a1
:020000040000fa
:102ab0000200fa0050fe07007c00070060000700db
:102ac000d4fe0700e2fe07001cfe070053fe0700cd
:102ad00021e2a8002342a800c1fc07000040eb004f
:102ae000c8fc07000042eb00044f78000042eb00f6
:102af000044f7800060037001e4278008482fb00f5
:102b000014002100048242001e4a78001e4fe80093
:102b10001e427800fe4f5200f7ff360001c2b3009c
:102b200010002100b1fd070000d82100c1422000a3
:102b300076000700f9ff37000000fa000040eb00c4
:102b400069fd0700004278000482fb00841f7800c2
:102b500044e72800841f7800d7f60700e487570071
:102b600010c0b30060fd0700004278000482fb0043
:102b7000841f780014e82800841f7800cef6070030
:102b8000e487570060c0b30057fd0700004278009b
:102b90000482fb00841f7800d4e82800841f78009a
:102ba000c5f60700e487570050c0b3004efd07008c
:102bb000004278000482fb00841f7800c4e92800ea
:102bc000841f7800bcf60700e487570040c0b300bc
:102bd00045fd0700004278000482fb00841f780056
:102be00084ea2800841f7800b3f60700e4875700c2
:102bf00070c1b3003cfd0700004278000482fb0076
:102c0000841f780094eb2800841f7800aaf6070040
:102c1000e487570070c0b30033fd0700004278001e
:102c20000482fb00841f7800b4ec2800841f780025
:102c3000a1f60700e48757000080fa0000000600b4
:102c40000000fa0040a7a900143a80000480a00008
:102c50000490a10004a0a100143a880042e7a90052
:102c600042c7a9004207a80000000000153a8000f2
:102c7000040027008482620004002100848f520037
:102c8000faff3a004fe7a8004f87a900743a800086
:102c90000480a1000490a10004a0a10004b0a10040
:102ca000743a88000080fa00000006000000fa0074
:102cb00045e7a9004587a90045a7a90045c7a90080
:102cc0004567a9004507a9004527a9004547a90070
:102cd00044c7a90044e7a9004407a9004427a90064
:102ce0004447a9004467a9004487a900353a8000f9
:102cf00004e02f0084826200a40420000502720018
:0c2d0000343a88000080fa000000060051
:020000040000fa
:102d0c00f03fb1000180b10006003500ee03090070
:102d1c0000000000403fb1000180b100fbff3d000e
:102d2c001000b000203fb000020035000080090008
:082d3c00000000000000060089
:020000040000fa
:04afe000cfff00009f
:020000040000fa
:04afe400ffff00006b
:020000040000fa
:04afe8007fff0000e7
:020000040000fa
:04afec007fff0000e3
:020000040000fa
:04aff000f9ff000065
:020000040000fa
:04aff400cfff00008b
:00000001FF
