:040000000CEF00F011
:10000800FACF31F0FBCF32F0E9CF33F01BED08F037
:100018009BEF09F0C6EC09F0F294D58EF28EF28CC3
:10002800F2A4FED71FB84FD1F0EC08F01F6E4BD1E9
:10003800010E1C6E4FEC02F0FCD1050E1C6E4FEC4D
:1000480002F0F7D11F500F0B1F6E0950A10AD8A458
:10005800F0D10A50020AD8A4ECD1020E1C6E4FEC63
:1000680002F025D01F50010AD8B4E3D1030AD8B44E
:10007800E0D1060AD8B4DDD10C0AD8B4DED7180A04
:10008800D8B4E0D7D6D1050E1C6E4FEC02F0D1D112
:100098001F500F0B1F6E0950A20AD8A4CAD10A50CC
:1000A8000F0AD8A4C6D1030E1C6E4FEC02F0000E46
:1000B8001B6EBFD11F50010AD8B4BBD1030AD8B4F4
:1000C800B8D1060AD8B4B5D10C0AD8B4DCD7180A06
:1000D800D8B4DED7AED1040E1C6E4FEC02F0A9D115
:1000E8001F50010AD8B4A5D1030AD8B4A2D1060A70
:1000F800D8B4F1D70C0AD8B49CD1180A9AD1050EF5
:100108001C6E4FEC02F095D11F50010AD8B491D162
:10011800030AD8B48ED1060AD8B48BD10C0AD8B445
:10012800EED725D0070E1C6E4FEC02F082D1060EDA
:100138001C6E4FEC02F07DD1080E1C6E4FEC02F0E5
:1001480078D1040E1C6E4FEC02F073D11F500F0BC8
:100158001F6E6FD11F50010AD8B4E4D7030AD8B470
:10016800E6D7060AD8B4E8D70C0AD8B4EAD7180AEA
:10017800D8B4ECD75ED1050E1C6E4FEC02F059D105
:10018800050E1C6E4FEC02F054D1050E1C6E4FECA0
:1001980002F04FD1090E1C6E4FEC02F04AD10A0E44
:1001A8001C6E4FEC02F045D10B0E1C6E4FEC02F0AA
:1001B80040D10C0E1C6E4FEC02F03BD10D0E1C6EA4
:1001C8004FEC02F036D10E0E1C6E4FEC02F031D11E
:1001D8002150000AD8B4D9D7010AD8B4DBD7030A0A
:1001E800D8B4DDD7010AD8B4DFD7070AD8B4E1D725
:1001F800010AD8B4E3D7030AD8B4E5D71AD1000E58
:100208001C6E4FEC02F015D1050E1C6E4FEC02F07F
:1002180010D1050E1C6E4FEC02F00BD1050E1C6EB2
:100228004FEC02F006D1050E1C6E4FEC02F001D126
:10023800090E2664FED00A0E265EFBD0330E265C1D
:10024800D8B0F7D00A0E2626F4D00D0E1C6E4FEC4F
:1002580002F0EFD01F50010AD8B4F0D7030AD8B47F
:10026800E7D70A0AD8B4DFD7F0D7050E1C6E4FECD3
:1002780002F0DFD0050E1C6E4FEC02F0DAD00F0E44
:10028800515CD8A0512A0E0E1C6E4FEC02F0D1D052
:100298005150D8A451060E0E1C6E4FEC02F0C9D076
:1002A8000E0E1C6E4FEC02F0C4D01F50010AD8B4D9
:1002B800EFD7030AD8B4E3D7060AD8B4DBD70C0AB9
:1002C800D8B4D3D7EDD71D50000AD8B4B1D6010A97
:1002D800D8B4C8D6030AD8B4EDD6010AD8B400D722
:1002E800070AD8B411D7010AD8B434D7030AD8B446
:1002F80042D7010AD8B444D70F0AD8B469D7010A3B
:10030800D8B47DD7030AD8B47FD7010AD8B481D727
:10031800070AD8B483D7010AD8B49CD7030AD8B43B
:10032800C4D787D0000E216E140E266E000E1B6EE9
:100338005CEC0AF0000E286E000EACEC08F0000E23
:10034800426E010E67EC09F05150010DCB0EF324FB
:10035800F66E7E0EF420F76E0800F5CF7BF00001F4
:100368007B39F00B816E808AD1EC07F090D0910E2A
:10037800296E000E406E290E3F6E080E416E45EC48
:100388000AF04FEC02F083D01B6681D0920E296EE2
:10039800000E406E290E3F6E080E416E45EC0AF0C5
:1003A8004FEC02F0010E1B6E72D01B50D8B40ED069
:1003B800930E296E000E406E290E3F6E080E416E98
:1003C80045EC0AF04FEC02F0000E1B6E1C50040ABC
:1003D800D8A45DD0940E296E000E406E290E3F6E93
:1003E800080E416E45EC0AF04FEC02F050D0215057
:1003F800D8A421064FEC02F04AD0060E215CD8A002
:10040800212A4FEC02F043D04FEC02F040D051507B
:10041800010DCB0EF324F66E7E0EF420F76E080065
:10042800F5CF7BF000017B39F00B816E4FEC02F0C9
:100438002ED01D50000AD8B475D7010AD8B497D762
:10044800030AD8B4A1D7010AD8B4AFD7070AD8B4D9
:100458001ED0010AD8B41BD0030AD8B4C8D7010AE1
:10046800D8B4CBD70F0AD8B412D0010AD8B40FD059
:10047800030AD8B40CD0010AD8B409D0070AD8B4F2
:1004880006D0010AD8B4C0D7030AD8B4C0D71CC054
:100498001DF0F294C5D598D1EFEC04F0C3D1EFEC80
:1004A80004F0C0D1000E486E000EE8EC09F07F0E93
:1004B800496E730E486EFFEC06F0010E486E000E92
:1004C800E8EC09F07E0E496EFC0E486EFFEC06F073
:1004D800A9D1000E486E000EE8EC09F07F0E496EB7
:1004E8000D0E486EFFEC06F0010E486E000EE8ECAB
:1004F80009F07E0E496EDA0E486EFFEC06F092D1D6
:10050800000E486E000EE8EC09F07E0E496EEB0E08
:10051800486EFFEC06F0010E486E000EE8EC09F09C
:100528007E0E496EDA0E486EFFEC06F0A1D0000E82
:10053800486E080EE8EC09F07F0E496EC70E486E4B
:10054800FFEC06F0010E486E080EE8EC09F07F0E8D
:10055800496EB50E486EFFEC06F064D1000E486E89
:10056800080EE8EC09F07F0E496EB50E486EFFECF8
:1005780006F0010E486E080EE8EC09F07F0E496E91
:10058800D00E486EFFEC06F04DD1000E486E080EF6
:10059800E8EC09F07F0E496ED00E486EFFEC06F0CD
:1005A800010E486E080EE8EC09F07F0E496EAC0E9D
:1005B800486EFFEC06F036D1000E486E080EE8ECE7
:1005C80009F07F0E496EAC0E486EFFEC06F0010E86
:1005D800486E080EE8EC09F07F0E496EA30E486ECF
:1005E800FFEC06F01FD1000E486E080EE8EC09F08B
:1005F8007F0E496EA30E486EFFEC06F0010E486EA2
:10060800080EE8EC09F07F0E496EBE0E486EFFEC4E
:1006180006F008D1000E486E080EE8EC09F07F0ECF
:10062800496EBE0E486EFFEC06F0010E486E080ECD
:10063800E8EC09F07F0E496ED90E486EFFEC06F023
:10064800F1D0000E486E080EE8EC09F07F0E496EF6
:10065800990E486EFFEC06F0010E486E080EE8ECA5
:1006680009F07F0E496E8F0E486EFFEC06F0DAD067
:100678002150000AD8B45BD7010AD8B46FD7030A4F
:10068800D8B483D7010AD8B497D7070AD8B4ABD758
:10069800010AD8B4BFD7030AD8B4D3D7C3D0000E41
:1006A800486E000EE8EC09F07F0E496E400E486E69
:1006B800FFEC06F0010E486E000EE8EC09F07E0E25
:1006C800496EDA0E486EFFEC06F0000E406E640EBE
:1006D8003F6E34EC0AF0A6D0000E486E000EE8EC2F
:1006E80009F07F0E496E620E486EFFEC06F0010EAF
:1006F800486E000EE8EC09F07E0E496EDA0E486E80
:10070800FFEC06F0000E406E640E3F6E34EC0AF00B
:1007180089D0000E486E000EE8EC09F07F0E496E95
:100728002F0E486EFFEC06F0010E486E000EE8EC46
:1007380009F07E0E496EDA0E486EFFEC06F0000EE8
:10074800406E640E3F6E34EC0AF06CD0000E486EBA
:10075800000EE8EC09F07F0E496E1E0E486EFFECA5
:1007680006F0010E486E000EE8EC09F07E0E496EA8
:10077800DA0E486EFFEC06F0000E406E640E3F6E17
:1007880034EC0AF04FD0252A265025624BD017ECBE
:1007980004F0000E256E46D0000E486E000EE8EC00
:1007A80009F07F0E496E510E486EFFEC06F0010EFF
:1007B800486E000EE8EC09F051C048F0496A020E94
:1007C8004A6E5EEC06F02ED01C50000AD8B42AD02F
:1007D800010AD8B461D6030AD8B461D6010AD8B4DC
:1007E80061D6070AD8B475D6010AD8B489D6030ADF
:1007F800D8B418D0010AD8B415D00F0AD8B412D07A
:10080800010AD8B44CD7030AD8B466D7010AD8B4B9
:1008180080D7070AD8B49AD7010AD8B4B4D7030A3C
:10082800D8B4BAD712001E50D8B408D01E50040A43
:10083800D8B404D01E50080AD8A403D0020EAFECD6
:1008480005F01E04D8B410D01E50030AD8B40CD03A
:100858001E50050AD8B408D01E50070AD8B404D0D0
:100868001E50090AD8A403D0010EAFEC05F01E50A3
:10087800020AD8B408D01E50060AD8B404D01E50B4
:100888000A0AD8A403D0000EAFEC05F0000E426EA1
:10089800010E67EC09F0000E486E1E50E8EC09F0F6
:1008A8007F0E496EE20E486EFFEC06F0000E486EB1
:1008B8001E28E8EC09F07F0E496EE50E486EFFEC45
:1008C80006F0000E486E1E50020FE8EC09F07F0E8D
:1008D800496EE80E486EFFEC06F0010E486E1E5099
:1008E800E8EC09F07F0E496EEB0E486EFFEC06F05F
:1008F800010E486E1E28E8EC09F07F0E496EEE0ED8
:10090800486EFFEC06F0010E486E1E50020FE8EC30
:1009180009F07F0E496EF10E486EFFEC06F0000EEE
:10092800486E1E50030FE8EC09F07F0E496EE20E88
:10093800486EFFEC06F0000E486E1E50040FE8ECFF
:1009480009F07F0E496EE50E486EFFEC06F0000ECA
:10095800486E1E50050FE8EC09F07F0E496EE80E50
:10096800486EFFEC06F0010E486E1E50030FE8ECCF
:1009780009F07F0E496EEB0E486EFFEC06F0010E93
:10098800486E1E50040FE8EC09F07F0E496EEE0E1B
:10099800486EFFEC06F0010E486E1E50050FE8EC9D
:1009A80009F07F0E496EF10E486EFFEC06F01E50FE
:1009B8000A0AD8B402D01E6607D02050D8A402D0A4
:1009C800010E01D0000E206E2050D8B402D01E2A8D
:1009D80001D01E061200030EAFEC05F0000E486EA3
:1009E800000EE8EC09F07F0E496EE20E486EFFEC4F
:1009F80006F0000E486E010EE8EC09F07F0E496E15
:100A0800E50E486EFFEC06F0010E486E000EE8ECAD
:100A180009F07F0E496EEE0E486EFFEC06F0010EEF
:100A2800486E020EE8EC09F07F0E496EF10E486E32
:100A3800FFEC06F0000E486E0E0EE8EC09F07F0E93
:100A4800496EE80E486EFFEC06F0000E486E0F0E79
:100A5800E8EC09F07F0E496EEB0E486EFFEC06F0ED
:100A6800010E486E0E0EE8EC09F07F0E496EF40E8A
:100A7800486EFFEC06F0010E486E0F0EE8EC09F028
:100A88007F0E496EF70E486EFFEC06F0010E486EB9
:100A98000D0EE8EC09F07F0E496EF10E486EFFEC82
:100AA80006F01EC071F0030E00017117D8B40CD007
:100AB800000E486E030EE8EC09F07F0E496E840EB6
:100AC800486EFFEC06F00BD0000E486E030EE8EC03
:100AD80009F07E0E496EE00E486EFFEC06F02050DD
:100AE800D8B413D0010E486E1E50020FE8EC09F07E
:100AF8007F0E496EFA0E486EFFEC06F0000E406E4F
:100B0800140E3F6E34EC0AF012D0010E486E1E50DF
:100B1800020FE8EC09F07F0E496EFC0E486EFFEC00
:100B280006F0000E406E140E3F6E34EC0AF01E50B4
:100B38000B0AD8B402D01E6607D02050D8A402D021
:100B4800010E01D0000E206E2050D8B402D01E2A0B
:100B580001D01E061200486E000E426E400E67EC71
:100B680009F096D0000E496E3F0E496401D0A1D01D
:100B7800010E426E4950010D8B0EF324F66E7D0E68
:100B8800F420F76E0800F55067EC09F0492A3F0E8B
:100B98004964EED78ED0000E496E3F0E496401D0ED
:100BA80088D0010E426E4950010DCB0EF324F66E2B
:100BB8007D0EF420F76E0800F55067EC09F0492A1D
:100BC8003F0E4964EED775D0000E496E3F0E49645A
:100BD80001D06FD0010E426E4950010D0B0EF32467
:100BE800F66E7E0EF420F76E0800F55067EC09F0FB
:100BF800492A3F0E4964EED75CD0000E496E3F0E7D
:100C0800496401D056D0010E426E4950010D4B0E79
:100C1800F324F66E7E0EF420F76E0800F55067ECAC
:100C280009F0492A3F0E4964EED743D0000E496EB9
:100C38003F0E496401D03DD0010E426E4950010D6E
:100C48008B0EF324F66E7E0EF420F76E0800F55036
:100C580067EC09F0492A3F0E4964EED72AD0000E06
:100C6800496E3F0E496401D024D0010E426E4950AE
:100C7800010D8B0EF324F66E7D0EF420F76E08003E
:100C8800F55067EC09F0492A3F0E4964EED711D0B8
:100C98004850000AD8B466D7010AD8B47CD7030AEA
:100CA800D8B492D7010AD8B4A8D7070AD8B4BED7FF
:100CB800D6D7120020EE11F010EE72F0050EDECF3E
:100CC800E6FFE82EFCD7000E00017A6F040E000143
:100CD800796F000E0001786F000E0001776F4950A0
:100CE800800AF36E800EF35C000ED8B4485CD8B06E
:100CF80032D0010E426E2D0E67EC09F0486C491E89
:100D0800D8B0492A28D00001720E00017925D96E81
:100D18000001000E00017A21DA6E48C03FF049C098
:100D280040F0000E426E0A0E416E64EC08F03F502F
:100D3800DF6E48C03FF049C040F0000E426E0A0E18
:100D4800416E7FEC07F03FC048F040C049F0000119
:100D58007907D8A07A0749504810D8A4D4D74A2888
:100D6800D8B404D011D00001774B782B0001720E53
:100D780000017725D96E0001000E00017821DA6E96
:100D8800DF50D8A416D0EFD74AC070F00001716BBD
:100D980070BF71070001701F711F704B712B050E1A
:100DA800000170250001776F000E0001712100011C
:100DB800786F77C079F078C07AF000017A51800AAC
:100DC800800F050ED8B4795DD8B014D0010E426EEC
:100DD8000001720E00017925D96E0001000E000194
:100DE8007A21DA6EDF50300F67EC09F00001794B99
:100DF8007A2BE3D712006BD048C0F6FF49C0F7FF43
:100E0800F86A070EF76403D00800F55005D0F6CF4E
:100E1800E9FFF7CFEAFFEF50250AD8A442D0484AA5
:100E2800492A48C0F6FF49C0F7FFF86A070EF76479
:100E380003D00800F55005D0F6CFE9FFF7CFEAFF59
:100E4800EF50D00F0001706F000170BF10D000018B
:100E58007051800A4A6E080E800A4A5CD8B007D0E2
:100E6800010E426E0001705167EC09F02ED0010EA0
:100E7800426E250E67EC09F0010E426E48C0F6FF7F
:100E880049C0F7FFF86A070EF76403D00800F55069
:100E980005D0F6CFE9FFF7CFEAFFEF5067EC09F08E
:100EA80014D0010E426E48C0F6FF49C0F7FFF86A39
:100EB800070EF76403D00800F55005D0F6CFE9FF18
:100EC800F7CFEAFFEF5067EC09F0484A492A48C0D3
:100ED800F6FF49C0F7FFF86A070EF76403D0080069
:100EE800F55005D0F6CFE9FFF7CFEAFFEF5000093C
:100EF800D8B4120081D7000E446E4250800AF36EB7
:100F0800800EF35C000ED8B4415CD8B006D0416CBA
:100F1800421ED8B0422A010E446E4050800AF36E39
:100F2800800EF35C000ED8B43F5CD8B006D03F6C9E
:100F3800401ED8B0402A010E441A000E466E000E1C
:100F4800456E42504110D8B41CD0010E436E04D0F7
:100F5800D89041364236432A42AEFAD7D890453621
:100F6800463641503F5C42504058D8A005D04150C9
:100F78003F5E4250405A4580D89042324132432E1B
:100F8800EDD74450D8B404D0456C461ED8B0462A94
:100F980045C03FF046C040F01200010E0001776FD7
:100FA800000E0001786F20EE4BF010EE71F0060E87
:100FB800DECFE6FFE82EFCD70001000E00017A6FB5
:100FC8000001710E0001796F2ED0000E426E010EE5
:100FD80067EC09F0000E486E00017851E8EC09F062
:100FE80000017AC049F0000179C048F0FFEC06F032
:100FF8000001794B7A2B79C0D9FF7AC0DAFFDF502C
:10100800D8A40BD0000E0001776F000E0001786F96
:10101800000E426E010E67EC09F0000E406E320EB3
:101028003F6E34EC0AF000017767CFD71200060054
:10103800EACF34F0E1CF35F0E2CF36F0D9CF37F050
:10104800DACF38F0F3CF39F0F4CF3AF0F6CF3BF0FF
:10105800F7CF3CF0F8CF3DF0F5CF3EF09EAA13D085
:101068002850010D090EF324D96E000EF420DA6E13
:10107800AECFDFFF282A2850080AD8A404D0000ED3
:10108800286E100E1F6E3EC0F5FF3DC0F8FF3CC035
:10109800F7FF3BC0F6FF3AC0F4FF39C0F3FF38C092
:1010A800DAFF37C0D9FF36C0E2FF35C0E1FF34C0F0
:1010B800EAFF33C0E9FF32C0FBFF31C0FAFF11007D
:1010C800000E446E4050800AF36E800EF35C000EF2
:1010D800D8B43F5CD8B006D03F6C401ED8B0402A88
:1010E800010E446E4250800AF36E800EF35C000ECF
:1010F800D8B4415CD8B004D0416C421ED8B0422A62
:1011080042504110D8B418D0010E436E04D0D89084
:1011180041364236432A42AEFAD741503F5C4250EC
:101128004058D8A004D041503F5E4250405AD89011
:1011380042324132432EF1D74450D8B404D03F6CE8
:10114800401ED8B0402A3FC03FF040C040F01200D7
:10115800486E000E426E080E67EC09F0E10E92161A
:10116800949294909492E10E801682948292829046
:1011780000D000D000D082848084040EE82EFED7F0
:101188008294040EE82EFED731EC09F0000E426E70
:10119800280E67EC09F0000E426E48500C0967EC07
:1011A80009F0000E426E400E67EC09F0000E496E21
:1011B8000FD0010E426E4950010DCB0EF324F66E8E
:1011C8007D0EF420F76E0800F55067EC09F0492A07
:1011D8003F0E4964EED71200000E186E81B002D09F
:1011E800010E01D0000E3F6E81B402D0010E01D075
:1011F800000E406ED8904034416E81B602D0010E88
:1012080001D0000E426ED8904236D890423681B254
:1012180002D0010E01D0000E436ED8904336D8900C
:101228004336D8904334422441243F24196E195040
:10123800D8B408D01A6606D01A501918D8B402D0F3
:10124800010E01D0000E186E19C01AF01850D8B44B
:1012580002D0195001D0000E1200000E416E1E0E71
:1012680092128282829000D000D000D0828400D076
:1012780000D000D0D8908030416E4138F00B416EDC
:1012880000D000D000D08294040EE82EFED78284CD
:1012980000D000D000D0D8908030406E0F0E40169D
:1012A80041504010416E4150800B3F6E00D000D03D
:1012B80000D08294040EE82EFED73F66D7D78292DC
:1012C800E10E92161200466E46380F0B446E4650D9
:1012D8000F0B456E426602D0829001D0828000D00A
:1012E80000D000D08284D8904434436E8050E10B03
:1012F8004310476E47C080FF040EE82EFED7829445
:10130800040EE82EFED78284D8904534436E805070
:10131800E10B4310476E47C080FF040EE82EFED74E
:101328008294040EE82EFED731EC09F0120000EE8C
:1013380001F0300EEE6AE806FDE1A80EF66E140E16
:10134800F76E000EF86E00EE60F010EE10F0090077
:10135800F5CFEEFFE550E150FAE1C40EF66E140E3B
:10136800F76E000EF86E00EE4BF010EE06F0090076
:10137800F5CFEEFFE550E150FAE1000EF86E0001FE
:101388000EEF00F0000E926E0F0E936E000E946E2C
:10139800C180C182C184C186000E3F6E010E406EBD
:1013A800000E1EEC0AF0000E406E0C0E3F6E000E92
:1013B800416E000E426E08EC0AF09E9A9D8AF29CDD
:1013C800040E516E809A1200496E130E496408D0BB
:1013D8001AD0498C12D0140E01D0540E49260DD0C3
:1013E8004850000AD8B409D0010AD8B4F2D7030A81
:1013F800D8B4F1D7010AD8B4F0D7498E000E426E9E
:10140800495067EC09F012003FC0AFFFAC9EAC94A6
:10141800AC9AAC9CAC98AB9EAB9CAB9641B002D05E
:10142800B89801D0B88842B002D0B89A01D0B88A2A
:10143800B8961200416ED59E41B002D0D59C01D01D
:10144800D58CD59AD59A3FB002D0D59601D0D586FD
:10145800D5504018F80B4018D56E000ED66E120005
:101468000BD09C0E416ED70EE82EFED7412EFCD72E
:1014780000F03F06D8A0400640503F10D8B41200F4
:10148800F0D70BD03FC0D9FF40C0DAFFDF50AD6EB8
:10149800ACA2FED741063F4A402A4166F3D7120064
:1014A8003031323334353637383941424344454692
:1014B800948E949CAC8AAB88AB8E120057616C6496
:0214C8006F00B3
:107D8A0000000204040408080800000000000000C3
:107D9A0000000804040002020208080804040201A0
:107DAA00000E0A0E000000001F020204040408105C
:107DBA0000000000000000000000000000000000B9
:107DCA000000020408081010100000000000000063
:107DDA000E00080402020101011008080402010051
:107DEA00000A0E000000001F000102020408100031
:107DFA000000000000000000000000000000000079
:107E0A000000020404081010100000000000000E18
:107E1A000A00080404020101010808040201000022
:107E2A00000E000000001F000002020408100000FB
:107E3A000000000000000000000000000000000038
:107E4A000000070F0C0C0C0F0F0010180808081878
:107E5A00100003070E0C0C0C0F0010181C0C0C1C45
:107E6A000C0C0C0C0C0C0C1E000A04040E0E0E0E4C
:107E7A00000C0C0C0C0C0C1E000C0C0C0C0C0C1E2C
:107E8A0000000A040407010101000000001E1E1E72
:107E9A001E0003070E0C0C0C0F0010181C0C0C1CF7
:107EAA000C01010101000000001E1E1E1E00000040
:107EBA00000C0C0C0C0C0C1E000C0C0C0C0C0C1EEC
:107ECA00000102040305060807090A0C0B0D0E0F30
:107EDA002020202020202020202020202020202098
:107EEA00004D656E753A20203E202020202020205B
:107EFA002000626567696E6E656E20202020202052
:107F0A002020005472616E736D6974202020202035
:107F1A00202020004D204F2050204B20452020209B
:107F2A00202020200043204C20492043204B2020A1
:107F3A002020202020005220452053204520542074
:107F4A00202020202020004252494748544E4553C1
:107F5A0053202020202020005320542045204D204B
:107F6A004D2045204E202020004472756B20274F5B
:107F7A004B27206F6D2074652000436F6E6E65631A
:107F8A0074696E67007374656C6C696E6720004C67
:107F9A00434420696E732E2E004D6F706A6520204F
:107FAA002000436C69636B2020200052657365745E
:107FBA002020200054657474656E2020002D6B69A2
:107FCA0065732D3C20005374656D6D656E2000420B
:107FDA0072696768742E2E0025300025310025321B
:107FEA0000253300253400253500253600253700C5
:067FFA007E007F00000084
:020000040020DA
:08000000FFFFFFFFFFFFFFFF00
:020000040030CA
:0E000000240E191EFF8085FF0FC00FE00F4079
:00000001FF
