:020000040000fa
:080000000002040000000000f2
:020000040000fa
:10000800d2020000d8020000f4020000de02000064
:10001800e4020000ea020000f8020000f00200001a
:10002800f0020000f0020000f0020000f002000000
:10003800a0030000f0020000f0020000f00200003f
:1000480072030000f0020000f0020000f00200005d
:10005800f0020000f0020000f0020000f0020000d0
:10006800f0020000f0020000f0020000f0020000c0
:100078002c070000f0020000f0020000f00200006f
:10008800f0020000f0020000f0020000f0020000a0
:10009800f0020000f0020000f0020000f002000090
:1000a800f0020000f0020000f0020000f002000080
:1000b800f0020000f0020000f0020000f002000070
:1000c800f0020000f0020000f0020000f002000060
:1000d800f0020000f0020000f0020000f002000050
:1000e800f0020000f0020000f0020000f002000040
:1000f800f0020000f0020000f0020000f002000030
:10010800f0020000f0020000f0020000f00200001f
:10011800f0020000f0020000f0020000f00200000f
:10012800f0020000f0020000f0020000f0020000ff
:10013800f0020000f0020000f0020000f0020000ef
:10014800f0020000f0020000f0020000f0020000df
:10015800f0020000f0020000f0020000f0020000cf
:10016800f0020000f0020000f0020000f0020000bf
:10017800f0020000f0020000f0020000f0020000af
:10018800f0020000f0020000f0020000f00200009f
:10019800f0020000f0020000f0020000f00200008f
:1001a800f0020000f0020000f0020000f00200007f
:1001b800f0020000f0020000f0020000f00200006f
:1001c800f0020000f0020000f0020000f00200005f
:1001d800f0020000f0020000f0020000f00200004f
:1001e800f0020000f0020000f0020000f00200003f
:1001f800f0020000f0020000f0020000f00200002f
:10020800f0020000f0020000f0020000f00200001e
:10021800f0020000f0020000f0020000f00200000e
:10022800f0020000f0020000f0020000f0020000fe
:10023800f0020000f0020000f0020000f0020000ee
:10024800f0020000f0020000f0020000f0020000de
:10025800f0020000f0020000f0020000f0020000ce
:10026800f0020000f0020000f0020000f0020000be
:0c027800f0020000f0020000f0020000a4
:020000040000fa
:100400000f0f21000eff21000e01880000000000e8
:10041000000020000000e000020032000001200087
:10042000200288000c00070080db20000100200073
:100430000f000700000020000000e0000200320072
:100440000000020000000000e60c020000000000b6
:100450000040da000000fe00200020000000e00064
:100460000200320010002000900188000000060009
:10047000a1028800800078000000eb001a0037001d
:10048000e280400054a0b4009101ba00e280400034
:1004900054a0b4009102ba00e280400054a0b4001d
:1004a0000002eb00472bde00f507b200a601880032
:1004b000602ce10008003a000049eb000201e8006e
:1004c000020039003420ec0002f0a0008301e900b2
:1004d000f9ff3e00040037006128e100010032000e
:1004e0000082eb00040007001101ba000200e000e6
:1004f000e3ff3a000000060004d0a300e20f490029
:100500001c003900810278003549ba000201e80078
:10051000020039003420ec0002f0a0008301e90061
:100520000f0032002549ba000201e800020039003c
:100530003420ec0002f0a0008301e9000800320042
:100540000400e0000600320015c9ba000201e8000c
:10055000020039003420ec0002f0a0008301e90021
:100560008180e80054a0b4000300e000e2ff3a00fc
:10057000000006009102ba00055978008301e900e5
:10058000f7ff3200c82ade00055978008301e90030
:10059000f3ff32000400e000f1ff320011d9ba008d
:1005a000eeff37000000fa00c028a900ffff370067
:1005b0000000fa00c068a900ffff37000000fa0041
:1005c000c048a900ffff37000000fa00c088a9005a
:1005d000ffff37000000fa00c0a8a900ffff3700a6
:1005e0000000fa00ffff37000000fa00ffff3700ad
:0805f0000000fa00ffff3700d4
:020000040000fa
:1005f8000000fa000002eb00044688000002eb004d
:10060800244688000002eb0034468800c1e8a900af
:1006180005358000f40f28008482620004a02200bf
:100628000502720004358800c228a8000288a900c3
:10063800544280000400a0000410a1000420a0007f
:10064800544288002288a800244280000400a000a8
:100658000410a0000420a000244288000108a9007a
:100668002108a80001a8a90021a8a9000088a900bc
:10067800144280000400a1000410a0000420a0007f
:10068800144288002088a8000080fa0000000600b4
:100698000000fa00140280000450a0000460a000ca
:1006a8000470a00014028800c3e8a9000080fa00c2
:1006b800000006000000fa00140280000450a100a7
:1006c8000460a1000470a100140288004460a9001d
:1006d800c3e8a8000080fa0000000600849fbe005e
:1006e800861f78000000fa0024708000640262000f
:1006f80004f0a7000402ea000402e9004f22de0029
:10070800044278000482fb00610262004222dd009c
:1007180026708000b5ff2f00850263000502720075
:10072800247088000108a9000080fa004f037800af
:100738004f02be00004006003600f800809fbe0051
:10074800829fbe00849fbe00869fbe000000fa0004
:1007580074878000e00f5200c5003a000042eb00a9
:1007680004437800750e2100864a7800bb003700e4
:10077800740e2100144278000482fb00e522b900bf
:100788000403e800740e2100144278000482fb0080
:100798004222dd008402420004002100048242005b
:1007a8009402780004302000048262004222de00b5
:1007b80084427800240c210004024300054a780092
:1007c800740e2100144278000482fb00e522b9006f
:1007d8000403e800740e2100144278000482fb0030
:1007e800e522b9008402e800240c210004824200ba
:1007f80094427800740e2100144278000482fb00b1
:100808004222dd000402e8008403420004002100c3
:1008180004824300940378000430200004826300bb
:100828004422de000442780084c24200240c2100e5
:1008380004024300054a7800740e2100144278002f
:100848000482fb00e522b9000403e800740e2100cd
:10085800144278000482fb00e522b9008402e80013
:10086800240c21000482420094427800740e210076
:10087800144278000482fb004222dd000482e80072
:10088800840342000400210004824300940378009a
:1008980004302000048263004622de00044278000f
:1008a80084c24200240c210004024300054a780057
:1008b800740e2100144278000482fb00e522b9007e
:1008c8000403e800740e2100144278000482fb003f
:1008d800e522b9008402e800240c210004824200c9
:1008e80094427800740e2100144278000482fb00c0
:1008f8004222dd006302420084034200040021001a
:1009080004824300940378000430200004826300ca
:100918004822de000442780084c24200240c2100f0
:1009280004024300054a7800740e2100144278003e
:100938000482fb00e522b9000483e800740e21005c
:10094800144278000482fb004222dd008402420047
:1009580004002100048242001402780084427800d6
:10096800240c210004024300054a7800740e21007b
:10097800144278000482fb00e522b90063034200b8
:10098800740e2100144278000482fb004222dd002c
:100998000402e800840242000400210004824200ac
:1009a8001402780084427800240c210004024300d9
:1009b800054a7800740e2100144278000482fb0076
:1009c800e522b90064034200740e21001442780045
:1009d8000482fb004222dd000482e8008402420017
:1009e8000400210004824200140278008442780046
:1009f800240c210004024300054a7800740e2100eb
:100a0800144278000482fb000402e800e523b900e0
:100a1800740e2100144278000482fb004222dd009b
:100a28006302420084024200040021000482420062
:100a38001402780084427800240c21000402430048
:100a4800054a7800740e2100144278000442e80038
:100a580004437800750e2100864a7800740e210040
:100a680014427800e54f520041ff3600c4003700b9
:100a78000042eb0004437800750e2100864a780096
:100a8800bb003700740e2100144278000482fb007a
:100a9800e522b9000403e800740e2100144278002e
:100aa8000482fb004222dd0084024200040321008c
:100ab800048242009402780004302000048262001c
:100ac8004222de0084427800240c21000402430004
:100ad800054a7800740e2100144278000482fb0055
:100ae800e522b9000403e800740e210014427800de
:100af8000482fb00e522b9008402e800240c2100ee
:100b08000482420094427800740e21001442780056
:100b18000482fb004222dd000402e8008403420054
:100b28000403210004824300940378000430200069
:100b3800048263004422de000442780084c242003a
:100b4800240c210004024300054a7800740e210099
:100b5800144278000482fb00e522b9000403e8008f
:100b6800740e2100144278000482fb00e522b900cb
:100b78008402e800240c2100048242009442780098
:100b8800740e2100144278000482fb004222dd002a
:100b98000482e80084034200040321000482430025
:100ba8009403780004302000048263004622de00ab
:100bb8000442780084c24200240c2100040243004d
:100bc800054a7800740e2100144278000482fb0064
:100bd800e522b9000403e800740e210014427800ed
:100be8000482fb00e522b9008402e800240c2100fd
:100bf8000482420094427800740e21001442780066
:100c08000482fb004222dd006302420084034200aa
:100c18000403210004824300940378000430200078
:100c2800048263004822de000442780084c2420045
:100c3800240c210004024300054a7800740e2100a8
:100c4800144278000482fb00e522b9000483e8001e
:100c5800740e2100144278000482fb004222dd0059
:100c68008402420004032100048242001402780036
:100c780084427800240c210004024300054a7800cd
:100c8800740e2100144278000482fb00e522b900aa
:100c980063034200740e2100144278000482fb00b2
:100ca8004222dd000402e80084024200040321001d
:100cb800048242001402780084427800240c210047
:100cc80004024300054a7800740e2100144278009b
:100cd8000482fb00e522b90064034200740e21007f
:100ce800144278000482fb004222dd000482e800fe
:100cf80084024200040321000482420014027800a6
:100d080084427800240c210004024300054a78003c
:100d1800740e2100144278000482fb000402e800eb
:100d2800e523b900740e2100144278000482fb0008
:100d38004222dd00630242008402420004032100d3
:100d4800048242001402780084427800240c2100b6
:100d580004024300054a7800740e2100144278000a
:100d68000442e80004437800750e2100864a7800a2
:100d7800740e210014427800e54f520041ff3600fe
:100d880001c2b300200c2100a0010700140c2100af
:100d980014427800e04f5200080032000002eb00d5
:100da800448788000042eb0004437800150c2100ba
:100db800864a780015cea9001a00370015cea8007b
:100dc800a5708000040022000482620004f0a700dd
:100dd8000402ea000402e9004f22de00044278001f
:100de8000482fb00610262004d22dd00a6708000d3
:100df800f5ff2d008502630005027200a4708800cb
:100e0800448780000402e800448788004487800003
:100e1800ea0f5200030036001400200054878800af
:100e280013e1a900748780000400a2007487880079
:100e38000088a9000080fa004f03be004f02be00e0
:100e48004f01be004f00be003600f900004006000a
:100e58003600f800809fbe00829fbe00849fbe00bf
:100e6800869fbe000000fa00156ea90000c0eb00c6
:100e7800210207000042780005c8b300054272004d
:100e880004437800650e2100864a7800156ea80094
:100e9800640e2100144278008482fb0004022000c2
:100ea80004826200e00f52001300320001c2b30056
:100eb80070c0b3000e01070014c0b30004437800eb
:100ec800150c2100864a7800a47080000482ea008c
:100ed8004f22de00044278000482fb004f22dd002e
:100ee800a6708000f5ff27008502630005027200e6
:100ef800a47088000100370015eea900640e2100d7
:100f0800144278008482fb000404200004826200fa
:100f1800e00f520002003200200c21006801070097
:100f2800640e2100144278000482fb007002620003
:100f3800e00f52000300320001c1b30070c0b300db
:100f4800eb000700640e2100144278000482fb00c5
:100f58006102620004427800e04f5200040032004f
:100f6800156ea90010ceb300e3010700156ea800a6
:100f78000288a9000080fa004f03be004f02be009d
:100f88004f01be004f00be003600f90000400600c9
:100f98000000fa00b5010700118ea900116ea90022
:100fa800114ea8000042eb0004437800650e2100b2
:100fb800864a7800158ea900156ea8000080fa00f0
:100fc800000006000800fa00604798007147980082
:100fd800c1c4b3000040eb00c5000700158ea9008e
:100fe800156ea80031c0b30050c0b300c0000700a0
:100ff80061c0b30060c0b300bd000700c1c4b30046
:101008000040eb00ba000700fe40900010c0b3009b
:10101800b700070011c1b30040c0b300b400070017
:1010280001c7b30070c0b300b10007006e42900062
:101038000482fb00cfa2de0056002000070020003b
:10104800860f5200878f5a0061003e000406010097
:101058000500370013003700210037002f00370044
:101068003d0037004b00370074ceb300444798006a
:101078004e429000344798003e4290002447980022
:101088002e429000144798001e429000044f7800aa
:101098000e007800250107000e0078001b010700ec
:1010a8004b00370024ccb300444798004e429000d0
:1010b800344798003e429000244798002e42900002
:1010c800144798001e429000044f78000e007800e4
:1010d800160107000e0078000c0107003c003700dd
:1010e80024ccb300444798004e42900034479800ff
:1010f8003e429000244798002e42900014479800e2
:1011080034ccb300044f78000e00780007010700c4
:101118000e007800fd0007002d00370024ccb30036
:10112800444798004e429000344798003e42900051
:10113800244798002e4290001447980044ccb300ee
:10114800044f78000e007800f80007000e007800c1
:10115800ee0007001e00370024ccb3004447980077
:101168004e429000344798003e4290002447980031
:101178002e4290001447980054ccb300044f7800d6
:101188000e007800e90007000e007800df00070075
:101198000f00370024ccb300444798004e4290001b
:1011a800344798003e429000244798002e42900011
:1011b8001447980064ccb300044f78000e00780000
:1011c800da0007000e007800d000070000000000d9
:1011d800e1c4b3000040eb00450007000080fa00be
:1011e800000006000200fa00004f7800114798003e
:1011f800d1c2b3000040eb003d000700158ea900e6
:10120800156ea80031c0b30050c0b3003800070005
:1012180061c0b30060c0b3003500070001c2b3006d
:101228001e407800320007009e40900010c0b300b6
:101238002f000700c1c2b3000040eb002c000700dc
:1012480051c2b30040c0b3002900070001c7b30072
:1012580070c0b3002600070020ceb30026010700a7
:1012680010ceb30024010700f1c2b3000040eb0028
:101278001f0007000080fa00000006000200fa00c4
:10128800004f780001c2b300200c21005f00070066
:1012980000000000640e210014427800e04f520064
:1012a800fcff3d00640e2100144278000474a10084
:1012b80004437800650e2100864a7800640e2100f8
:1012c800144278008482fb00040220000482620039
:1012d800e00f52000200320014c0b30001003700d2
:1012e8000042eb00044078000080fa00000006008d
:1012f8000200fa00004f780011479800156ea90007
:101308001e427800ff42620004c2b30004c27200a9
:1013180004407800f80007001e409000f60007001f
:10132800156ea8000080fa00000006000400fa000c
:1013380020479800156ea9002e4290007f42620057
:1013480004407800ec00070000c0eb00ea0007004a
:1013580000427800044f7800156ea8001e427800fd
:10136800044078000080fa00000006000600fa0039
:10137800004f78001107980042479800156ea900a1
:101388001e427800ff42620004c2b30004c2720029
:1013980004407800d8000700ce4090001e0090005e
:1013a800f3000700156ea8000080fa000000060090
:1013b8000200fa00004f7800158ea900e1c4b300be
:1013c8000040eb00caff0700156ea90010ceb3005d
:1013d800c9000700156ea800156ea90000cab30061
:1013e800c50007001e407800c3000700156ea8005e
:1013f800158ea800c02b200001002000f301070073
:10140800158ea9000080fa00000006000400fa000a
:10141800000f780021479800158ea900e1c4b30099
:101428000040eb00b2ff0700156ea90010ceb30014
:10143800b1000700156ea800156ea90000cab30018
:10144800ad000700ae4090001e007800c8000700fd
:10145800156ea800158ea800c02b200001002000e2
:10146800da010700158ea9000080fa0000000600c6
:101478000200fa00158ea900156ea90010c6b30067
:101488009d00070000427800044f780000c0eb0080
:10149800990007000042780014479800156ea800cc
:1014a80001c4b30070c0b30091ff0700158ea800f7
:1014b8001e429000044078000080fa0000000600f8
:1014c8000400fa0010079800156ea90010c6b300b2
:1014d8008900070000427800044f780002c2b30078
:1014e8009e0090001e009000b4000700156ea80032
:1014f80001c4b30070c0b3007dff07001e4278002e
:10150800044078000080fa00000006000200fa009b
:10151800000f780052c0b3009e007800a0c0b3004e
:1015280092ff07000080fa00000006000200fa009f
:10153800000f780052c0b3009e00780000c1b300cd
:101548008aff07000080fa00000006000000fa0089
:101558000002eb00047088000002eb007470880041
:101568000002eb00147088000002eb008470880011
:101578000002eb00f47088000002eb009470880011
:101588000080fa00000006000000fa0010aea80073
:1015980010cea90012cea8002536800004f82f002e
:1015a80084826200540220000502720024368800fa
:1015b8002534800004fc2f00048262000400a0008f
:1015c8002434880021e2a90021a2a9002182a900cf
:1015d800041180000480a1000490a1000411880077
:1015e80020c2a90020a2a9002082a8002062a90088
:1015f800041180000410a1000420a1000411880037
:101608002002a90023a2a90022e2a90023c2a8005f
:101618002342a900141180000460a1000470a100f5
:101628001411880022a2a900741c2000441188000b
:101638000080fa00000006000200fa00004f78005f
:101648009e4278000582fb002411880000000000fb
:10165800151180000410200004826200e00f52007f
:10166800fbff32000080fa00000006000000fa00cc
:1016780010eea900110ea900112ea8000002eb001f
:101688004412880041e2a90041a2a9000412800086
:101698000480a1000490a10004a0a1000412880005
:1016a80040c2a9004382a9004362a9004342a9009d
:1016b8004322a8004302a80042c2a90042a2a800ef
:1016c800141280000420a0000430a0000440a000f0
:1016d80014128800141280000400a1000410a10054
:1016e8001412880045e2a9004402a90041e2a800ba
:1016f8000080fa00000006000200fa00004f78009f
:101708009e4278000582fb00441288000000000019
:101718000412800061026200e00f5200fcff3200f8
:101728004412800004427800044078000080fa00e7
:10173800000006000200fa00000f78004342a800eb
:101748001e02780044128800000000000412800085
:1017580061026200e00f5200fcff32004412800078
:1017680004427800044078000080fa000000060077
:101778000400fa00000f780021479800080037009d
:101788001e0278001442780004407800daff07004f
:101798002e4290000442e900244798001e0fe800fa
:1017a8002e429000e04f5200f5ff3a0014c0b300fb
:1017b800044078000080fa00000006000600fa00e5
:1017c800000f78001107980042479800140037006e
:1017d8001e027800144278000482fb00441288003c
:1017e800000000000412800061026200e00f520055
:1017f800fcff320044128000844278001e029000f0
:10180800054a78004e4290000442e9004447980097
:101818001e0fe8001e0290000402e800140798005a
:101828004e429000e04f5200e9ff3a000080fa0073
:10183800000006000000fa00000ea80014002000b6
:101848007470880021e3a90021a3a9002183a800be
:101858002143a900041980000480a1000490a1007c
:1018680004198800041980000450a1000460a00035
:101878000470a100041988002083a9002043a8004f
:101888002023a9001419800004d0a10004e0a100bd
:1018980004f0a100141988002343a900141980003a
:1018a8000480a1000490a100141988001519800073
:1018b80034f82f0004826200141988002223a9003a
:1018c8002203a90025e3a80000c2eb000443780026
:1018d80045322000864a78003303a8009419800016
:1018e8000400a1000410a1000420a100941988009c
:1018f80028e3a9004519800004fe2f000482620035
:101908004419880021e3a8000080fa0000000600be
:101918000000fa0001eba90001cba90001aba90066
:10192800018ba900016ba900045880000440a100a4
:101938000450a10004588800045880000400a10045
:101948000410a0000458880003eba900d4c0b30019
:101958000443780025b02000864a7800040021005e
:10196800245888000400210034588800040321000a
:10197800445888000403210054588800043020008b
:1019880064588800740120007458880001eba8008e
:101998000080fa00000006000000fa000002eb00d8
:1019a8005408880074b521007408880094088000e1
:1019b8000440a1000450a100940888000080fa00a7
:1019c800000006000000fa0031fb07004e00070087
:1019d8003200070000172100110020007b000700db
:1019e800dafe0700caff070092ff0700eaff0700b8
:1019f80067fd070011c0b30010c1b300f9fd07006f
:101a0800007325005100200070000700f8fa070055
:101a180028fb0700158ea800010037000000000011
:101a2800640e210014427800e04f52000c003d0083
:101a3800250c21009542780034cab30084cf5200a7
:101a480007003a0011c0b3000040eb005dfd07003d
:101a5800007e2600510320005c00070013e1a80067
:101a680054878000e00f5200ecff32000002eb00c8
:101a78005487880006fb070011c0b30010c1b300eb
:101a8800d8fd070000732500510020004f00070013
:101a980008fb0700158ea800e1ff37000000fa00d8
:101aa80040a7a900143a80000480a0000490a10077
:101ab80004a0a100143a880042e7a90042c7a9007f
:101ac8004207a80000000000153a80000400270023
:101ad8008482620004002100848f5200faff3a00d9
:101ae8004fe7a8004f87a900743a80000480a1003e
:101af8000490a10004a0a10004b0a100743a8800d9
:101b08000080fa00000006000000fa0045e7a9007e
:101b18004587a90045a7a90045c7a9004567a900a9
:101b28004507a9004527a9004547a90044c7a900ba
:101b380044e7a9004407a9004427a9004447a9008d
:101b48004467a9004487a900353a800004e02f00c3
:101b580084826200a404200005027200343a8800de
:081b68000080fa0000000600f5
:020000040000fa
:101b7000e21000000a00000080000000ec100000ed
:101b80000200000080000000ee10000002000000d3
:101b90008000000000100000300000008000000005
:101ba00030100000300000008000000060100000d5
:101bb00030000000800000009010000030000000a5
:101bc00080000000c0100000220000008000000023
:041bd0000000000011
:020000040000fa
:101bd400f03fb1000180b10006003500ee030900ba
:101be40000000000403fb1000180b100fbff3d0058
:101bf4001000b000203fb000020035000080090052
:081c04000000000000000600d2
:020000040000fa
:04afe000cfff00009f
:020000040000fa
:04afe400ffff00006b
:020000040000fa
:04afe8007fff0000e7
:020000040000fa
:04afec007fff0000e3
:020000040000fa
:04aff000f9ff000065
:020000040000fa
:04aff400cfff00008b
:00000001FF
