:020000040000fa
:080000000002040000000000f2
:020000040000fa
:10000800d2020000d8020000f4020000de02000064
:10001800e4020000ea020000f8020000f00200001a
:10002800f0020000f0020000f0020000f002000000
:10003800ca030000f0020000f0020000f002000015
:1000480060030000f0020000f0020000f00200006f
:10005800f0020000f0020000f0020000f0020000d0
:10006800f0020000f0020000f0020000f0020000c0
:10007800f0020000f0020000f0020000f0020000b0
:10008800f0020000f0020000f0020000f0020000a0
:020000040000fa
:10040000ef1b21000eff21000e01880000000000fc
:10041000000020000000e000020032000001200087
:10042000200288000c00070020bb200001002000f3
:100430000f000700000020000000e0000200320072
:100440000000020000000000880b02000000000015
:100450000040da000000fe00200020000000e00064
:100460000200320010002000900188000000060009
:10047000a1028800800078000000eb001a0037001d
:10048000e280400054a0b4009101ba00e280400034
:1004900054a0b4009102ba00e280400054a0b4001d
:1004a0000002eb00472bde00f507b200a601880032
:1004b000602ce10008003a000049eb000201e8006e
:1004c000020039003420ec0002f0a0008301e900b2
:1004d000f9ff3e00040037006128e100010032000e
:1004e0000082eb00040007001101ba000200e000e6
:1004f000e3ff3a000000060004d0a300e20f490029
:100500001c003900810278003549ba000201e80078
:10051000020039003420ec0002f0a0008301e90061
:100520000f0032002549ba000201e800020039003c
:100530003420ec0002f0a0008301e9000800320042
:100540000400e0000600320015c9ba000201e8000c
:10055000020039003420ec0002f0a0008301e90021
:100560008180e80054a0b4000300e000e2ff3a00fc
:10057000000006009102ba00055978008301e900e5
:10058000f7ff3200c82ade00055978008301e90030
:10059000f3ff32000400e000f1ff320011d9ba008d
:1005a000eeff37000000fa00c028a900ffff370067
:1005b0000000fa00c068a900ffff37000000fa0041
:1005c000c048a900ffff37000000fa00c088a9005a
:1005d000ffff37000000fa00c0a8a900ffff3700a6
:1005e0000000fa00ffff37000000fa00ffff3700ad
:0805f0000000fa00ffff3700d4
:020000040000fa
:1005f8000000fa000002eb00044688000002eb004d
:10060800244688000002eb0034468800c1e8a900af
:10061800244280000400a0000410a0000420a000d0
:10062800244288000108a9002108a80001a8a900ff
:10063800344280000440a1000450a0000460a000df
:100648003442880021a8a9000088a900144280002b
:100658000400a1000410a0000420a0001442880097
:100668002088a8000080fa00000006000000fa00b8
:10067800140280000450a0000460a0000470a000d0
:1006880014028800c3e8a9000080fa0000000600f0
:100698000000fa00140280000450a1000460a100c8
:1006a8000470a100140288004460a900c3e8a800ef
:1006b8000080fa0000000600849fbe000000fa00d7
:1006c800044ea8000560800004002800048262002f
:1006d800e00f520028003200d48d8000e10f520054
:1006e80013003a00b48d8000840242006415210092
:1006f8000482420014027800040242005460880018
:10070800b48d80000402e800b48d8800b48d8000a8
:10071800f80f520018003a000002eb00c48d880060
:10072800d48d80000400a200d48d88001200370008
:10073800c48d8000840242006418210004824200b3
:10074800140278000402420054608800c48d8000be
:100758000402e800c48d8800c48d8000f80f5200a0
:1007680005003a000002eb00b48d8800d48d8000ab
:100778000400a200d48d8800044ea9000108a90035
:100788000080fa004f02be0000400600821f780079
:10079800849fbe00869fbe000400fa00247080007b
:1007a8006202620004f0a7000402ea000402e90001
:1007b8004f22de00044278000482fb0061026200de
:1007c8000402420026708000d5ff2f0085026300d6
:1007d8000502720024708800e48d8000e00f52004a
:1007e80052013a000042eb00044f7800a3003700a2
:1007f8001e4178000282fb00e522b9000403e800ec
:100808009e4278000582fb004222dd0084024200fd
:100818000400210004824200940278000430200081
:10082800048262004222de0084427800540e2100d5
:1008380004024300054a78001e4378000682fb0044
:10084800e522b9000403e8009e4378000782fb0014
:10085800e522b9008402e800540e21000482420017
:10086800944278001e4178000282fb004222dd009b
:100878000402e800840342000400210004824300cb
:100888009403780004302000048263004422de00d0
:100898000442780084c24200540e2100040243003e
:1008a800054a78009e4278000582fb00e522b900df
:1008b8000403e8009e4378000782fb00e522b900a4
:1008c8008402e800540e2100048242009442780019
:1008d8001e4178000282fb004222dd000482e8000b
:1008e800840342000400210004824300940378003a
:1008f80004302000048263004622de0004427800af
:1009080084c24200540e210004024300054a7800c4
:100918009e4278000582fb00e522b9000403e80046
:100928009e4378000782fb00e522b9008402e800b4
:10093800540e210004824200944278001e4178003f
:100948000282fb004222dd0063024200840342006f
:10095800040021000482430094037800043020003e
:10096800048263004822de000442780084c2420008
:10097800540e210004024300054a78009e42780084
:100988000582fb00e522b9000483e8009e43780055
:100998000782fb004222dd0084024200040021009d
:1009a800048242001402780084427800540e210028
:1009b80004024300054a78001e4178000282fb00c9
:1009c800e522b900630342009e4278000582fb00dd
:1009d8004222dd000402e8008402420004002100f3
:1009e800048242001402780084427800540e2100e8
:1009f80004024300054a78001e4378000682fb0083
:100a0800e522b900640342009e4378000782fb0098
:100a18004222dd000482e800840242000400210032
:100a2800048242001402780084427800540e2100a7
:100a380004024300054a78001e4178000282fb0048
:100a48000402e800e523b9009e4278000582fb0015
:100a58004222dd00630242008402420004002100b9
:100a6800048242001402780084427800540e210067
:100a780004024300054a78001e4fe8001e42780031
:100a8800e54f52005aff36000002eb0014079800a9
:100a9800a20037001e0290004222dd009e02900054
:100aa800e52bb900860278000503e800550e210001
:100ab80085024300954278000583fb00050c200061
:100ac80085026300c22add00040342006415210088
:100ad80004024300050a78001e0290004222dd004d
:100ae8000402e8009e029000e529b900820278001d
:100af8000503e800550e2100850243009542780061
:100b08000583fb000503200085026300c42add007d
:100b1800040342006415210004024300050a78001a
:100b28001e0290004222dd000482e8009e0290002e
:100b3800e52bb900860278000503e800550e210070
:100b480085024300954278008582fb00ec826200b2
:100b5800c62add0004034200641521000402430094
:100b6800050a78001e0290004222dd00630242005e
:100b78009e029000e529b900820278000503e8008a
:100b8800550e210085024300954278008582fb00be
:100b9800e3826200c82add000403420064152100d4
:100ba80004024300050a78001e0290004222dd007c
:100bb8009e029000c22add000583420065152100cf
:100bc80085024300150378009e029000e529b900cc
:100bd800820278008583e800550e21008582430053
:100be800954278008582fb00850243000403420099
:100bf8006415210004024300050a78001e029000d3
:100c08004222dd000402e8009e029000c22add00b4
:100c18008502e8000583420065152100850243002e
:100c2800150378009e029000e529b9008202780039
:100c3800e3834200550e21008582430095427800e7
:100c48008582fb00850243000403420064152100ed
:100c580004024300050a78001e0290004222dd00cb
:100c68000482e8009e029000c22add008582e80026
:100c780005834200651521008502430015037800ad
:100c88009e029000e529b90082027800e4834200c0
:100c9800550e210085824300954278008582fb002d
:100ca8008502430004034200641521000402430046
:100cb800050a78001e0290004222dd00630242000d
:100cc8009e029000c22add00e382420005834200b2
:100cd8006515210085024300150378009e029000e7
:100ce8008502e800e529b90082037800550e210045
:100cf80085824300954278008582fb008502430087
:100d0800040342006415210004024300050a780028
:100d18001e0290000402e800140798001e029000ca
:100d2800e50f52005bff3600630137000042eb001d
:100d3800044f7800a30037009e4278000582fb002c
:100d4800e522b9000403e8009e4378000782fb000f
:100d58004222dd0084024200040321000482420092
:100d68009402780004302000048262004222de00ef
:100d7800844278005410210004024300054a780098
:100d88001e4178000282fb00e522b9000403e80056
:100d98009e4278000582fb00e522b9008402e80043
:100da8005410210004824200944278009e43780047
:100db8000782fb004222dd000402e80084034200af
:100dc80004032100048243009403780004302000c7
:100dd800048263004422de000442780084c2420098
:100de8005410210004024300054a78001e4178008f
:100df8000282fb00e522b9000403e8009e42780065
:100e08000582fb00e522b9008402e80054102100a5
:100e180004824200944278009e4378000782fb00d7
:100e28004222dd000482e80084034200040321001a
:100e38000482430094037800043020000482630095
:100e48004622de000442780084c242005410210089
:100e580004024300054a78001e4178000282fb0024
:100e6800e522b9000403e8009e4278000582fb00f1
:100e7800e522b9008402e8005410210004824200ef
:100e8800944278009e4378000782fb004222dd00ee
:100e980063024200840342000403210004824300e9
:100ea8009403780004302000048263004822de00a6
:100eb8000442780084c24200541021000402430016
:100ec800054a78001e4178000282fb00e522b9003d
:100ed8000483e8009e4278000582fb004222dd0080
:100ee80084024200040321000482420014027800b4
:100ef800844278005410210004024300054a780017
:100f08001e4378000682fb00e522b9006303420015
:100f18009e4378000782fb004222dd000402e800bd
:100f28008402420004032100048242001402780073
:100f3800844278005410210004024300054a7800d6
:100f48001e4178000282fb00e522b90064034200da
:100f58009e4278000582fb004222dd000482e80000
:100f68008402420004032100048242001402780033
:100f7800844278005410210004024300054a780096
:100f88001e4378000682fb000402e800e523b9004e
:100f98009e4378000782fb004222dd006302420084
:100fa80084024200040321000482420014027800f3
:100fb800844278005410210004024300054a780056
:100fc8001e4fe8001e427800e54f52005aff3600d7
:100fd8000042eb00044f7800b40037001e4178004f
:100fe8000282fb004222dd001e4378008682fb005d
:100ff800e529b900820278000503e80055102100b0
:1010080085024300954278000583fb00050c20000b
:1010180085026300c22add0004034200641821002f
:1010280004024300050a78009e4278000582fb000e
:101038004222dd000402e8001e4378008682fb009d
:10104800e529b900820278000503e800551021005f
:1010580085024300954278000583fb0005032000c4
:1010680085026300c42add000403420064182100dd
:1010780004024300050a78009e4278000582fb00be
:101088004222dd000482e8001e4378008682fb00cd
:10109800e529b900820278000503e800551021000f
:1010a80085024300954278008582fb00ec8262004d
:1010b800c62add000403420064182100040243002c
:1010c800050a78009e4278000582fb004222dd0076
:1010d800630242001e4378008682fb00e529b900be
:1010e800820278000503e8005510210085024300bc
:1010f800954278008582fb00e3826200c82add0001
:10110800040342006418210004024300050a780021
:101118009e4278000582fb004222dd001e437800d3
:101128008682fb00c22add00058342006518210083
:1011380085024300150378009e4378008782fb00f0
:10114800e529b900820278008583e800551021005e
:1011580085824300954278008582fb008502430022
:10116800040342006418210004024300050a7800c1
:101178009e4278000582fb004222dd000402e8005e
:101188001e4378008682fb00c22add008502e80043
:101198000583420065182100850243001503780085
:1011a8009e4378008782fb00e529b9008202780017
:1011b800e383420055102100858243009542780060
:1011c8008582fb0085024300040342006418210065
:1011d80004024300050a78009e4278000582fb005d
:1011e8004222dd000482e8001e4378008682fb006c
:1011f800c22add008582e8000583420065182100c7
:1012080085024300150378009e4378008782fb001f
:10121800e529b90082027800e483420055102100d4
:1012280085824300954278008582fb008502430051
:10123800040342006418210004024300050a7800f0
:101248009e4278000582fb004222dd0063024200d4
:101258001e4378008682fb00c22add00e38242003a
:1012680005834200651821008502430015037800b4
:101278009e4378008782fb008502e800e529b900d3
:10128800820378005510210085824300954278003a
:101298008582fb0085024300040342006418210094
:1012a80004024300050a78001e4fe8001e42780039
:1012b800e54f520049ff3600e48d80000400a2008b
:1012c800e48d880001eca8000088a9000080fa00dd
:1012d8004f03be004f02be004f01780000400600d9
:1012e8000000fa000002eb00047088000002eb0026
:1012f800747088000002eb00147088000002eb0094
:10130800847088000002eb00f47088000002eb0093
:10131800947088000080fa00000006000000fa00bf
:1013280010aea80010cea90012cea8002536800065
:1013380004f82f0084826200540220000502720023
:10134800243688002534800004fc2f0004826200c3
:101358000400a0002434880021e2a90021a2a900e9
:101368002182a900041180000480a1000490a1003a
:101378000411880020c2a90020a2a9002082a80088
:101388002062a900041180000410a1000420a1001b
:10139800041188002002a90023a2a90022e2a900c2
:1013a80023c2a8002342a900141180000460a100f0
:1013b8000470a1001411880022a2a900741c200046
:1013c800441188000080fa00000006000200fa00bc
:1013d800004f78009e4278000582fb0024118800a7
:1013e8000000000015118000041020000482620033
:1013f800e00f5200fbff32000080fa0000000600f8
:101408000000fa00000ea800140020007470880084
:1014180021e3a90021a3a9002183a8002143a90051
:10142800041980000480a1000490a1000419880018
:10143800041980000450a1000460a0000470a100f9
:10144800041988002083a9002043a8002023a900ac
:101458001419800004d0a10004e0a10004f0a10048
:10146800141988002343a900141980000480a100de
:101478000490a100141988001519800034f82f0071
:1014880004826200141988002223a9002203a900fb
:1014980025e3a80000c2eb00044378004532200091
:1014a800864a78003303a800941980000400a1003c
:1014b8000410a1000420a1009419880028e3a900c1
:1014c8004519800004fe2f00048262004419880038
:1014d80021e3a8000080fa00000006000000fa00de
:1014e80001eba90001cba90001aba900018ba90060
:1014f800016ba900045880000440a1000450a10019
:1015080004588800045880000400a1000410a000ba
:101518000458880003eba900d4c0b3000443780042
:1015280025b02000864a780004002100245888004d
:10153800040021003458880004032100445888001e
:10154800040321005458880004302000645888009f
:10155800740120007458880001eba8000080fa008c
:10156800000006000000fa000002eb0054088800a2
:10157800546d200074088800940880000440a1007d
:101588000450a100940888000080fa0000000600ba
:101598000000fa0001eca90001aca900016ca90047
:1015a800010ca90000eca900146080000400a00050
:1015b8000410a1000420a10014608800210ca800d8
:1015c800206ca900204ca900202ca900200ca900ff
:1015d8000002eb0004638800046380000462880052
:1015e80023eca80023cca90023aca9001461800037
:1015f80004a0a10004b0a100146188000002eb005f
:10160800146388001463800014628800340020008a
:101618002463880024638000246288002462800098
:1016280024618800048020002460880004202000b1
:10163800546088000080fa00000006000000fa00ec
:1016480040a7a900143a80000480a0000490a100db
:1016580004a0a100143a880042e7a90042c7a900e3
:101668004207a80000000000153a80000400270087
:101678008482620004002100848f5200faff3a003d
:101688004fe7a8004f87a900743a80000480a100a2
:101698000490a10004a0a10004b0a100743a88003d
:1016a8000080fa00000006000000fa0045e7a900e3
:1016b8004587a90045a7a90045c7a9004567a9000e
:1016c8004507a9004527a9004547a90044c7a9001f
:1016d80044e7a9004407a9004427a9004447a900f2
:1016e8004467a9004487a900353a800004e02f0028
:1016f80084826200a404200005027200343a880043
:101708000080fa00000006000000fa00d7fb07007e
:10171800e5ff0700c9ff07009dff0700f0fe07006f
:1017280090ff070036ff07006cff0700b0fb0700bb
:10173800d7fb070014c5b30004437800550c2100fb
:10174800864a780014c5b30004437800450e21008a
:0c175800864a780013e1a800ffff37006c
:020000040000fa
:10176400c0100000fc00000080000000bc1100005c
:1017740002000000800000000010000030000000a3
:1017840080000000301000003000000080000000e5
:101794006010000030000000800000009010000085
:0c17a40030000000800000000000000089
:020000040000fa
:04afe000cfff00009f
:020000040000fa
:04afe400ffff00006b
:020000040000fa
:04afe8007fff0000e7
:020000040000fa
:04afec007fff0000e3
:020000040000fa
:04aff000f9ff000065
:020000040000fa
:04aff400cfff00008b
:00000001FF
