:040000000CEF00F011
:10000800FACF2FF0FBCF30F0E9CF31F0B6ED0AF0A0
:10001800E6EF0CF092EC0DF00A0E516E000EAFEC0C
:100028000BF0000E406E010EB1EC0CF05050010DBB
:100038009B0EF324F66E7E0EF420F76E0800F5CFC3
:10004800A2F00001A239F00B816EF294000E3D6E11
:10005800010E3E6E000EADEC0DF0F28EF28C010E2C
:10006800466E0F0E6FEC0DF01FC046F0476A010E8A
:10007800486E38EC09F0F2A4F2D7897023B801D1A0
:10008800F4EC0BF0236EFDD0010E1E6E9FEC04F015
:100098005ED11FD02FD0050E1E6E9FEC04F02AD023
:1000A8000F0E231600016105D8A424D0020E00010A
:1000B8006219D8A41FD0020E1E6E9FEC04F0000E29
:1000C8001D6E1DC018F0196A18C016F019C017F077
:1000D80011D02350010AD8B40DD0030AD8B40AD0DD
:1000E800060AD8B407D00C0AD8B4D5D7180AD8B499
:1000F800D7D700D0164A172A1628030E1758D8A0A3
:100108000DD0000E176E000E166E000E216E21C067
:1001180024F0060E1E6E9FEC04F000D0010E81D074
:100128001FD02FD0050E1E6E9FEC04F02AD00F0EA4
:100138002316020E00016119D8A423D00F0E000166
:100148006219D8A41ED0030E1E6E9FEC04F0000E98
:10015800196E000E186E18C016F019C017F011D0DD
:100168002350010AD8B40DD0030AD8B40AD0060A1D
:10017800D8B407D00C0AD8B4D5D7180AD8B4D7D76A
:1001880000D0184A192A1828030E1958D8A009D0DF
:10019800000E216E21C024F0060E1E6E9FEC04F0A6
:1001A80000D0020E3ED00ED01ED0040E1E6E9FEC64
:1001B80004F019D0050E1E6E9FEC04F014D00F0E3B
:1001C800231611D02350010AD8B40DD0030AD8B48D
:1001D8000AD0060AD8B4E9D70C0AD8B4EBD7180A5B
:1001E800D8B4EDD700D0030E1CD009D019D0050E15
:1001F8001E6E9FEC04F014D00F0E231611D023505E
:10020800010AD8B40DD0030AD8B40AD0060AD8B463
:1002180007D00C0AD8B4EBD7180AD8B4EDD700D059
:10022800040E206E94D02050C7EC01F016D018D0E0
:100238008ED020C01EF09FEC04F0000E246E24C067
:1002480021F021C02AF02AC016F0176A16C018F04B
:1002580017C019F09FEC04F07AD00F0E231677D050
:100268002350010AD8B473D0030AD8B470D0060A50
:10027800D8B4DFD70C0AD8B46AD0180AD8B4EDD7E6
:1002880066D01F50000AD8B4FFD6010AD8B421D7C7
:10029800030AD8B465D7010AD8B494D7070AD8B4E2
:1002A800AED7010AD8B4BFD7030AD8B4D9D74FD02C
:1002B800000E256E25C026F0000E2C6E000E1D6E59
:1002C8001DC02AF02AC024F024C021F0000E196EA7
:1002D800000E186E18C016F019C017F0F6EC0DF0E5
:1002E800000E2E6E900E016E808A66EC0BF045D0E3
:1002F800010E026E45EC0DF09FEC04F03ED01D504F
:10030800D8A407D0020E026E45EC0DF0010E1D6E4A
:1003180000D09FEC04F031D01D50D8B409D0030EA2
:10032800026E45EC0DF09FEC04F0000E1D6E00D03F
:10033800040E1E18D8A421D0040E026E45EC0DF050
:100348009FEC04F01AD020504EEC0AF016D01F5043
:10035800000AD8B4ADD7010AD8B4CAD7030AD8B4AA
:10036800CED7010AD8B4D8D7070AD8B406D0010A1C
:10037800D8B403D0030AD8B4E6D71EC01FF0F2944D
:100388006ED60CEF00F00001A16F63D115D0265096
:10039800D8B402D0250600D09FEC04F079D1060E1F
:1003A800266002D0252A00D09FEC04F071D1A1C0AC
:1003B8001EF09FEC04F06CD12350010AD8B4EFD79B
:1003C800030AD8B4E4D7060AD8B462D10C0AD8B460
:1003D800EED75ED11BD02650D8B402D0250600D067
:1003E8009FEC04F055D1060E266002D0252A00D0D5
:1003F8009FEC04F04DD1000E1E6E9FEC04F0809A25
:1004080047D1A1C01EF09FEC04F042D12350010A4D
:10041800D8B4E9D7030AD8B4DED7060AD8B4EBD7DC
:100428000C0AD8B4EED734D115D02650D8B402D09F
:10043800250600D09FEC04F02BD1060E266002D0D2
:10044800252A00D09FEC04F023D1A1C01EF09FEC18
:1004580004F01ED12350010AD8B4EFD7030AD8B448
:10046800E4D7060AD8B414D10C0AD8B4EED710D100
:100478001CD02650D8B402D0250600D09FEC04F03A
:1004880007D1060E266002D0252A00D09FEC04F082
:10049800FFD0070E256E9FEC04F0010E2B6EF8D0EE
:1004A800A1C01EF09FEC04F0F3D02350010AD8B489
:1004B800E8D7030AD8B4DDD7060AD8B4EAD70C0AB5
:1004C800D8B4EED7E5D015D02650D8B402D025063A
:1004D80000D09FEC04F0DCD0060E266002D0252A5E
:1004E80000D09FEC04F0D4D0A1C01EF09FEC04F023
:1004F800CFD02350010AD8B4EFD7030AD8B4E4D731
:10050800060AD8B4C5D00C0AD8B4EED7C1D01AD0D0
:100518002650D8B402D0250600D09FEC04F0B8D0FD
:10052800060E266002D0252A00D09FEC04F0B0D039
:10053800080E256E9FEC04F0ABD0A1C01EF09FEC16
:1005480004F0A6D02350010AD8B4EAD7030AD8B4D5
:10055800DFD7060AD8B4ECD70C0AD8B4EED798D0AF
:100568001AD02650D8B402D0250600D09FEC04F04B
:100578008FD0060E266002D0252A00D09FEC04F00A
:1005880087D0090E256E9FEC04F082D0A1C01EF022
:100598009FEC04F07DD02350010AD8B4EAD7030AAF
:1005A800D8B4DFD7060AD8B4ECD70C0AD8B4EED73B
:1005B8006FD04FEC03F00CD06BD0030E256E9FEC80
:1005C80004F0050E026E000E046E45EC0DF060D0CE
:1005D8002350010AD8B45CD0030AD8B459D0060A0B
:1005E800D8B456D00C0AD8B4E8D752D0FFEC0DF0E6
:1005F8000BD04ED0050E256E9FEC04F049D0050EA9
:10060800256E9FEC04F044D02350010AD8B440D0A2
:10061800030AD8B43DD0060AD8B4ECD70C0AD8B42B
:10062800EED736D0D7EC05F006D032D0060E256EC0
:100638009FEC04F02DD02350010AD8B429D0030A26
:10064800D8B426D0060AD8B423D00C0AD8B4EED72A
:100658001FD02650000AD8B4AFD6010AD8B4D6D6CF
:10066800030AD8B4F7D6010AD8B41FD7070AD8B4F2
:1006780040D7010AD8B466D7030AD8B48CD7010A80
:10068800D8B497D70F0AD8B4B1D7010AD8B4CAD703
:1006980025C026F0120009D0AED0050E4D6002D05C
:1006A8004D2AA9D0010E4D6EA6D02350010AD8B408
:1006B800A2D0030AD8B49FD0060AD8B4EED70C0A41
:1006C8009AD0010E466E090E6FEC0DF0B50E466E0F
:1006D8007F0E476ED3EC09F00ED0010E2B6E040E80
:1006E8004C6097D04C2A95D0010E2B6E010E4C64AD
:1006F80090D04C068ED02350010AD8B4F5D7030AFF
:10070800D8B4EBD786D0010E466E090E6FEC0DF00B
:10071800BD0E466E7F0E476ED3EC09F014D0010E65
:100728002B6E030E4E6002D04E2A73D0010E09D0F4
:1007380070D0010E2B6E010E4E6402D04E0669D0A9
:10074800030E4E6E66D02350010AD8B4F2D7030ABE
:10075800D8B4E5D75ED0010E466E090E6FEC0DF0E9
:10076800C50E466E7F0E476ED3EC09F014D0010E0D
:100778002B6E090E4F6002D04F2A4BD0000E09D0C5
:1007880048D0010E2B6E4F50D8B402D04F0641D03E
:10079800090E4F6E3ED02350010AD8B4F2D7030A8F
:1007A800D8B4E5D736D0010E466E090E6FEC0DF0C1
:1007B800CD0E466E7F0E476ED3EC09F014D0010EB5
:1007C8002B6E090E2D6002D02D2A23D0000E09D0E1
:1007D80020D0010E2B6E2D50D8B402D02D0619D082
:1007E800090E2D6E16D02350010AD8B4F2D7030A89
:1007F800D8B4E5D70ED04D50010AD8B462D7030A51
:10080800D8B481D7010AD8B4A6D7070AD8B4CBD7A9
:1008180000D0000E466E090E6FEC0DF04CC046F08D
:10082800476A010E486E38EC09F0000E466E0A0E53
:100838006FEC0DF0E90E466E7F0E476ED3EC09F0B3
:10084800000E466E0D0E6FEC0DF04EC046F0476A76
:10085800010E486E38EC09F0000E466E0E0E6FEC75
:100868000DF04FC046F0476A010E486E38EC09F0AB
:10087800000E466E0F0E6FEC0DF02DC046F0476A65
:10088800010E486E38EC09F02B50D8B425D04E50E4
:10089800640DF3CF9FF0F4CFA0F04F500A0DF35042
:1008A80000019F27F4500001A0232D5000019F252F
:1008B8004A6E000E0001A0214B6E050E026E030E5B
:1008C800046E4CC005F04B50066E4AC007F045EC6C
:1008D8000DF0000E2B6E00D0040E3E6EB00E3D6E75
:1008E8004AC09FF04BC0A0F00001D8909F37A037B6
:1008F8000001D8909F37A0379FC03FF0A0C040F0BC
:1009080017EC0DF03D50145C3E501558D8A010D08F
:10091800010E466E010E6FEC0DF0D50E466E7F0E81
:10092800476ED3EC09F0000E156E000E146E00D061
:10093800144A152A120022D135D1CBEC07F032D156
:10094800CBEC07F02FD1000E466E000E6FEC0DF0C9
:10095800270E466E7F0E476ED3EC09F0010E466EE9
:10096800000E6FEC0DF0D20E466E7E0E476ED3EC85
:1009780009F018D1000E466E000E6FEC0DF0E30E74
:10098800466E7E0E476ED3EC09F0010E466E000EE1
:100998006FEC0DF09F0E466E7E0E476ED3EC09F09D
:1009A80001D1000E466E000E6FEC0DF0C10E466EC2
:1009B8007E0E476ED3EC09F0010E466E000E6FEC0A
:1009C8000DF09F0E466E7E0E476ED3EC09F0B9D03F
:1009D800000E466E080E6FEC0DF09A0E466E7F0EF6
:1009E800476ED3EC09F0010E466E080E6FEC0DF061
:1009F800880E466E7F0E476ED3EC09F0D3D0000EFA
:100A0800466E080E6FEC0DF0880E466E7F0E476E30
:100A1800D3EC09F0010E466E080E6FEC0DF0A30E34
:100A2800466E7F0E476ED3EC09F0BCD0000E466EC2
:100A3800080E6FEC0DF0A30E466E7F0E476ED3ECDA
:100A480009F0010E466E080E6FEC0DF07F0E466E33
:100A58007F0E476ED3EC09F0A5D0000E466E080E47
:100A68006FEC0DF07F0E466E7F0E476ED3EC09F0EB
:100A7800010E466E080E6FEC0DF0760E466E7F0E78
:100A8800476ED3EC09F08ED0000E466E080E6FEC60
:100A98000DF0760E466E7F0E476ED3EC09F0010E10
:100AA800466E080E6FEC0DF0910E466E7F0E476E87
:100AB800D3EC09F077D0000E466E080E6FEC0DF0FF
:100AC800910E466E7F0E476ED3EC09F0010E466E0E
:100AD800080E6FEC0DF06D0E466E7F0E476ED3EC70
:100AE80009F060D0000E466E080E6FEC0DF06D0E2A
:100AF800466E7F0E476ED3EC09F0010E466E000E6F
:100B08006FEC0DF09F0E466E7E0E476ED3EC09F02B
:100B180049D0000E466E000E6FEC0DF0AC0E466E1E
:100B28007F0E476ED3EC09F03DD0000E466E000EE6
:100B38006FEC0DF0160E466E7F0E476ED3EC09F083
:100B480031D02550000AD8B443D7010AD8B457D7B2
:100B5800030AD8B46BD7010AD8B47FD7070AD8B428
:100B680093D7010AD8B4A7D7030AD8B4BBD7010AC8
:100B7800D8B4CFD70E0AD8B4D8D714D01E50000A8C
:100B8800D8B410D0010AD8B4D8D6030AD8B4D8D665
:100B9800010AD8B4D8D6070AD8B4ECD6010AD8B412
:100BA80000D700D0120009D001D1020E2C6002D06B
:100BB8002C2AFCD0000E2C6EF9D02350010AD8B490
:100BC800F5D0030AD8B4F2D0060AD8B4EED70C0A86
:100BD800EDD0010E466E020E6FEC0DF0F80E466E6B
:100BE8007F0E476ED3EC09F0010E466E090E6FECCE
:100BF8000DF0AE0E466E7E0E476ED3EC09F0010E78
:100C0800466E0E0E6FEC0DF0AE0E466E7E0E476E03
:100C1800D3EC09F00AD0030E50600FD0502A0DD043
:100C28005050D8B40AD0500608D02350010AD8B47E
:100C3800F7D7030AD8B4EFD700D05050010D9B0E58
:100C4800F324F66E7E0EF420F76E0800F5CF49F017
:100C58004938F00B816E010E466E000E6FEC0DF0F8
:100C680050C046F0476A020E486E38EC09F0010E93
:100C7800466E070E6FEC0DF051C046F0476A020E43
:100C8800486E38EC09F0010E466E0C0E6FEC0DF054
:100C9800F50E466E7F0E476ED3EC09F092D0010E2A
:100CA800466E020E6FEC0DF0AE0E466E7E0E476E6F
:100CB800D3EC09F0010E466E090E6FEC0DF0F80E3C
:100CC800466E7F0E476ED3EC09F0010E466E0E0E8F
:100CD8006FEC0DF0AE0E466E7E0E476ED3EC09F04B
:100CE8000CD0320E516011D0050E51260ED00A0ECE
:100CF80051640BD0050E515E08D02350010AD8B4B8
:100D0800F6D7030AD8B4EDD700D0010E466E000E10
:100D18006FEC0DF050C046F0476A020E486E38EC92
:100D280009F0010E466E070E6FEC0DF051C046F04B
:100D3800476A020E486E38EC09F0010E466E0C0E3A
:100D48006FEC0DF0F50E466E7F0E476ED3EC09F092
:100D580038D002D0807A08D02350010AD8B4FAD704
:100D6800030AD8B4F7D700D0010E466E020E6FEC16
:100D78000DF0AE0E466E7E0E476ED3EC09F0010EF6
:100D8800466E090E6FEC0DF0AE0E466E7E0E476E87
:100D9800D3EC09F0010E466E0E0E6FEC0DF0F80E56
:100DA800466E7F0E476ED3EC09F00BD02C50000A2C
:100DB800D8B40FD7010AD8B472D7030AD8B4CCD79D
:100DC80000D012002A2A51502A18D8A4DFD0215066
:100DD800D8B408D0040E2118D8B404D0080E2118AD
:100DE800D8A404D0020E95EC08F000D02104D8B4A1
:100DF80010D0030E2118D8B40CD0050E2118D8B481
:100E080008D0070E2118D8B404D0090E2118D8A488
:100E180004D0010E95EC08F000D0020E2118D8B4C9
:100E280008D0060E2118D8B404D00A0E2118D8A468
:100E380004D0000E95EC08F000D0000E406E010EB4
:100E4800B1EC0CF0000E466E21506FEC0DF0DA0E8E
:100E5800466E7F0E476ED3EC09F0000E466E2128D1
:100E68006FEC0DF0DD0E466E7F0E476ED3EC09F089
:100E7800000E466E2150020F6FEC0DF0E00E466E2C
:100E88007F0E476ED3EC09F0010E466E21506FECD1
:100E98000DF0E30E466E7F0E476ED3EC09F0010E9F
:100EA800466E21286FEC0DF0E60E466E7F0E476EFB
:100EB800D3EC09F0010E466E2150020F6FEC0DF0D5
:100EC800EC0E466E7F0E476ED3EC09F0000E466EB0
:100ED8002150030F6FEC0DF0DA0E466E7F0E476E51
:100EE800D3EC09F0000E466E2150040F6FEC0DF0A4
:100EF800DD0E466E7F0E476ED3EC09F0000E466E8F
:100F08002150050F6FEC0DF0E00E466E7F0E476E18
:100F1800D3EC09F0010E466E2150030F6FEC0DF073
:100F2800E30E466E7F0E476ED3EC09F0010E466E57
:100F38002150040F6FEC0DF0E60E466E7F0E476EE3
:100F4800D3EC09F0010E466E2150050F6FEC0DF041
:100F5800EC0E466E7F0E476ED3EC09F00A0E211890
:100F6800D8B403D02150D8A407D02450D8A402D094
:100F7800010E01D0000E246E2450D8B402D0212ACC
:100F880002D0210600D0000E2A6E00D012002A2AB4
:100F980051502A18D8A4C4D0030E95EC08F0000EBE
:100FA800466E000E6FEC0DF0DA0E466E7F0E476E41
:100FB800D3EC09F0000E466E010E6FEC0DF0DD0E5D
:100FC800466E7F0E476ED3EC09F0010E466E000E9A
:100FD8006FEC0DF0E60E466E7F0E476ED3EC09F00F
:100FE800010E466E010E6FEC0DF0AE0E466E7E0ED3
:100FF800476ED3EC09F0010E466E020E6FEC0DF051
:10100800EC0E466E7F0E476ED3EC09F0000E466E6E
:101018000E0E6FEC0DF0E00E466E7F0E476ED3ECB1
:1010280009F0000E466E0F0E6FEC0DF0E30E466EE3
:101038007F0E476ED3EC09F0010E466E0E0E6FEC74
:101048000DF0EF0E466E7F0E476ED3EC09F0010EE1
:10105800466E0F0E6FEC0DF0F20E466E7F0E476E69
:10106800D3EC09F0010E466E0D0E6FEC0DF0EC0E90
:10107800466E7F0E476ED3EC09F021C049F0030E8F
:101088004916D8B40CD0000E466E020E6FEC0DF067
:10109800610E466E7F0E476ED3EC09F00CD0000E41
:1010A800466E030E6FEC0DF0A40E466E7E0E476E74
:1010B800D3EC09F000D02450D8B40DD0010E466E00
:1010C8002150020F6FEC0DF0FA0E466E7F0E476E40
:1010D800D3EC09F00DD0010E466E2150020F6FECD3
:1010E8000DF0FC0E466E7F0E476ED3EC09F000D073
:1010F8000B0E2118D8B403D02150D8A407D02450FF
:10110800D8A402D0010E01D0000E246E2450D8B409
:1011180002D0212A02D0210600D0000E2A6E00D06B
:101128001200466E000E406E400EB1EC0CF08AD0F4
:10113800000E476E3F0E476401D095D0010E406EF9
:101148004750010D5B0EF324F66E7D0EF420F76E0A
:101158000800F550B1EC0CF0472AECD784D0000E0B
:10116800476E3F0E476401D07ED0010E406E475057
:10117800010D9B0EF324F66E7D0EF420F76E080029
:10118800F550B1EC0CF0472AECD76DD0000E476E45
:101198003F0E476401D067D0010E406E4750010DE5
:1011A800DB0EF324F66E7D0EF420F76E0800F55082
:1011B800B1EC0CF0472AECD756D0000E476E3F0E24
:1011C800476401D050D0010E406E4750010D1B0EF0
:1011D800F324F66E7E0EF420F76E0800F550B1EC9D
:1011E8000CF0472AECD73FD0000E476E3F0E4764FD
:1011F80001D039D0010E406E4750010D5B0EF3242B
:10120800F66E7E0EF420F76E0800F550B1EC0CF087
:10121800472AECD728D0000E476E3F0E476401D00E
:1012280022D0010E406E4750010D5B0EF324F66E7E
:101238007D0EF420F76E0800F550B1EC0CF0472A4B
:10124800ECD711D04650000AD8B472D7010AD8B4E6
:1012580086D7030AD8B49AD7010AD8B4AED7070AF2
:10126800D8B4C2D7D8D7120020EE79F010EE96F095
:10127800040EDBCFE3FFE806FCE2000E00019E6FE0
:10128800040E9D6F000E00019C6F000E9B6F47AE11
:1012980031D0010E406E2D0EB1EC0CF0466C471E9D
:1012A800D8B0472A27D0960E00019D25D96E000E8A
:1012B80000019E21DA6E46C03DF047C03EF0000EA8
:1012C800406E0A0E3F6E38EC0CF03D50DF6E46C0A3
:1012D8003DF047C03EF0000E406E0A0E3F6E1BEC1C
:1012E8000BF03DC046F03EC047F000019D07D8A076
:1012F8009E0700D046504710D8A4D5D74828D8B460
:1013080006D012D004D000019B4B9C2B00D0960E27
:1013180000019B25D96E000E00019C21DA6EDF507A
:10132800D8A418D0F0D716D048C094F00001956B17
:1013380094BF95070001941F951F944B952B050E9C
:101348000001942500019B6F000E0001952100010A
:101358009C6F00D09BC09DF09CC09EF000019EBF7A
:101368000AD000019E511AE1050E00019D5DD8B01A
:1013780015D001D013D0010E406E960E00019D25A8
:10138800D96E000E00019E21DA6EDF50300FB1ECED
:101398000CF000019D4B9E2BE1D700D0120066D0C7
:1013A80046C0F6FF47C0F7FFF86A070EF76403D098
:1013B8000800F55005D0F6CFE9FFF7CFEAFFEF5068
:1013C800250AD8A43BD0464A472A46C0F6FF47C05C
:1013D800F7FFF86A070EF76403D00800F55005D048
:1013E800F6CFE9FFF7CFEAFFEF50D00F486E48BEBF
:1013F8000BD04850800A780FD8B006D0010E406E46
:101408004850B1EC0CF02FD0010E406E250EB1EC17
:101418000CF0010E406E46C0F6FF47C0F7FFF86AB1
:10142800070EF76403D00800F55005D0F6CFE9FFA2
:10143800F7CFEAFFEF50B1EC0CF015D0010E406E7B
:1014480046C0F6FF47C0F7FFF86A070EF76403D0F7
:101458000800F55005D0F6CFE9FFF7CFEAFFEF50C7
:10146800B1EC0CF000D0464A472A00D046C0F6FF3F
:1014780047C0F7FFF86A070EF76403D00800F55075
:1014880005D0F6CFE9FFF7CFEAFFEF500009D8A45F
:1014980087D71200496E2A2A5150100D2A50000190
:1014A800946F956BF350000194195BE1F4500001BF
:1014B8009519D8A456D02450D8A437D0000E466E1B
:1014C800000E6FEC0DF0B00E466E7E0E476ED3EC3C
:1014D80009F0010E466E000E6FEC0DF0050E466E1B
:1014E8007F0E476ED3EC09F018D0000E466E050E3D
:1014F8006FEC0DF0550E466E7F0E476ED3EC09F07B
:101508002BD0000E466E050E6FEC0DF0490E466EA0
:101518007F0E476ED3EC09F01FD04950010AD8B4AA
:10152800E4D7030AD8B4EDD717D0000E466E000EE4
:101538006FEC0DF0380E466E7F0E476ED3EC09F057
:10154800010E466E000E6FEC0DF0F40E466E7E0E28
:10155800476ED3EC09F000D0010E241A000E2A6E53
:1015680000D012000600EACF32F0E1CF33F0E2CF2C
:1015780034F0D9CF35F0DACF36F0F3CF37F0F4CFF7
:1015880038F0F6CF39F0F7CF3AF0F8CF3BF0F5CF97
:101598003CF09EAA2FD02E50010D0A0EF324D96ECE
:1015A800000EF420DA6EAECFDFFF2E2A080E2E18BA
:1015B800D8A420D0000E2E6E0A50F00B0001606FE8
:1015C8000A500F0B0001616F0BC062F00CC063F092
:1015D8000DC064F00EC065F00FC066F010C067F073
:1015E80011C068F0A00E00016019D8A403D0100E35
:1015F800236E00D03CC0F5FF3BC0F8FF3AC0F7FFB0
:1016080039C0F6FF38C0F4FF37C0F3FF36C0DAFF41
:1016180035C0D9FF34C0E2FF33C0E1FF32C0EAFF72
:1016280031C0E9FF30C0FBFF2FC0FAFF1100000EE8
:10163800426E40AE07D03F6C401ED8B0402A010E23
:10164800426E00D03EAE07D03D6C3E1ED8B03E2A5A
:10165800010E421A00D0000E446E000E436E3F5039
:101668004010D8B421D0010E416E05D0D8903F3635
:101678004036412A00D040BE02D0F8D700D0D890DA
:10168800433644363F503D5C40503E58D8A006D0C3
:101698003F503D5E40503E5A438000D0D890403283
:1016A8003F32412EECD700D04250D8B405D0436C1D
:1016B800441ED8B0442A00D043C03DF044C03EF098
:1016C80000D01200010E00019A6F000E00019B6FFE
:1016D80020EE8EF010EE94F0050EDBCFE3FFE80667
:1016E800FCE2940E00019C6F000E00019D6F2DD04E
:1016F800000E406E010EB1EC0CF0000E466E0001BB
:101708009B516FEC0DF09CC046F09DC047F0D3ECA8
:1017180009F000019C4B9D2B9CC0D9FF9DC0DAFFAE
:10172800DF50D8A40CD0000E00019A6F000E000103
:101738009B6F000E406E010EB1EC0CF000D0000E55
:101748003E6E320E3D6EDAEC0DF000019A5100014A
:10175800D8A4CED71200466E000E406E080EB1EC2B
:101768000CF0E10E9216949494909492E10E8016E7
:1017780082948292829000D000D000D082848084AB
:10178800040EE82EFED78294040EE82EFED779ECDC
:101798000CF0000E406E280EB1EC0CF0000E406EFE
:1017A80046500C09B1EC0CF0000E406E400EB1EC46
:1017B8000CF0000E476E3F0E476401D010D0010EAA
:1017C800406E4750010D9B0EF324F66E7D0EF420FB
:1017D800F76E0800F550B1EC0CF0472AECD7120070
:1017E800000E1A6E81B003D03D6A3D2A01D03D6AD1
:1017F80081B403D03E6A3E2A01D03E6AD8903E3476
:101808003F6E81B603D0406A402A01D0406AD89022
:101818004036D890403681B203D0416A412A01D07F
:10182800416AD8904136D8904136D8904134402406
:101838003F243D241B6E1B50D8B409D01C50D8A49B
:1018480006D01B501C18D8B402D0010E01D0000ECF
:101858001A6E00D01BC01CF01A50D8B402D01B500E
:1018680002D0000E00D01200000E426E3EAE07D02D
:101878003D6C3E1ED8B03E2A010E426E00D040AEEE
:1018880005D03F6C401ED8B0402A00D03F504010D1
:10189800D8B41DD0010E416E05D0D8903F364036E1
:1018A800412A00D040BE02D0F8D700D03F503D5C5E
:1018B80040503E58D8A005D03F503D5E40503E5A5B
:1018C80000D0D89040323F32412EF0D700D042505D
:1018D800D8B405D03D6C3E1ED8B03E2A00D03DC0DD
:1018E8003DF03EC03EF000D01200000E3F6E1E0ECE
:1018F80092128282829000D000D000D000D08284E0
:1019080000D000D000D0D89080303F6E3F38F00B28
:101918003F6E00D000D000D08294040EE82EFED78F
:10192800828400D000D000D0D89080303E6E0F0E58
:101938003E163F503E103F6E3F50800B3D6E00D02C
:1019480000D000D08294040EE82EFED73D50D8A4D3
:10195800D6D78292E10E92161200446E44380F0BCD
:10196800426E44500F0B436E4050D8A402D0829070
:1019780001D0828000D000D000D08284D890423438
:10198800416E8050E10B4110456E45C080FF040E4A
:10199800E82EFED78294040EE82EFED78284D890D3
:1019A8004334416E8050E10B4110456E45C080FFC5
:1019B800040EE82EFED78294040EE82EFED779ECAA
:1019C8000CF0120000EE60F01E0EEE6AE806FDE173
:1019D80000EE01F02E0EEE6AE806FDE1D60EF66E78
:1019E8001B0EF76E000EF86E00EE7EF010EE16F08D
:1019F8000900F5CFEEFFE550E150FAE1F80EF66E7A
:101A08001B0EF76E000EF86E00EE4AF010EE06F0B0
:101A18000900F5CFEEFFE550E150FAE1000EF86E4F
:101A280000010EEF00F0000E436E000E426E3F50B4
:101A38004010D8B421D0010E416E05D0D8903F3661
:101A48004036412A00D040BE02D0F8D700D0D89006
:101A5800423643363F503D5C40503E58D8A006D0F1
:101A68003F503D5E40503E5A428000D0D8904032B0
:101A78003F32412EECD700D042C03DF043C03EF08B
:101A8800120002500124AD6E00D0ACA2FED703C0F4
:101A9800ADFF00D0ACA2FED704C0ADFF00D0ACA211
:101AA800FED705C0ADFF00D0ACA2FED706C0ADFF83
:101AB80000D0ACA2FED707C0ADFF00D0ACA2FED7C5
:101AC80008C0ADFF00D0ACA2FED709C0ADFF00D062
:101AD800ACA2FED71200476E130E47640AD01DD081
:101AE80008D015D0478C13D0140E01D0540E4726B9
:101AF8000ED04650000AD8B40AD0010AD8B4F2D79A
:101B0800030AD8B4F1D7010AD8B4F0D700D0478E69
:101B1800000E406E4750B1EC0CF01200000E926EB1
:101B28000F0E936E000E946EC180C182C184C1866F
:101B3800000E3E6E0C0E3D6E000E3F6E000E406EA7
:101B4800C4EC0DF09E9A9D8AF29C010E506E809A0C
:101B580012003F6ED59E3FB002D0D59C01D0D58CE7
:101B6800D59AD59A3DB002D0D59601D0D586D55014
:101B78003E18F80B3E18D56E000ED66ED58E1200A4
:101B88003DC0AFFFAC9EAC94AC9AAC9CAC98AB9EFD
:101B9800AB9CAB963FB002D0B89801D0B88840B0A3
:101BA80002D0B89A01D0B88AB89612000BD09C0E11
:101BB8003F6ED70EE82EFED73F2EFCD700F03D062D
:101BC800D8A03E063D503E10D8A4F1D712003031BF
:101BD8003233343536373839414243444546576104
:101BE8006C646F00948E949CAC8AAB88AB8E1200A8
:0C1BF800780004010102E6EC06F0120087
:107D5A0000000204040408080800000000000000F3
:107D6A0000000804040002020208080804040201D0
:107D7A00000E0A0E000000001F020204040408108C
:107D8A0000000000000000000000000000000000E9
:107D9A000000020408081010100000000000000093
:107DAA000E00080402020101011008080402010081
:107DBA00000A0E000000001F000102020408100061
:107DCA0000000000000000000000000000000000A9
:107DDA000000020404081010100000000000000E49
:107DEA000A00080404020101010808040201000053
:107DFA00000E000000001F0000020204081000002C
:107E0A000000000000000000000000000000000068
:107E1A000000070F0C0C0C0F0F00101808080818A8
:107E2A00100003070E0C0C0C0F0010181C0C0C1C75
:107E3A000C0C0C0C0C0C0C1E000A04040E0E0E0E7C
:107E4A00000C0C0C0C0C0C1E000C0C0C0C0C0C1E5C
:107E5A0000000A040407010101000000001E1E1EA2
:107E6A001E0003070E0C0C0C0F0010181C0C0C1C27
:107E7A000C01010101000000001E1E1E1E00000070
:107E8A00000C0C0C0C0C0C1E000C0C0C0C0C0C1E1C
:107E9A00000306070F202020202020202020202059
:107EAA00202020202000204B616E2020202020202E
:107EBA00202020202020004D656E753A20203E208B
:107ECA002020202020202000626567696E6E656E82
:107EDA002020202020202020005472616E736D69BA
:107EEA00742020202020202020007465207A6F65CD
:107EFA006B656E2E2E2E2020202000206E69657460
:107F0A002076696E64656E2020202000486C6472B9
:107F1A0068202053706420204C65642000447275E8
:107F2A006B20274F4B27206F6D2074652000447209
:107F3A00756B204F4B206F6D20776565722000505E
:107F4A00656E6E7920202020202000416E6F7563B7
:107F5A006B61202020200020436F6E6E6563746978
:107F6A006E67004C63642020202020004D6F706AE9
:107F7A006520202000436C69636B20202000526535
:107F8A007365742020200054657474656E20200087
:107F9A002D6B6965732D3C20005374656D6D656E9C
:107FAA0020004D6574726F6E6F6D005E2020202078
:107FBA00202000202020205E2020002020202020B9
:107FCA005E20002020202020205E002A2A2A2A0063
:107FDA002530002531002532002533002534002FB5
:107FEA0034002535002536002537004F4E003C0069
:067FFA007E007F00000084
:020000040020DA
:08000000FFFFFFFFFFFFFFFF00
:020000040030CA
:0E000000240E191EFF8085FF0FC00FE00F4079
:00000001FF
