:020000040000fa
:080000000002040000000000f2
:020000040000fa
:10000800d2020000d8020000f4020000de02000064
:10001800e4020000ea020000f8020000f00200001a
:10002800f0020000f0020000f0020000f002000000
:10003800f0020000f0020000f0020000f0020000f0
:1000480044040000f0020000f0020000360800003e
:10005800da080000f0020000f0020000f0020000e0
:10006800f0020000f0020000f0020000f0020000c0
:10007800a2040000f0020000f0020000f0020000fc
:10008800f0020000f0020000f0020000741000000e
:10009800f0020000f0020000f0020000f002000090
:1000a800f0020000f0020000f0020000f002000080
:1000b800f0020000f0020000f0020000f002000070
:1000c800f0020000f0020000f0020000f002000060
:1000d800f0020000f0020000f0020000f002000050
:1000e800f0020000f0020000f0020000f002000040
:1000f800f0020000f0020000f0020000f002000030
:10010800f0020000f0020000f0020000f00200001f
:10011800f0020000f0020000f0020000f00200000f
:10012800f0020000f0020000f0020000f0020000ff
:10013800f0020000f0020000f0020000f0020000ef
:10014800f0020000f0020000f0020000f0020000df
:10015800f0020000f0020000f0020000f0020000cf
:10016800f0020000f0020000f0020000f0020000bf
:10017800f0020000f0020000f0020000f0020000af
:10018800f0020000f0020000f0020000f00200009f
:10019800f0020000f0020000f0020000f00200008f
:1001a800f0020000f0020000f0020000f00200007f
:1001b800f0020000f0020000f0020000f00200006f
:1001c800f0020000f0020000f0020000f00200005f
:1001d800f0020000f0020000f0020000f00200004f
:1001e800f0020000f0020000f0020000f00200003f
:1001f800f0020000f0020000f0020000f00200002f
:10020800f0020000f0020000f0020000f00200001e
:10021800f0020000f0020000f0020000f00200000e
:10022800f0020000f0020000f0020000f0020000fe
:10023800f0020000f0020000f0020000f0020000ee
:10024800f0020000f0020000f0020000f0020000de
:10025800f0020000f0020000f0020000f0020000ce
:10026800f0020000f0020000f0020000f0020000be
:0c027800f0020000f0020000f0020000a4
:020000040000fa
:100400004f0c21000eff21000e01880000000000ab
:10041000000020000000e000020032000001200087
:10042000200288000c0007000013210001002000ba
:100430000f000700000020000000e0000200320072
:100440000000020000000000e00b020000000000bd
:100450000040da000000fe00800c20000000e000f8
:1004600002003200002020009001880000000600f9
:10047000a1028800800078000000eb001a0037001d
:10048000e280400054a0b4009101ba00e280400034
:1004900054a0b4009102ba00e280400054a0b4001d
:1004a0000002eb00472bde00f507b200a601880032
:1004b000602ce10008003a000049eb000201e8006e
:1004c000020039003420ec0002f0a0008301e900b2
:1004d000f9ff3e00040037006128e100010032000e
:1004e0000082eb00040007001101ba000200e000e6
:1004f000e3ff3a000000060004d0a300e20f490029
:100500001c003900810278003549ba000201e80078
:10051000020039003420ec0002f0a0008301e90061
:100520000f0032002549ba000201e800020039003c
:100530003420ec0002f0a0008301e9000800320042
:100540000400e0000600320015c9ba000201e8000c
:10055000020039003420ec0002f0a0008301e90021
:100560008180e80054a0b4000300e000e2ff3a00fc
:10057000000006009102ba00055978008301e900e5
:10058000f7ff3200c82ade00055978008301e90030
:10059000f3ff32000400e000f1ff320011d9ba008d
:1005a000eeff37000000fa00c028a900ffff370067
:1005b0000000fa00c068a900ffff37000000fa0041
:1005c000c048a900ffff37000000fa00c088a9005a
:1005d000ffff37000000fa00c0a8a900ffff3700a6
:1005e0000000fa00ffff37000000fa00ffff3700ad
:0805f0000000fa00ffff3700d4
:020000040000fa
:1005f800000400004004000080040000c004000063
:10060800ff0400003c05000079050000b405000067
:10061800ed050000250600005a0600008d060000c2
:10062800bd060000ea060000150700003c070000b0
:1006380061070000810700009f070000b80700005d
:10064800ce070000e0070000ee070000f8070000f2
:10065800fe07000000080000fe070000f807000081
:10066800ee070000e0070000ce070000b807000012
:100678009f07000081070000610700003c07000099
:1006880015070000ea060000bd0600008d06000000
:100698005a06000025060000ed050000b40500001c
:1006a800790500003c050000ff040000c0040000bc
:1006b800800400004004000000040000c0030000a3
:1006c800800300004003000001030000c402000092
:1006d800870200004c02000013020000db0100004a
:1006e800a60100007301000043010000160100008c
:1006f800eb000000c40000009f0000007f00000025
:1007080061000000480000003200000020000000e6
:1007180012000000080000000200000000000000b5
:100728000200000008000000120000002000000085
:100738003200000048000000610000007f00000057
:100748009f000000c4000000eb000000160100003c
:100758004301000073010000a6010000db01000056
:10076800130200004c02000087020000c4020000cf
:10077800010300004003000080030000c0030000e4
:020000040000fa
:100788000000fa000002eb00044688000002eb00bb
:10079800244688000002eb0034468800c1e8a9001e
:1007a80005358000f40f28008482620004002200ce
:1007b8000502720004358800c228a8000288a90032
:1007c800544280000400a1000410a0000420a000ee
:1007d800544288002288a900244280000400a00016
:1007e8000410a0000420a000244288000108a900e9
:1007f8002108a8000168a9002442800004c0a000c4
:1008080004d0a10004e0a000244288002168a800c8
:100818000368a9006442800004c0a00004d0a000be
:1008280004e0a100644288002368a8000080fa0060
:10083800000006000000fa00140280000450a00026
:100848000460a0000470a00014028800c3e8a90096
:100858000080fa00000006000000fa001402800080
:100868000450a1000460a1000470a10014028800d3
:100878004460a900c3e8a8000080fa000000060050
:10088800849fbe000000fa00056080000400280074
:1008980004826200e00f520024003200648380006a
:1008a800e00f520011003a004483800084024200a5
:1008b80084002100048242001402780004024200ed
:1008c80054608800448380000402e8004483880060
:1008d80044838000f80f520014003a0064838000bb
:1008e8000400a2006483880010003700548380004d
:1008f800840242008403210004824200140278002a
:100908000402420054608800548380000402e80016
:100918005483880054838000f80f520003003a0083
:10092800648380000400a200648388000108a90091
:100938000080fa004f02be00004006003600f800b2
:10094800809fbe00829fbe00849fbe00869fbe001f
:100958000200fa00142ea90000c0eb002a050700c7
:100968000042780005c8b30005427200844278004e
:100978006200210005497800142ea80064002100b7
:10098800144278008482fb00040220000482620082
:10099800e00f52000700320001c2b30070c0b3007c
:1009a800e60207000042eb0084437800c6072100f6
:1009b800074b780064002100144278008482fb0011
:1009c8000404200004826200e00f5200810132001a
:1009d800d00721005503070024808000e00f520053
:1009e800bd003a000042eb00044f7800b600370023
:1009f8001e4178000282fb004222dd001e4378007f
:100a08008682fb00e529b900820278000503e80028
:100a1800d507210085024300954278000583fb0035
:100a2800050c200085026300c22add000403420091
:100a38008400210004024300050a78009e427800e1
:100a48000582fb004222dd000402e8001e43780014
:100a58008682fb00e529b900820278000503e800d8
:100a6800d507210085024300954278000583fb00e5
:100a78000503200085026300c42add000403420048
:100a88008400210004024300050a78009e42780091
:100a98000582fb004222dd000482e8001e43780044
:100aa8008682fb00e529b900820278000503e80088
:100ab800d507210085024300954278008582fb0016
:100ac800ec826200c62add00040342008400210093
:100ad80004024300050a78009e4278000582fb0064
:100ae8004222dd00630242001e4378008682fb003a
:100af800e529b900820278000503e800d50721003e
:100b080085024300954278008582fb00e3826200fb
:100b1800c82add00040342008400210004024300c7
:100b2800050a78009e4278000582fb004222dd001b
:100b38001e4378008682fb00c22add00058342003e
:100b48008500210085024300150378009e43780044
:100b58008782fb00e529b900820278008583e800d6
:100b6800d507210085824300954278008582fb00e5
:100b7800850243000403420084002100040243006c
:100b8800050a78009e4278000582fb004222dd00bb
:100b98000402e8001e4378008682fb00c22add00ba
:100ba8008502e80005834200850021008502430094
:100bb800150378009e4378008782fb00e529b90079
:100bc80082027800e3834200d50721008582430032
:100bd800954278008582fb008502430004034200a9
:100be8008400210004024300050a78009e42780030
:100bf8000582fb004222dd000482e8001e437800e3
:100c08008682fb00c22add008582e8000583420057
:100c18008500210085024300150378009e43780073
:100c28008782fb00e529b90082027800e48342004c
:100c3800d507210085824300954278008582fb0014
:100c4800850243000403420084002100040243009b
:100c5800050a78009e4278000582fb004222dd00ea
:100c6800630242001e4378008682fb00c22add0030
:100c7800e38242000583420085002100850243008b
:100c8800150378009e4378008782fb008502e80000
:100c9800e529b90082037800d50721008582430041
:100ca800954278008582fb008502430004034200d8
:100cb8008400210004024300050a78000002eb00ca
:100cc800448388001e4fe8001e427800e54f52001a
:100cd80047ff3600bc0037000042eb00044f7800a5
:100ce800b60037009e4278000582fb004222dd00f4
:100cf8001e4378008682fb00e529b900820278004d
:100d08000503e800d50721008502430095427800d5
:100d18000583fb00050c200085026300c22add0064
:100d2800040342008403210004024300050a7800fa
:100d38009e4278000582fb004222dd000402e800a2
:100d48001e4378008682fb00e529b90082027800fc
:100d58000503e800d5072100850243009542780085
:100d68000583fb000503200085026300c42add001b
:100d7800040342008403210004024300050a7800aa
:100d88009e4278000582fb004222dd000482e800d2
:100d98001e4378008682fb00e529b90082027800ac
:100da8000503e800d5072100850243009542780035
:100db8008582fb00ec826200c62add000403420043
:100dc8008403210004024300050a78009e4278004b
:100dd8000582fb004222dd00630242001e437800c8
:100de8008682fb00e529b900820278000503e80045
:100df800d507210085024300954278008582fb00d3
:100e0800e3826200c82add00040342008403210053
:100e180004024300050a78009e4278000582fb0020
:100e28004222dd001e4378008682fb00c22add00d4
:100e380005834200850321008502430015037800dd
:100e48009e4378008782fb00e529b900820278007a
:100e58008583e800d5072100858243009542780004
:100e68008582fb00850243000403420084032100bd
:100e780004024300050a78009e4278000582fb00c0
:100e88004222dd000402e8001e4378008682fb004f
:100e9800c22add008502e80005834200850321009f
:100ea80085024300150378009e4378008782fb0083
:100eb800e529b90082027800e3834200d5072100c2
:100ec80085824300954278008582fb0085024300b5
:100ed800040342008403210004024300050a780049
:100ee8009e4278000582fb004222dd000482e80071
:100ef8001e4378008682fb00c22add008582e80056
:100f0800058342008503210085024300150378000c
:100f18009e4378008782fb00e529b90082027800a9
:100f2800e4834200d507210085824300954278007a
:100f38008582fb00850243000403420084032100ec
:100f480004024300050a78009e4278000582fb00ef
:100f58004222dd00630242001e4378008682fb00c5
:100f6800c22add00e3824200058342008503210096
:100f780085024300150378009e4378008782fb00b2
:100f88008502e800e529b90082037800d507210029
:100f980085824300954278008582fb0085024300e4
:100fa800040342008403210004024300050a780078
:100fb8000002eb00548388001e4fe8001e427800b0
:100fc800e54f520047ff3600248080000400a2004d
:100fd8002480880064002100144278000482fb0009
:100fe80070026200e00f52000700320001c1b30036
:100ff80070c0b300510107000042eb0004437800c1
:10100800c5072100864a7800640021001442780050
:101018000482fb006102620004427800e04f520043
:1010280004003200142ea90010ceb3007603070086
:10103800142ea8000042eb0004417800c7072100e5
:10104800824b78000288a9000080fa004f03be0096
:101058004f02be004f01be004f00be003600f9002f
:1010680000400600849fbe00861f78000000fa003a
:10107800768380003411800084427800c40b2100fc
:1010880004024300054a7800748380000402e800e3
:101098007483880074838000e80f520034003a009b
:1010a8000002eb0074838800c50b2100954278008c
:1010b80004cfb30004c2620004437800250721006e
:1010c800864a7800c40b2100144278006f426200ff
:1010d8000443780035072100864a7800d40b2100a4
:1010e800144278000443780045072100864a7800b6
:1010f800e40b2100144278000443780055072100ce
:10110800864a7800f40b21001442780004437800e2
:1011180065072100864a7800040c210014427800f3
:101128000443780075072100864a7800140c2100d2
:10113800144278000443780085072100864a780025
:10114800240c2100144278000443780095072100fc
:10115800864a7800340c2100144278000443780051
:10116800a5072100864a780014002000848388009f
:101178001411800064026200e00f52000100320086
:101188002242a9001411800062026200e00f52009e
:10119800010032002222a9000168a9000080fa009b
:1011a8004f0378004f02be00004006000000fa001e
:1011b8000188a9000080fa00004006000000fa003b
:1011c800ee020700104ea900102ea900100ea8006c
:1011d8000042eb000443780065002100864a78004d
:1011e800144ea900142ea8000080fa000000060082
:1011f8000800fa006047980071479800c1c4b3001e
:101208000040eb00cd000700144ea900142ea800e2
:1012180031c0b30050c0b300c800070061c0b300bc
:1012280060c0b300c5000700c1c4b3000040eb00b4
:10123800c2000700fe40900010c0b300bf000700c6
:1012480011c1b30040c0b300bc00070001c7b30020
:1012580070c0b300b90007006e4290000482fb0022
:10126800cfa2de005600200007002000860f5200a3
:10127800878f5a0061003e00040601000500370010
:1012880013003700210037002f0037003d003700da
:101298004b00370074ceb300444798004e4290008c
:1012a800344798003e429000244798002e42900010
:1012b800144798001e429000044f78000e007800f2
:1012c800350107000e0078002b0107004b0037009e
:1012d80024ccb300444798004e429000344798000d
:1012e8003e429000244798002e42900014479800f0
:1012f8001e429000044f78000e0078002601070077
:101308000e0078001c0107003c00370024ccb30015
:10131800444798004e429000344798003e4290005f
:10132800244798002e4290001447980034ccb3000c
:10133800044f78000e007800170107000e007800af
:101348000d0107002d00370024ccb3004447980056
:101358004e429000344798003e429000244798003f
:101368002e4290001447980044ccb300044f7800f4
:101378000e007800080107000e007800fe00070044
:101388001e00370024ccb300444798004e4290001a
:10139800344798003e429000244798002e4290001f
:1013a8001447980054ccb300044f78000e0078001e
:1013b800f90007000e007800ef0007000f00370063
:1013c80024ccb300444798004e429000344798001c
:1013d8003e429000244798002e42900014479800ff
:1013e80064ccb300044f78000e007800ea000700d0
:1013f8000e007800e0000700000000000042eb004b
:1014080004437800c5072100864a7800e1c4b30088
:101418000040eb00490007000080fa0000000600c9
:101428000200fa00004f780011479800d1c2b300bb
:101438000040eb0041000700144ea900142ea8003c
:1014480031c0b30050c0b3003c00070061c0b30016
:1014580060c0b3003900070001c2b3001e40780025
:10146800360007009e40900010c0b300330007000c
:10147800c1c2b3000040eb003000070051c2b30006
:1014880040c0b3002d00070001c7b30070c0b3000f
:101498002a00070020ceb3005b02070010ceb3007d
:1014a800590207000042eb0004437800c5072100f9
:1014b800864a7800f1c2b3000040eb001f00070025
:1014c8000080fa00000006000200fa00004f7800d1
:1014d80001c2b300d007210063000700000000002c
:1014e8006400210014427800e04f5200fcff3d00e8
:1014f80064002100144278000474a10004437800b9
:1015080065002100864a78006400210014427800b2
:101518008482fb000402200004826200e00f520073
:101528000200320014c0b300010037000042eb0093
:10153800044078000080fa00000006000200fa006b
:10154800004f780011479800142ea9001e42780019
:10155800ff42620004c2b30004c272000440780073
:10156800290207001e40900027020700142ea80039
:101578000080fa00000006000400fa0020479800e6
:10158800142ea9002e4290007f4262000440780089
:101598001d02070000c0eb001b0207000042780094
:1015a800044f7800142ea8001e42780004407800ea
:1015b8000080fa00000006000600fa00004f7800dc
:1015c8001107980042479800142ea9001e4278007f
:1015d800ff42620004c2b30004c2720004407800f3
:1015e80009020700ce4090001e0090002402070068
:1015f800142ea8000080fa00000006000200fa007d
:10160800004f7800144ea90014c0b30004437800ba
:10161800c5072100864a7800e1c4b3000040eb000a
:10162800c6ff0700142ea90010ceb300f60107006c
:10163800142ea800142ea90000cab300f201070056
:101648001e407800f0010700142ea800144ea800d0
:10165800c02b2000010020000f030700144ea90032
:101668000080fa00000006000400fa00000f78006d
:1016780021479800144ea90014c0b3000443780011
:10168800c5072100864a7800e1c4b3000040eb009a
:10169800aaff0700142ea90010ceb300da01070034
:1016a800142ea800142ea90000cab300d601070002
:1016b800ae4090001e007800f1010700142ea8002b
:1016c800144ea800c02b200001002000f2020700e1
:1016d800144ea9000080fa00000006000200fa007b
:1016e800144ea900142ea90010c6b300c6010700a5
:1016f80000427800044f780000c0eb00c2010700e8
:101708000042780014479800142ea80001c4b300c2
:1017180070c0b30089ff0700144ea8001e42900055
:10172800044078000080fa00000006000400fa0077
:1017380010079800142ea90010c6b300b2010700c4
:1017480000427800044f780002c2b3009e00900067
:101758001e009000dd010700142ea80001c4b3008c
:1017680070c0b30075ff07001e427800044078007f
:101778000080fa00000006000200fa00000f78005e
:1017880052c0b3009e007800a0c0b3008aff0700d3
:101798000080fa00000006000200fa00000f78003e
:1017a80052c0b3009e00780000c1b30082ff07005a
:1017b8000080fa00000006000000fa001dfc070087
:1017c8008d020700710207001a010700d701070000
:1017d800270107000b020700ff010700e8fb0700cd
:1017e8001dfc070004cab30004437800e50a210081
:1017f800864a780084838000e00f5200530032004c
:10180800250721009542780004c9b30084cf52000f
:1018180045003a0034072100144278000482fb0096
:101828006123b9000082eb008082eb0006024200cf
:1018380087824a004600200007002000860f5200d9
:10184800878f5a003e003e0004060100040037005e
:101858000600370014003700160037001a0037005a
:1018680014002000c4858800360037002288a800ac
:1018780052fe070011c0b3000040eb005cfe0700f9
:1018880000732500510020008302070024cab3001a
:1018980004437800d5072100864a780024002000f8
:1018a800c48588002700370034002000c4858800dc
:1018b8002400370013e1a80001eca8004400200030
:1018c800c48588001f00370054072100144278009f
:1018d800e34f52000f003a001fe1a80001eca800f6
:1018e8000002eb00648588006485800054858800c8
:1018f80054858000448588004485800034858800ac
:10190800348580002485880064002000c485880010
:101918000c0037001fe1a90001eca90054002000c9
:10192800c485880007003700002e2200210020000f
:10193800590207000002eb00748388000100370099
:10194800000000000002eb0084838800d48580003a
:10195800050020006600200007002000860f5200c6
:10196800878f5a0056003e00040601000600370023
:101978000b003700190037002d00370052003700e0
:10198800510037003e00370001eca90013e1a9001f
:101998002288a90054002000c48588004b00370025
:1019a8002288a90001eca90013e1a90014c0b30022
:1019b80004437800f50a2100864a780024c0b30061
:1019c80004437800050b2100864a7800420007008e
:1019d80054002000c48588003c0037000040eb001c
:1019e800b9fe070000427800e04f520004003a00b8
:1019f800007e26005103200027020700330037002d
:101a080024c0b30004437800f50a2100864a780010
:101a1800f4c0b30004437800050b2100864a78001f
:101a28002d00070054002000c485880027003700d7
:101a380034cab30004437800d5072100864a7800e9
:101a480001c2b300d007210007ff0700007325007b
:101a5800510020001002070011c0b30010c1b300ec
:101a68006ffe070000732500510020000a020700de
:101a7800144ea80054002000c485880013003700c5
:101a880074072100144278000482fb00c822dd009c
:101a980084072100144278000482fb00048242007b
:101aa8008402780064072100144278000482fb0055
:101ab80085007800040078005d0107000300370006
:101ac800000000000100370000000000c48580000d
:101ad800d485880047ff37000000fa00e40a210097
:101ae800144278008482fb00f40a21001442780032
:101af8000482fb00048242002411880000000000d8
:101b0800151180000410200004826200e00f5200ca
:101b1800fbff3200040b2100144278000482fb0012
:101b28002411880000000000151180000410200016
:101b380004826200e00f5200fbff3200140b210008
:101b4800144278000482fb00241188000000000081
:101b5800151180000410200004826200e00f52007a
:101b6800fbff3200240b2100144278000482fb00a2
:101b780024118800000000001511800004102000c6
:101b880004826200e00f5200fbff3200340b210098
:101b9800144278000482fb00241188000000000031
:101ba800151180000410200004826200e00f52002a
:101bb800fbff3200440b2100144278000482fb0032
:101bc8002411880000000000151180000410200076
:101bd80004826200e00f5200fbff3200540b210028
:101be800144278000482fb002411880000000000e1
:101bf800151180000410200004826200e00f5200da
:101c0800fbff3200640b2100144278000482fb00c1
:101c18002411880000000000151180000410200025
:101c280004826200e00f5200fbff32000080fa00dd
:101c3800000006000000fa000002eb0004708800b3
:101c48000002eb00747088000002eb00147088003a
:101c58000002eb00847088000002eb00f47088003a
:101c68000002eb00947088000080fa000000060073
:101c78000000fa0010aea80010cea90012cea800ed
:101c88002536800004f82f00848262005402200068
:101c980005027200243688002534800004fc2f00d9
:101ca800048262000400a0002434880021e2a90014
:101cb8002002a900041180000410a1000420a10042
:101cc8000411880020a2a900e4042000441188001f
:101cd80023a2a90023e2a900141180000460a10036
:101ce8000470a1001411880021e2a8002342a80072
:101cf8000080fa00000006000000fa00108ea8001c
:101d0800008ea9003536800004f82f008482620016
:101d18004402200005027200343688000534800031
:101d280004fc2f00048262003400b30004348800ed
:101d380031e2a9003002a900841180000410a1003a
:101d48000420a1008411880030a2a900e404200026
:101d5800c411880033a2a90033e2a90094118000bd
:101d68000460a1000470a1009411880031e2a80069
:101d78003342a8000080fa00000006000000fa00c4
:101d880010eea900110ea900112ea8000002eb0008
:101d98004412880041e2a90041a2a900041280006f
:101da8000480a1000490a10004a0a10004128800ee
:101db80040c2a9004382a9004362a9004342a90086
:101dc8004322a8004302a80042c2a90042a2a800d8
:101dd800141280000420a0000430a0000440a000d9
:101de80014128800141280000400a1000410a1003d
:101df8001412880045e2a9004402a90041e2a800a3
:101e08000080fa00000006000200fa00004f780087
:101e18009e4278000582fb00441288000000000002
:101e28000412800061026200e00f5200fcff3200e1
:101e38004412800004427800044078000080fa00d0
:101e4800000006000200fa00000f78004342a800d4
:101e58001e0278004412880000000000041280006e
:101e680061026200e00f5200fcff32004412800061
:101e780004427800044078000080fa000000060060
:101e88000400fa00000f7800214798000800370086
:101e98001e0278001442780004407800daff070038
:101ea8002e4290000442e900244798001e0fe800e3
:101eb8002e429000e04f5200f5ff3a0014c0b300e4
:101ec800044078000080fa00000006000600fa00ce
:101ed800000f780011079800424798000e0037005d
:101ee8001e0278001442780004407800c6ff0700fc
:101ef800004278009e029000844a78004e4290008a
:101f08000442e900444798001e0fe8001e029000b2
:101f18000402e800140798004e429000e04f520077
:101f2800efff3a000080fa00000006000000fa0007
:101f380001eca90001aca900016ca900010ca900e1
:101f480000eca900146080000400a0000410a100a7
:101f58000420a10014608800210ca800206ca900ae
:101f6800204ca900202ca900200ca9000002eb009d
:101f780004638800046380000462880023eca800de
:101f880023cca90023aca9001461800004a0a100ff
:101f980004b0a100146188000002eb0014638800fb
:101fa80014638000146288003400200024638800d1
:101fb80024638000246288002462800024618800f1
:101fc80004802000246088000420200054608800d9
:101fd8000080fa00000006000000fa000002eb0092
:101fe8005408880074b5210074088800940880009b
:101ff8000440a1000450a100940888000080fa0061
:10200800000006000000fa000002eb00a4088800a7
:1020180074b52100d4088800f40880000440a100a9
:102028000450a100f40888000080fa0000000600af
:102038000400fa00000f780011079800048580005a
:10204800e00f5200240032000002eb0004858800f3
:10205800248580000402e8002485880005e120002a
:102068001e029000110009008482d8000002780046
:102078008402780024858000848f520016003e0078
:1020880054858000e00f520003003a00340020001d
:102098001485880002003700240020001485880079
:1020a800548580000402e800548588005485800027
:1020b8009e0f520002003a000002eb00548588008f
:1020c8000002eb00f48488000002eb0034858800ed
:1020d8000002eb00248588000080fa00000006005a
:1020e800849fbe000000fa00f5848000741120006f
:1020f800848f520014003e00348580008402420020
:10210800c42f28000482420014027800546088001a
:10211800358580001485800004824200348588005b
:102128003585800034062000848f52000200360076
:102138000002eb0034858800f48480000402e80083
:10214800f4848800020037000440200054608800ae
:10215800448580000402e8004485880045858000a5
:10216800c4142000848f520004003600140020009c
:10217800048588000002eb00448588000368a900f4
:102188000080fa004f02be00004006000000fa007e
:1021980040a7a900143a80000480a0000490a10080
:1021a80004a0a100143a880042e7a90042c7a90088
:1021b8004207a80000000000153a8000040027002c
:1021c8008482620004002100848f5200faff3a00e2
:1021d8004fe7a8004f87a900743a80000480a10047
:1021e8000490a10004a0a10004b0a100743a8800e2
:1021f8000080fa00000006000000fa0045e7a90088
:102208004587a90045a7a90045c7a9004567a900b2
:102218004507a9004527a9004547a90044c7a900c3
:1022280044e7a9004407a9004427a9004447a90096
:102238004467a9004487a900353a800004e02f00cc
:1022480084826200a404200005027200343a8800e7
:082258000080fa0000000600fe
:020000040000fa
:10226000001000007c00000080000000ae100000a4
:102270000e00000080000000bc10000008000000fc
:10228000800000007c1000002200000080000000a0
:102290009e10000010000000800000000000000000
:020000040000fa
:1022a000f03fb1000180b10006003500ee030900e7
:1022b00000000000403fb1000180b100fbff3d0085
:1022c0001000b000203fb00002003500008009007f
:0822d000000000000000060000
:020000040000fa
:04afe000cfff00009f
:020000040000fa
:04afe400ffff00006b
:020000040000fa
:04afe8007fff0000e7
:020000040000fa
:04afec007fff0000e3
:020000040000fa
:04aff000f9ff000065
:020000040000fa
:04aff400cfff00008b
:00000001FF
