:020000040000fa
:080000000002040000000000f2
:020000040000fa
:10000800d2020000d8020000f4020000de02000064
:10001800e4020000ea020000f8020000f00200001a
:10002800f0020000f0020000f0020000f002000000
:10003800f0020000f0020000f0020000f0020000f0
:1000480060030000f0020000f0020000f00200006f
:10005800f0020000f0020000f0020000f0020000d0
:10006800f0020000f0020000f0020000f0020000c0
:10007800d8030000f0020000f0020000f0020000c7
:10008800f0020000f0020000f0020000f0020000a0
:10009800f0020000f0020000f0020000f002000090
:1000a800f0020000f0020000f0020000f002000080
:1000b800f0020000f0020000f0020000f002000070
:1000c800f0020000f0020000f0020000f002000060
:1000d800f0020000f0020000f0020000f002000050
:1000e800f0020000f0020000f0020000f002000040
:1000f800f0020000f0020000f0020000f002000030
:10010800f0020000f0020000f0020000f00200001f
:10011800f0020000f0020000f0020000f00200000f
:10012800f0020000f0020000f0020000f0020000ff
:10013800f0020000f0020000f0020000f0020000ef
:10014800f0020000f0020000f0020000f0020000df
:10015800f0020000f0020000f0020000f0020000cf
:10016800f0020000f0020000f0020000f0020000bf
:10017800f0020000f0020000f0020000f0020000af
:10018800f0020000f0020000f0020000f00200009f
:10019800f0020000f0020000f0020000f00200008f
:1001a800f0020000f0020000f0020000f00200007f
:1001b800f0020000f0020000f0020000f00200006f
:1001c800f0020000f0020000f0020000f00200005f
:1001d800f0020000f0020000f0020000f00200004f
:1001e800f0020000f0020000f0020000f00200003f
:1001f800f0020000f0020000f0020000f00200002f
:10020800f0020000f0020000f0020000f00200001e
:10021800f0020000f0020000f0020000f00200000e
:10022800f0020000f0020000f0020000f0020000fe
:10023800f0020000f0020000f0020000f0020000ee
:10024800f0020000f0020000f0020000f0020000de
:10025800f0020000f0020000f0020000f0020000ce
:10026800f0020000f0020000f0020000f0020000be
:0c027800f0020000f0020000f0020000a4
:020000040000fa
:100400000f0921000eff21000e01880000000000ee
:10041000000020000000e000020032000001200087
:10042000200288000c000700e0cf2000010020001f
:100430000f000700000020000000e0000200320072
:100440000000020000000000be0c020000000000de
:100450000040da000000fe00200020000000e00064
:100460000200320010002000900188000000060009
:10047000a1028800800078000000eb001a0037001d
:10048000e280400054a0b4009101ba00e280400034
:1004900054a0b4009102ba00e280400054a0b4001d
:1004a0000002eb00472bde00f507b200a601880032
:1004b000602ce10008003a000049eb000201e8006e
:1004c000020039003420ec0002f0a0008301e900b2
:1004d000f9ff3e00040037006128e100010032000e
:1004e0000082eb00040007001101ba000200e000e6
:1004f000e3ff3a000000060004d0a300e20f490029
:100500001c003900810278003549ba000201e80078
:10051000020039003420ec0002f0a0008301e90061
:100520000f0032002549ba000201e800020039003c
:100530003420ec0002f0a0008301e9000800320042
:100540000400e0000600320015c9ba000201e8000c
:10055000020039003420ec0002f0a0008301e90021
:100560008180e80054a0b4000300e000e2ff3a00fc
:10057000000006009102ba00055978008301e900e5
:10058000f7ff3200c82ade00055978008301e90030
:10059000f3ff32000400e000f1ff320011d9ba008d
:1005a000eeff37000000fa00c028a900ffff370067
:1005b0000000fa00c068a900ffff37000000fa0041
:1005c000c048a900ffff37000000fa00c088a9005a
:1005d000ffff37000000fa00c0a8a900ffff3700a6
:1005e0000000fa00ffff37000000fa00ffff3700ad
:0805f0000000fa00ffff3700d4
:020000040000fa
:1005f8000000fa000002eb00044688000002eb004d
:10060800244688000002eb0034468800c1e8a900af
:1006180005358000f40f280084826200040022005f
:100628000502720004358800c228a8000288a900c3
:10063800544280000400a0000410a1000420a0007f
:10064800544288002288a800244280000400a000a8
:100658000410a0000420a000244288000108a9007a
:100668002108a8000080fa00000006000000fa0037
:10067800140280000450a0000460a0000470a000d0
:1006880014028800c3e8a9000080fa0000000600f0
:100698000000fa00140280000450a1000460a100c8
:1006a8000470a100140288004460a900c3e8a800ef
:1006b8000080fa0000000600849fbe00861f7800b4
:1006c8000000fa000560800004002800048262002f
:1006d800e00f52002400320064838000e00f5200d3
:1006e80011003a0044838000840242008400210003
:1006f8000482420014027800040242005460880018
:10070800448380000402e800448388004483800016
:10071800f80f520014003a00648380000400a2001d
:1007280064838800100037005483800084024200ec
:10073800840321000482420014027800040242006b
:1007480054608800548380000402e80054838800c1
:1007580054838000f80f520003003a00648380003d
:100768000400a20064838800648380000442780047
:10077800614262000482fb00610262004222dd00e5
:1007880026708000b5ff2f00850263000502720005
:10079800247088000108a9000080fa004f0378003f
:1007a8004f02be00004006003600f800809fbe00e1
:1007b800829fbe00849fbe00869fbe000200fa0092
:1007c800247080006202620004f0a7000402ea00bc
:1007d8000402e9004f22de00044278000482fb0094
:1007e800610262000402420026708000d5ff2f00db
:1007f800850263000502720024708800142ea90087
:1008080000c0eb00a90307000042780005c8b30048
:100818000542720084427800620021000549780090
:10082800142ea80064002100144278008482fb0082
:100838000402200004826200e00f52000700320028
:1008480001c2b30070c0b3008e0207000042eb0083
:1008580084437800e6062100074b780064002100f5
:10086800144278008482fb000404200004826200a1
:10087800e00f520083013200f0062100fd0207005c
:1008880024808000e00f5200bd003a000042eb00d7
:10089800044f7800b60037001e4178000282fb0042
:1008a8004222dd001e4378008682fb00e529b9005c
:1008b800820278000503e800f5062100850243005e
:1008c800954278000583fb00050c20008502630033
:1008d800c22add0004034200840021000402430010
:1008e800050a78009e4278000582fb004222dd005e
:1008f8000402e8001e4378008682fb00e529b9005f
:10090800820278000503e800f5062100850243000d
:10091800954278000583fb000503200085026300eb
:10092800c42add00040342008400210004024300bd
:10093800050a78009e4278000582fb004222dd000d
:100948000482e8001e4378008682fb00e529b9008e
:10095800820278000503e800f506210085024300bd
:10096800954278008582fb00ec826200c62add0091
:10097800040342008400210004024300050a7800b1
:100988009e4278000582fb004222dd00630242009d
:100998001e4378008682fb00e529b90082027800b0
:1009a8000503e800f506210085024300954278001a
:1009b8008582fb00e3826200c82add00040342004e
:1009c8008400210004024300050a78009e42780052
:1009d8000582fb004222dd001e4378008682fb0070
:1009e800c22add00058342008500210085024300fc
:1009f800150378009e4378008782fb00e529b9003b
:100a0800820278008583e800f5062100858243008c
:100a1800954278008582fb0085024300040342006a
:100a28008400210004024300050a78009e427800f1
:100a38000582fb004222dd000402e8001e43780024
:100a48008682fb00c22add008502e8000583420099
:100a58008500210085024300150378009e43780035
:100a68008782fb00e529b90082027800e38342000f
:100a7800f506210085824300954278008582fb00b7
:100a8800850243000403420084002100040243005d
:100a9800050a78009e4278000582fb004222dd00ac
:100aa8000482e8001e4378008682fb00c22add002b
:100ab8008582e80005834200850021008502430005
:100ac800150378009e4378008782fb00e529b9006a
:100ad80082027800e4834200f50621008582430003
:100ae800954278008582fb0085024300040342009a
:100af8008400210004024300050a78009e42780021
:100b08000582fb004222dd00630242001e4378009a
:100b18008682fb00c22add00e38242000583420090
:100b28008500210085024300150378009e43780064
:100b38008782fb008502e800e529b9008203780076
:100b4800f506210085824300954278008582fb00e6
:100b5800850243000403420084002100040243008c
:100b6800050a78000002eb00448388001e4fe80065
:100b78001e427800e54f520047ff3600bc003700a0
:100b88000042eb00044f7800b60037009e42780020
:100b98000582fb004222dd001e4378008682fb00ae
:100ba800e529b900820278000503e800f50621006e
:100bb80085024300954278000583fb00050c200060
:100bc80085026300c22add00040342008403210079
:100bd80004024300050a78009e4278000582fb0063
:100be8004222dd000402e8001e4378008682fb00f2
:100bf800e529b900820278000503e800f50621001e
:100c080085024300954278000583fb000503200018
:100c180085026300c42add00040342008403210026
:100c280004024300050a78009e4278000582fb0012
:100c38004222dd000482e8001e4378008682fb0021
:100c4800e529b900820278000503e800f5062100cd
:100c580085024300954278008582fb00ec826200a1
:100c6800c62add0004034200840321000402430075
:100c7800050a78009e4278000582fb004222dd00ca
:100c8800630242001e4378008682fb00e529b90012
:100c9800820278000503e800f5062100850243007a
:100ca800954278008582fb00e3826200c82add0055
:100cb800040342008403210004024300050a78006b
:100cc8009e4278000582fb004222dd001e43780028
:100cd8008682fb00c22add000583420085032100cd
:100ce80085024300150378009e4378008782fb0045
:100cf800e529b900820278008583e800f50621001d
:100d080085824300954278008582fb008502430076
:100d1800040342008403210004024300050a78000a
:100d28009e4278000582fb004222dd000402e800b2
:100d38001e4378008682fb00c22add008502e80097
:100d480005834200850321008502430015037800ce
:100d58009e4378008782fb00e529b900820278006b
:100d6800e3834200f506210085824300954278001e
:100d78008582fb00850243000403420084032100ae
:100d880004024300050a78009e4278000582fb00b1
:100d98004222dd000482e8001e4378008682fb00c0
:100da800c22add008582e800058342008503210010
:100db80085024300150378009e4378008782fb0074
:100dc800e529b90082027800e4834200f506210093
:100dd80085824300954278008582fb0085024300a6
:100de800040342008403210004024300050a78003a
:100df8009e4278000582fb004222dd006302420029
:100e08001e4378008682fb00c22add00e38242008e
:100e180005834200850321008502430015037800fd
:100e28009e4378008782fb008502e800e529b90027
:100e380082037800f50621008582430095427800f8
:100e48008582fb00850243000403420084032100dd
:100e580004024300050a78000002eb00548388006e
:100e68001e4fe8001e427800e54f520047ff36004b
:100e7800248080000400a2002480880001eca800df
:100e880013e1a80064002100144278000482fb00ea
:100e980070026200e00f52000700320001c1b30087
:100ea80070c0b300f70007000042eb00044378006d
:100eb800e5062100864a7800640021001442780083
:100ec8000482fb006102620004427800e04f520095
:100ed80004003200142ea90010ceb300f30107005d
:100ee800142ea8000288a9000080fa004f03be0053
:100ef8004f02be004f01be004f00be003600f90091
:100f0800004006000000fa00c5010700104ea900c5
:100f1800102ea900100ea8000042eb000443780030
:100f280065002100864a7800144ea900142ea800f6
:100f38000080fa00000006000800fa0060479800e8
:100f480071479800c1c4b3000040eb00cd00070012
:100f5800144ea900142ea80031c0b30050c0b3002d
:100f6800c800070061c0b30060c0b300c500070037
:100f7800c1c4b3000040eb00c2000700fe4090006f
:100f880010c0b300bf00070011c1b30040c0b300d8
:100f9800bc00070001c7b30070c0b300b900070068
:100fa8006e4290000482fb00cfa2de0056002000b3
:100fb80007002000860f5200878f5a0061003e000c
:100fc8000406010005003700130037002100370030
:100fd8002f0037003d0037004b00370074ceb300b8
:100fe800444798004e429000344798003e42900093
:100ff800244798002e429000144798001e42900003
:10100800044f78000e007800350107000e007800c4
:101018002b0107004b00370024ccb300444798004d
:101028004e429000344798003e4290002447980072
:101038002e429000144798001e429000044f7800fa
:101048000e007800260107000e0078001c0107003a
:101058003c00370024ccb300444798004e4290002f
:10106800344798003e429000244798002e42900052
:101078001447980034ccb300044f78000e00780071
:10108800170107000e0078000d0107002d0037003a
:1010980024ccb300444798004e429000344798004f
:1010a8003e429000244798002e4290001447980032
:1010b80044ccb300044f78000e0078000801070004
:1010c8000e007800fe0007001e00370024ccb30095
:1010d800444798004e429000344798003e429000a2
:1010e800244798002e4290001447980054ccb3002f
:1010f800044f78000e007800f90007000e00780011
:10110800ef0007000f00370024ccb30044479800d5
:101118004e429000344798003e4290002447980081
:101128002e4290001447980064ccb300044f780016
:101138000e007800ea0007000e007800e0000700c3
:10114800000000000042eb0004437800e50621009f
:10115800864a7800e1c4b3000040eb00490007006c
:101168000080fa00000006000200fa00004f780034
:1011780011479800d1c2b3000040eb0041000700be
:10118800144ea900142ea80031c0b30050c0b300fb
:101198003c00070061c0b30060c0b300390007001d
:1011a80001c2b3001e407800360007009e40900040
:1011b80010c0b30033000700c1c2b3000040eb0009
:1011c8003000070051c2b30040c0b3002d00070033
:1011d80001c7b30070c0b3002a00070020ceb300d7
:1011e8003201070010ceb300300107000042eb00c7
:1011f80004437800e5062100864a7800f1c2b3006e
:101208000040eb001f0007000080fa000000060005
:101218000200fa00004f780001c2b300f006210076
:1012280063000700000000006400210014427800f9
:10123800e04f5200fcff3d0064002100144278009a
:101248000474a1000443780065002100864a7800f0
:1012580064002100144278008482fb00040220000c
:1012680004826200e00f52000200320014c0b30092
:10127800010037000042eb00044078000080fa00cb
:10128800000006000200fa00004f7800114798009d
:10129800142ea9001e427800ff42620004c2b30067
:1012a80004c2720004407800000107001e4090004c
:1012b800fe000700142ea8000080fa0000000600b7
:1012c8000400fa0020479800142ea9002e4290002e
:1012d8007f42620004407800f400070000c0eb0081
:1012e800f200070000427800044f7800142ea8008e
:1012f8001e427800044078000080fa0000000600d2
:101308000600fa00004f780011079800424798003d
:10131800142ea9001e427800ff42620004c2b300e6
:1013280004c2720004407800e0000700ce4090003c
:101338001e009000fb000700142ea8000080fa0091
:10134800000006000200fa00004f7800144ea900c1
:1013580014c0b30004437800e5062100864a7800eb
:10136800e1c4b3000040eb00c6ff0700142ea9003b
:1013780010ceb300cd000700142ea800142ea9002b
:1013880000cab300c90007001e407800c700070064
:10139800142ea800144ea800c02b20000100200025
:1013a80086010700144ea9000080fa00000006001c
:1013b8000400fa00000f780021479800144ea90095
:1013c80014c0b30004437800e5062100864a78007b
:1013d800e1c4b3000040eb00aaff0700142ea900e7
:1013e80010ceb300b1000700142ea800142ea900d7
:1013f80000cab300ad000700ae4090001e007800a0
:10140800c8000700142ea800144ea800c02b200006
:101418000100200069010700144ea9000080fa00ad
:10142800000006000200fa00144ea900142ea900bc
:1014380010c6b3009d00070000427800044f7800f2
:1014480000c0eb009900070000427800144798009c
:10145800142ea80001c4b30070c0b30089ff0700b0
:10146800144ea8001e429000044078000080fa0044
:10147800000006000400fa0010079800142ea900c6
:1014880010c6b3008900070000427800044f7800b6
:1014980002c2b3009e0090001e009000b400070036
:1014a800142ea80001c4b30070c0b30075ff070074
:1014b8001e427800044078000080fa000000060010
:1014c8000200fa00000f780052c0b3009e007800b6
:1014d800a0c0b3008aff07000080fa0000000600e1
:1014e8000200fa00000f780052c0b3009e00780096
:1014f80000c1b30082ff07000080fa000000060068
:101508000000fa000002eb00047088000002eb0003
:10151800747088000002eb00147088000002eb0071
:10152800847088000002eb00f47088000002eb0071
:10153800947088000080fa00000006000000fa009d
:1015480010aea80010cea90012cea8002536800043
:1015580004f82f0084826200540220000502720001
:10156800243688002534800004fc2f0004826200a1
:101578000400a0002434880021e2a90021a2a900c7
:101588002182a900041180000480a1000490a10018
:101598000411880020c2a90020a2a9002082a80066
:1015a8002062a900041180000410a1000420a100f9
:1015b800041188002002a90023a2a90022e2a900a0
:1015c80023c2a8002342a900141180000460a100ce
:1015d8000470a1001411880022a2a900741c200024
:1015e800441188000080fa00000006000200fa009a
:1015f800004f78009e4278000582fb002411880085
:101608000000000015118000041020000482620010
:10161800e00f5200fbff32000080fa0000000600d5
:101628000000fa0010eea900110ea900112ea80062
:101638000002eb004412880041e2a90041a2a9007f
:10164800041280000480a1000490a10004a0a1005d
:101658000412880040c2a9004382a9004362a9007d
:101668004342a9004322a8004302a80042c2a9009d
:1016780042a2a800141280000420a0000430a00098
:101688000440a00014128800141280000400a10075
:101698000410a1001412880045e2a9004402a90020
:1016a80041e2a8000080fa00000006000200fa00eb
:1016b800004f78009e4278000582fb0044128800a3
:1016c800000000000412800061026200e00f520076
:1016d800fcff320044128000044278000440780085
:1016e8000080fa00000006000200fa00000f7800ef
:1016f8004342a8001e02780044128800000000003f
:101708000412800061026200e00f5200fcff320008
:101718004412800004427800044078000080fa00f7
:10172800000006000400fa00000f78002147980026
:10173800080037001e027800144278000440780040
:10174800daff07002e4290000442e900244798007f
:101758001e0fe8002e429000e04f5200f5ff3a00bd
:1017680014c0b300044078000080fa0000000600ae
:101778000600fa00000f7800110798004247980009
:101788000e0037001e0278001442780004407800ea
:10179800c6ff0700004278009e029000844a780045
:1017a8004e4290000442e900444798001e0fe800aa
:1017b8001e0290000402e800140798004e429000b0
:1017c800e04f5200efff3a000080fa0000000600e8
:1017d8000000fa0001eca90001aca900016ca90005
:1017e800010ca90000eca900146080000400a0000e
:1017f8000410a1000420a10014608800210ca80096
:10180800206ca900204ca900202ca900200ca900bc
:101818000002eb000463880004638000046288000f
:1018280023eca80023cca90023aca90014618000f4
:1018380004a0a10004b0a100146188000002eb001c
:101848001463880014638000146288003400200048
:101858002463880024638000246288002462800056
:10186800246188000480200024608800042020006f
:10187800546088000080fa00000006000000fa00aa
:101888000002eb00540888006411210074088800e5
:10189800940880000440a1000450a1009408880026
:1018a8000080fa00000006000000fa0040a7a90026
:1018b800143a80000480a0000490a10004a0a100b4
:1018c800143a880042e7a90042c7a9004207a800c5
:1018d80000000000153a800004002700848262009e
:1018e80004002100848f5200faff3a004fe7a80055
:1018f8004f87a900743a80000480a1000490a100d9
:1019080004a0a10004b0a100743a88000080fa0085
:10191800000006000000fa0045e7a9004587a90075
:1019280045a7a90045c7a9004567a9004507a9001b
:101938004527a9004547a90044c7a90044e7a900cd
:101948004407a9004427a9004447a9004467a900ff
:101958004487a900353a800004e02f0084826200a1
:10196800a404200005027200343a88000080fa00be
:10197800000006000000fa003cfb0700e5ff070036
:10198800c9ff070092ff0700ddfe0700bbff070045
:101998005cfd070011c0b30010c1b300f2fd0700e1
:1019a80000732500510020000400070010fb070009
:0c19b80037fb0700144ea800ffff3700ab
:020000040000fa
:1019c400f03fb1000180b10006003500ee030900cc
:1019d40000000000403fb1000180b100fbff3d006a
:1019e4001000b000203fb000020035000080090064
:0819f4000000000000000600e5
:020000040000fa
:1019fc00001000006e000000800000006e1000005f
:0c1a0c002200000080000000000000002c
:020000040000fa
:04afe000cfff00009f
:020000040000fa
:04afe400ffff00006b
:020000040000fa
:04afe8007fff0000e7
:020000040000fa
:04afec007fff0000e3
:020000040000fa
:04aff000f9ff000065
:020000040000fa
:04aff400cfff00008b
:00000001FF
