:020000040000FA
:100000000F28FF3FFF3FFF3FFE00030EF0000408F4
:10001000F1000A08F20083127F08F300D52D142E98
:10002000791C1328142816288312BB018312851902
:100030001A281B28B0280130AE0700300318013001
:10004000AF07003003180130B0070030031801304B
:10005000B1073108803AFF000030803A7F02031D6B
:100060003B2800303002031D3B2802302F02031DC5
:100070003B2859302E02031C3E283F2848280030D8
:10008000B1000030B0000130AF002C30AE00482885
:100090003108803AFF000030803A7F02031D5A2861
:1000A00000303002031D5A2800302F02031D5A2849
:1000B00038302E02031C5D285E286828F8080319D2
:1000C00062286528831205146728831205106828A2
:1000D0003108803AFF000030803A7F02031D7A2801
:1000E00000303002031D7A2800302F02031D7A28C9
:1000F000FB302E02031C7D287E28FA2879188128DF
:1001000082289B28051479140330F5007508BB007C
:10011000FA289B2805143C30F424831205103C3047
:10012000F424831205143C30F424831205103C306F
:10013000F42464009B288312851D9F28A0288A2808
:10014000A1280630F5007508BB000030B100003072
:10015000B0000030AF000030AE00FA28FA28FA28CC
:100160003108803AFF000030803A7F02031DC22828
:1001700000303002031DC22800302F02031DC228A8
:1001800047302E02031CC528C628F1283108803AC2
:10019000FF000030803A7F02031DD8280030300273
:1001A000031DD82801302F02031DD8282C302E0221
:1001B0000318DB28DC28F1287918DF28E028E72855
:1001C000051479140330F5007508BB00F128791C7B
:1001D000EA28EB28F1280430F5007508BB00F12867
:1001E000F1280030B1000030B0000030AF00003026
:1001F000AE00FA2808008312BB010314BB0DB40142
:1002000005303402031C0529062908291F291F2946
:100210003408833E84000023AA002A08A300A40116
:100220003408393E782501308312AA002A08B40721
:1002300005303402031C1D291E2908291F291030EE
:10024000AA002A08A300A4013630782575290130B8
:100250008312AA002A08B5070130AA002A08B607A7
:1002600035080A3A031D352936293729B50185197C
:100270003A293B2944291430AA002A08B600043040
:10028000AA002A08BB00442905143230F424831242
:1002900005103230F424831205143230F424831212
:1002A00005103230F4246430F4246430F4246430D3
:1002B000F4246430F4246430F4246430F42464308E
:1002C000F4246430F4246430F4246430F42464307E
:1002D000F4246430F4246430F4246430F42464306E
:1002E000F4246430F42464007529F8250038031DD3
:1002F0007A297B298429143083123602031C812930
:10030000822927298429842914308312360203186C
:100310008A298B29CB29B40105303402031C912989
:1003200092299429AC29AC293408393E013E840035
:100330000023AA002A08A300A4013408393E782526
:1003400001308312AA002A08B40705303402031CC6
:10035000AA29AB299429AC29A3010314A30DA40154
:100360003E307825C2298312A3010314A30DA401F2
:100370003E307825831205146430F424831205106E
:100380006430F4243E30F323023A0319C829C92902
:10039000B329CB29CB29080083128514B030A600DD
:1003A0002608A8000730A6002608A300A40103140D
:1003B000A40D2808782526308312A6002608A3005D
:1003C000A4010314A40D0130A7002708A8072808DA
:1003D000782514308312A6002608A300A401031474
:1003E000A40D0130A7002708A80728087825831244
:1003F000A3010314A30DA4010314A40D0130A6004E
:100400002608A8072808782523308312A600260886
:10041000A300A4010314A40D0130A7002708A80716
:100420002808782590308312A6002608A300A4018E
:100430000314A40D0130A7002708A8072808782571
:100440008312A301A4010314A40D0130A600260801
:10045000A807280878258312A301A4010314A40D7A
:100460000130A6002608A8072808782591308312B5
:10047000A6002608A300A4010314A40D0130A700C0
:100480002708A807280878258312A301A4010314CC
:10049000A40D0130A6002608A80728087825831295
:1004A000A301A4010314A40D0130A6002608A80787
:1004B00028087825E1308312A6002608A300A401AD
:1004C0000314A40D0130A7002708A80728087825E1
:1004D0008312A301A4010314A40D0130A600260871
:1004E000A8072808782550308312A6002608A30004
:1004F000A4010314A40D0130A7002708A8072808A9
:10050000782502308312A6002608A300A401031454
:10051000A40D0130A7002708A8072808782508009F
:10052000342D322D362D382D3A2D4D2D3C2DFF3FBB
:10053000FF3FFF3FFF3FFF3FFF3FFF3FFF3FFF3FCB
:10054000FF3FFF3FFF3FFF3FFF3FFF3FFF3FFF3FBB
:10055000FF3FFF3FFF3FFF3FFF3FFF3FFF3FFF3FAB
:10056000FF3FFF3FFF3FFF3FFF3FFF3FFF3FFF3F9B
:10057000FF3FFF3FFF3FFF3FFF3FFF3FFF3FFF3F8B
:10058000FF3FFF3FFF3FFF3FFF3FFF3FFF3FFF3F7B
:10059000FF3FFF3FFF3FFF3FFF3FFF3FFF3FFF3F6B
:1005A000FF3FFF3FFF3FFF3FFF3FFF3FFF3FFF3F5B
:1005B000FF3FFF3FFF3FFF3FFF3FFF3FFF3FFF3F4B
:1005C000FF3FFF3FFF3FFF3FFF3FFF3FFF3FFF3F3B
:1005D000FF3FFF3FFF3FFF3FFF3FFF3FFF3FFF3F2B
:1005E000FF3FFF3FFF3FFF3FFF3FFF3FFF3FFF3F1B
:1005F000FF3FFF3FFF3FFF3FFF3FFF3FFF3FFF3F0B
:1006000003308A000408840A82070034003451341D
:10061000003400340034003400340034003400343A
:10062000003400341F343B34113404342D34493445
:10063000003400340034003400340034003400341A
:10064000003400340034003400340034003400340A
:1006500000340034003400340034003400340034FA
:1006600000340034003400340034003400340034EA
:100670000034023406340334003400340034AB3424
:1006800031343E343F343A340034003400340034E2
:1006900000340034003400340034003400340334B7
:1006A00000340034003400340034003400340034AA
:1006B0000634003480340034033400340034003411
:1006C000003400340034003400340034003400348A
:1006D000003400340034003400340034003400347A
:1006E000003400340034003400340034003400346A
:1006F000003400340034003400340034003400345A
:1007000000340034003400340034003420348334A6
:100710005D346C347B348A34903483120710871034
:100720000000000000000000000000008312AD0186
:1007300082302D02031C9D2B9E2BA02BF22BF22B23
:10074000640083122D08A8002808AB002D08803A09
:10075000031DAB2BAC2BB02B4A30A8002808AB00F4
:100760002D08813A031DB52BB62BBA2B5A30A800A1
:100770002808AB002B08A8002808AA002D08013E75
:1007800084000023A8002808AC002C08A800280832
:10079000A9002C08031DCD2BE72B2C08A800280846
:1007A000A300A4012B08782583122A08F3238312BF
:1007B000A8002808AC002C0829060319E02BE12B1F
:1007C000E72B2D08FF3EA8002808AD00E72B0130DD
:1007D000A8002808AD0782302D02031CF02BF12B56
:1007E000A02BF22B08008312A500071000000000C8
:1007F0000000000000000000831225088038A300DC
:100800002308A5000130F424831287110130F42459
:10081000831225084D240130F4248312A701A60178
:1008200008302602031C152C162C182C432C432CA4
:100830002708A3002307A4002408A7000000000045
:1008400000000000000000008312071400000000F8
:1008500000000000000000008312071D302C312C26
:10086000372C2708013EA3002308A700372C0710C8
:100870000130A3002308A60708302602031C412CE0
:10088000422C182C432C0130F4248312871501309C
:10089000F424831227084C2C08008312A000A10125
:1008A00008302102031C552C562C582C872C872CE1
:1008B000A01F5B2C5C2C5E2C87145F2C8710000023
:1008C0000000000000000000000083120714000078
:1008D000000000000000000000008312071000006C
:1008E0000000000000000000000083122008F40057
:1008F0007407F5007508A0000130F4007408A10722
:1009000008302102031C852C862C582C872C0800CB
:100910008312A0002008023E840083130008A10077
:10092000840A0008A200220821040319982C992C9B
:10093000BD2C83160C1077088312B301B307760819
:10094000B201B20783160C14831220088400000839
:10095000F400840A0008F5007408B2027508031C4C
:10096000B303B30222083302031DB82C210832025C
:10097000003003180130BF2CBF2C0030BF2C080002
:100980008312A00083160C108312200884007608BE
:1009900083138000840A7708800083160C140130CA
:1009A000F4070318F50A0030F50701300310F50CC1
:1009B000F40CFF3E031DD62C013074067504031D94
:1009C000E22CE32CEA2C0130F4070318F50A00307E
:1009D000F507EA2C83122008023E84007408800088
:1009E000840A7508800008008312A0003230F400E9
:1009F0007408A1001030F4007408A2001C2D102D02
:100A0000042D0130A102042DA108031D082D092D7C
:100A1000012D0A2D0130A2023230F4007408A10029
:100A2000A208031D142D152D042D162D0830F400D9
:100A30007408A2000130A002A008031D202D212D62
:100A4000102D222D0800640037308824003A031945
:100A50002A2D2B2D4D2D0630F4000030F5003730B7
:100A6000C024402D10204D2D4E254D2D21264D2DDD
:100A70004A264D2DBD254D2DFB204D2D4D2D4D2DA7
:100A800083123B0884000730040203184D2D023006
:100A90008A009030040782004D2D08008312BC08A4
:100AA000031D532D542D6F2D6430AA002A08BC005D
:100AB000F825003A03195D2D5E2D642DF80103140D
:100AC000F80D83120514732DF80183120514C83034
:100AD000F42483120510C830F424732D732D0130D3
:100AE0008312BC02732D8312BB010314BB0D0800DB
:100AF0008312A50007100130F42483122408031D7B
:100B0000822D842D0511862D8711862D0130F42428
:100B1000831225084D240130F424831223084D2428
:100B20000130F42483122408031D972D992D0515F7
:100B30009B2D87159B2D0130F424080071308316FE
:100B40008F0091010730831299009A011F108316BC
:100B500081118B120B128B110B131730831298001B
:100B60001830831685000430831285000430831604
:100B7000870028308312870008008312051079103F
:100B80008510F8014030A6002608A300A4015A30C1
:100B90007825F430F424CE2D640063008312851987
:100BA000D22DD32DCC2DBB0108000C1CD82DD92D56
:100BB000DC2D0626DC2DDC2D73088312FF00720865
:100BC0008A0071088400700E8300FE0E7E0E0900FC
:100BD000F601F70183128E01F0308F0074308E0021
:100BE0000130900083160C140B1783120C100800B0
:100BF0008330F3238312A8002808A90029080139AB
:100C0000A8002808A9002908052E080083128E01D3
:100C1000F0308F0074308E000C100130F60703188E
:100C2000F70A0030F7070800F901F601F701F801AB
:100C300083132E3084003B3042265126BC008301B2
:100C4000382E83128712FF30F424FF30F424FF3053
:100C5000F4248D238312BB0108008312BB0103140B
:100C6000BB0D0630F4000030F5003730C02408001A
:100C70009E25E8252D263C2E8B1323258B173C2EF5
:100C80003C2E0F2864008001840A040603190034F6
:100C90000406432ECC2102308312A9002908BB0090
:100CA0000800FF34FF3FFF3FFF3FFF3FFF3FFF3F95
:100CB000FF3FFF3FFF3FFF3FFF3FFF3FFF3FFF3F44
:100CC000FF3FFF3FFF3FFF3FFF3FFF3FFF3FFF3F34
:100CD000FF3FFF3FFF3FFF3FFF3FFF3FFF3FFF3F24
:100CE000FF3FFF3FFF3FFF3FFF3FFF3FFF3FFF3F14
:02400E00D430AC
:08400000FF3FFF3FFF3FFF3FC0
:02401000FF3F70
:00000001FF
