:020000040000FA
:100000008529FF3FFF3FFF3FFF3FFF3FFF3FFF3F90
:10001000FF3FFF3FFF3FFF3FFF3FFF3FFF3FFF3FF0
:10002000FF3FFF3FFF3FFF3FFF3FFF3FFF3FFF3FE0
:10003000FF3FFF3FFF3FFF3FFF3FFF3FFF3FFF3FD0
:10004000FF3FFF3FFF3FFF3FFF3FFF3FFF3FFF3FC0
:1002E000FF3FFF3FFF3FFF3FD234F000700883160F
:1002F0009B001C141A087C29080064008001840AF1
:1003000004060319003404067E2983132030840078
:1003100031307D217421BB008301672DF0009329CA
:100320000130F0029329F008031D9729982990299C
:10033000992908007E088A007F0882009A2180009F
:10034000840A04087D0603190034FF0A0319FE0A13
:100350009E29F200720883169B0071089A001C15F2
:100360008B1355309D00AA309D009C148B171C11D7
:100370000800713083168F009101073083129900B5
:100380009A011F10203083168500023087008312E7
:100390008501870108008312B400FA30FD007D0852
:1003A000B3003408FD007D08B1007C08FD007D0825
:1003B000B2007C08FD007D08F70034085422E129D2
:1003C000E12901308312B302031DE729E829E1295D
:1003D000E9293408B122FD007D08FC0083123208AF
:1003E0007C06003003190130F5290800F1001430B3
:1003F000F0007008F2001330F0007008F3001D2ABE
:10040000112A052A0130F202052AF208031D092AE1
:100410000A2A022A0B2A0130F3021430F000700875
:10042000F200F308031D152A162A052A172A13308D
:10043000F0007008F3000130F102F108031D212AD9
:10044000222A112A232A0800F500F6010830760234
:10045000031C2B2A2C2A2E2A532A532A83120711D3
:10046000F51F332A342A362A0715362A64308E219E
:100470008312871564308E218312871164308E2198
:100480007508F3007307F4007408F5008312071170
:100490000130F3007308F60708307602031C512A76
:1004A000522A2E2A532A0800F9008312AE0187151A
:1004B000071564308E218312071164308E21831258
:1004C000871164308E2183123B08F8007808FA0007
:1004D0007A0824228316071503308E21831287158C
:1004E00064308E218312071D762A772A782A2E14EB
:1004F0008711FB30F80078088316870579082422D5
:10050000831607158312871564308E218312071D09
:100510008A2A8B2A8C2A2E148711FB30F80078083F
:1005200083168705770824228316071583128715FB
:1005300064308E218312071D9E2A9F2AA02A2E1422
:100540008711FB30F800780883168705831207119E
:1005500064308E218312871564308E218312071533
:100560000800F9008312AE018715071564308E214B
:100570008312071164308E218312871164308E211B
:1005800083123B08F7007708FB007B0824228316C0
:1005900007158312871564308E218312071DD12A17
:1005A000D22AD32A2E148711FB30F700770883163E
:1005B000870564308E21790824228316071583125B
:1005C000871564308E218312071DE72AE82AE92A5D
:1005D0002E148711FB30F7007708831687058312E6
:1005E000071564308E218312871564308E218312A3
:1005F000071164308E218312871164308E2183129B
:100600003B08013EF7007708FB007B082422831695
:1006100007158312871564308E218312071D112B55
:10062000122B132B2E1487111E30F7007708FB00B6
:100630001A2B1A2B0130FB02031D1F2B202B1A2B08
:10064000FB01FA0108307A02031C272B282B2A2BE6
:100650004C2B4C2B7B08F7007707F8007808FB0041
:1006600064308E218312871564308E218312071D1A
:100670003A2B3B2B412B7B08013EF7007708FB0010
:10068000412B87110130F7007708FA0708307A020A
:10069000031C4B2B4C2B2A2B8312871564308E2185
:1006A00083120719542B552B562B2E148711FB3010
:1006B000F7007708831687058312071187156430C2
:1006C0008E21831207157B08652B08001E308E21B2
:1006D00000308312A3000030A2000030A1000030DF
:1006E000A0002308803AFF000030803A7F02031DFB
:1006F000832B00302202031D832B00302102031DB7
:10070000832B80302002031C862B872B892BFE2B0A
:10071000FE2B1E308E2183122008B5003508AF0055
:100720001E308E2183122F0875218312B5003508E3
:10073000B0003008031D9D2BD62B1E308E21831256
:100740003008B5003508FC002F08CB210038031D08
:10075000AA2BAB2BD62BFF308312B500FF30B6008F
:10076000FF30B700FF30B8002008B5072108031894
:10077000210FBB2BBC2BB60722080318220FC12B5D
:10078000C22BB70723080318230AB8073808A300A9
:100790003708A2003608A1003508A0000516F4307D
:1007A000F62183120512F430F621D62B0130831284
:1007B000A007003003180130A107003003180130F2
:1007C000A207003003180130A3072308803AFF0076
:1007D0000030803A7F02031DF72B00302202031DF8
:1007E000F72B00302102031DF72B80302002031C61
:1007F000FA2BFB2B892BFE2BFE2BFE2B02308312B8
:10080000B5003508FC004430CB21003A0319092C0F
:100810000A2CFE2B0D2C0D2C0D2C03308312B50051
:100820003508FC004930CB21003A0319182C192C4B
:100830000D2C1C2C1C2C1C2C02308312B5003508EE
:10084000FC005030CB21003A0319272C282C1C2CFB
:100850002B2C2B2C2B2C02308312B5003508FC00DE
:100860005330CB21003A0319362C372C2B2C3A2C41
:100870003A2C3A2C03308312B5003508FC00563070
:10088000CB21003A0319452C462C3A2C492C492CF3
:10089000492C20308312B5003508FC004A30CB21AA
:1008A000003A0319542C552C492C582C582C582CF0
:1008B00083308312B5003508FC005A30CB21003A52
:1008C0000319632C642C582C652C08001E308E21D3
:1008D00000308312A3000030A2000030A1000030DD
:1008E000A0002308803AFF000030803A7F02031DF9
:1008F000832C00302202031D832C00302102031DB3
:10090000832C80302002031C862C872C892CFF2C02
:10091000FF2C1E308E2183122008B5003508AF0051
:100920001E308E2183122F08803E75218312B50060
:100930003508B0003008031D9E2CD72C1E308E21A8
:1009400083123008B5003508FC002F08CB21003891
:10095000031DAB2CAC2CD72CFF308312B500FF301D
:10096000B600FF30B700FF30B8002008B5072108F7
:100970000318210FBC2CBD2CB60722080318220F28
:10098000C22CC32CB70723080318230AB80738085A
:10099000A3003708A2003608A1003508A0000515FD
:1009A000F430F62183120511F430F621D72C0130F2
:1009B0008312A007003003180130A107003003188C
:1009C0000130A207003003180130A3072308803A42
:1009D000FF000030803A7F02031DF82C0030220215
:1009E000031DF82C00302102031DF82C803020025A
:1009F000031CFB2CFC2C892CFF2CFF2CFF2C023021
:100A00008312B5003508FC004430CB21003A0319AD
:100A10000A2D0B2DFF2C0E2D0E2D0E2D03308312C3
:100A2000B5003508FC004930CB21003A0319192DD7
:100A30001A2D0E2D1D2D1D2D1D2D02308312B500DA
:100A40003508FC005030CB21003A0319282D292D00
:100A50001D2D2C2D2C2D2C2D02308312B500350888
:100A6000FC005330CB21003A0319372D382D2C2DA3
:100A70003B2D3B2D3B2D03308312B5003508FC0088
:100A80005630CB21003A0319462D472D3B2D4A2DD8
:100A90004A2D4A2D20308312B5003508FC004A301B
:100AA000CB21003A0319552D562D4A2D592D592D7C
:100AB000592D83308312B5003508FC005A30CB2104
:100AC000003A0319642D652D592D662D0800B921B2
:100AD0008312071287120710F4308E216430F6213A
:100AE0006430F6216430F6216430F6216430F6215A
:100AF0006430F6216430F6216430F621D23083125E
:100B0000B9003908BB00662352308312B900390896
:100B1000BB0066248312051105126430F621902D66
:100B2000D2308312B9003908BB000330B1228312DE
:100B3000B90039189C2D9D2DA52D0516FF30F621E5
:100B400083120512FF30F621A72D0516A72D52306E
:100B50008312B9003908BB000330B1228312B900F7
:100B60003918B32DB42DBC2D0515FF30F621831295
:100B70000511FF30F621BE2D0515BE2DFF30F621E3
:100B80008312851AC42DC52D902DFF30F621FF301C
:100B9000F621FF30F6218312851ACF2DD02D902D0E
:100BA00007168716DD2D051505166430F62183120C
:100BB000051105126430F621DD2D8312851EE12D0D
:100BC000E22DD32DE32DD230B9003908BB00F70157
:100BD000393054221A308312B9003908F7003A30FC
:100BE00054222B308312B9003908F7003B305422CD
:100BF0003C308312B9003908F7003C3054224D30A4
:100C00008312B9003908F7003D30542210308312A6
:100C1000B9003908F7003630542252308312B90037
:100C20003908BB005D30B9003908F700393054226B
:100C30006C308312B9003908F7003A3054227B3007
:100C40008312B9003908F7003B3054228A308312EE
:100C5000B9003908F7003C30542290308312B900B3
:100C60003908F7003D30542210308312B90039089A
:100C7000F70036305422E52ED2308312B9003908FD
:100C8000BB003930B122003A0319472E482E4E2EB0
:100C900001308312AA000030AB004E2E3A30B12250
:100CA0001A3A0319542E552E5B2E01308312AA00D6
:100CB0000030AB005B2E3B30B1222B3A0319612E82
:100CC000622E682E01308312AA000030AB00682E1D
:100CD0003C30B1223C3A03196E2E6F2E752E013036
:100CE0008312AA000030AB00752E3D30B1224D3A80
:100CF00003197B2E7C2E812E01308312AA00003036
:100D0000AB0052308312B9003908BB003930B12230
:100D10005D3A03198C2E8D2E932E01308312A40080
:100D20000030A500932E3A30B1226C3A0319992E67
:100D30009A2EA02E01308312A4000030A500A02E10
:100D40003B30B1227B3A0319A62EA72EAD2E0130DF
:100D50008312A4000030A500AD2E3C30B1228A3AA7
:100D60000319B32EB42EBA2E01308312A400003022
:100D7000A500BA2E3D30B122903A0319C02EC12EE3
:100D8000C62E01308312A4000030A500013083126A
:100D9000A8070318A90A0030A9073C30280629042F
:100DA000031DD32ED42EDB2E0130AC000030AD005D
:100DB000A801A901DB2E051505166430F621831262
:100DC000051105126430F621E52E83122B082A0442
:100DD000031DEB2EEC2EFB2E25082404031DF12E03
:100DE000F22EFB2E01302C062D04031DF82EF92EB9
:100DF0003C2EFB2EFB2E01302C062D040319012F57
:100E0000022FEE2FA801A901003029020530031995
:100E10002802031C0C2F0D2F0F2F222F222FFF3003
:100E2000F62101308312A8070318A90A0030A90788
:100E300000302902053003192802031C202F212F1E
:100E40000F2F222FA801A901003029020530031914
:100E50002802031C2C2F2D2F2F2FAE2FAE2FD23078
:100E6000B9003908BB000A30F621013083122A0686
:100E70002B04031D3C2F3D2F522F2808393EB12251
:100E80008312B900BA013908A6003A08A700280859
:100E9000393EB1228312B9003908F1002808393EE1
:100EA000A921652F83122808393E75218312B900C4
:100EB000BA013908A6003A08A7002608B90039087F
:100EC000FC002808393ECB21652F52308312B9002F
:100ED0003908BB000A30F6210130831224062504AC
:100EE000031D732F742F892F2808393EB1228312D6
:100EF000B900BA013908A6003A08A7002808393E07
:100F0000B1228312B9003908F1002808B93EA9219D
:100F10009B2F83122808B93E75218312B900BA01AC
:100F20003908A6003A08A7002608B9003908FC00CD
:100F30002808393ECB213230F62101308312A80730
:100F40000318A90A0030A907003029020530031947
:100F50002802031CAC2FAD2F2F2FAE2F2B082A04F5
:100F6000031DB32FB42FCD2FD230B9003908BB00E9
:100F70001030B9003908F7003630542283120710B8
:100F80006430F6216430F6216430F621D2308312C9
:100F9000B9003908BB006623CD2F8312250824042D
:100FA000031DD32FD42FEE2F5230B9003908BB00C8
:100FB0001030B9003908F700363054228312071078
:100FC0006430F6216430F6216430F6215230831209
:100FD000B9003908BB006624EE2FEE2F8312AC0156
:100FE000AD01A801A901AA01AB01A401A501071245
:100FF0008712FF30F621902D902D902D902D0028F6
:10420000000051000000000000000000000000005D
:10421000000000000000000034000A0042004F00CF
:104220001800260000000000000000000000000050
:10423000000000000000000000000000000000007E
:10424000000000000000000000000000000000006E
:10425000000000000000000000000000000000005E
:104260000000000000000200060003000000000043
:1042700000003B00F600F3005300170000000000B0
:10428000000000000000000000000000000000002E
:10429000000003000000000000000000000000001B
:1042A0000000000006000000000000000300000005
:1042B00000000000000000000000000000000000FE
:1042C00000000000000000000000000000000000EE
:1042D00000000000000000000000000000000000DE
:1042E00000000000000000000000000000000000CE
:1042F00000000000000000000000000000000000BE
:10430000000051000000000000000000000000005C
:1043100000000000000000001F003B00110004002E
:104320002D00490000000000000000000000000017
:10433000000000000000000000000000000000007D
:10434000000000000000000000000000000000006D
:10435000000000000000000000000000000000005D
:104360000000000000000200060003000000000042
:104370000000AB0031003E003F003A0000000000AA
:10438000000000000000000000000000000000002D
:10439000000003000000000000000000000000001A
:1043A0000000000006000000000000000300000004
:1043B00000000000000000000000000000000000FD
:1043C00000000000000000000000000000000000ED
:1043D00000000000000000000000000000000000DD
:1043E00000000000000000000000000000000000CD
:1043F00000000000000000000000000000000000BD
:02400E00D430AC
:08400000FF3FFF3FFF3FFF3FC0
:02401000FF3F70
:00000001FF
